201902210010000300000000000000024112                8000000000030712272542OLGA S.Z. DE SIMONETTO        000000000235000000000000000000000000000000000000000000000000000000000000000000000000000000000000000000000000000000000000PES00010000001000000000000000000000000000000000000000000                              000000000000000
201902160010002200000000000000024163                8000000000030685694286PETROARSA S.A                 000000006487104000000000000000000000000000000000000000000000000000000000000000000000000000000000000000000000000000000000PES00010000001000000000000000000000000000000000000000000                              000000000000000
201902010010000200000000000000004287                8000000000030714651206REZK & ROSSO SRL              000000000205700000000000000000000000000000000000000000000000000000000000000000000000000000000000000000000000000000000000PES00010000001000000000000000000000000000000000000000000                              000000000000000
201902010010001100000000000000006918                8000000000030711569843ELECTRO IND SRL               000000000460350000000000000000000000000000000000000000000000000000000000000000000000000000000000000000000000000000000000PES00010000001000000000000000000000000000000000000000000                              000000000000000
201902010010000000000000000145996746                8000000000030500010912BANCO NACION                  000000003403628000000000000000000000000000000000000000000000000000000000000000000000000000000000000000000000000000000000PES00010000001000000000000000000000000000000000000000000                              000000000000000
201902010010000400000000000000000206                8000000000020235191777PEDRO JAVIER SABEH            000000000302500000000000000000000000000000000000000000000000000000000000000000000000000000000000000000000000000000000000PES00010000001000000000000000000000000000000000000000000                              000000000000000
201902010010000100000000000000000022                8000000000030715999389RAMOS Y CHAVANNE SRL          000000000338800000000000000000000000000000000000000000000000000000000000000000000000000000000000000000000000000000000000PES00010000001000000000000000000000000000000000000000000                              000000000000000
201902010010201700000000000001903891                8000000000030546689979YPF SA EN RUTA                000000006614535000000000000000000000000000000000000000138771000000000000000000000000000000000000000000000000000000000000PES00010000001000000000000000000000000000000000000000000                              000000000000000
201902010010001000000000000000156031                8000000000030709369403DIEGO O TOLEDO                000000000465000000000000000000000000000000000000000000000000000000000000000000000000000000000000000000000000000000000000PES00010000001000000000000000000000000000000000000000000                              000000000000000
201902010110000100000000000000000330                8000000000023313231364VICTORIA PASQUINI             000000002500000000000002500000000000000000000000000000000000000000000000000000000000000000000000000000000000000000000000PES00010000000000000000000000000000000000000000000000000                              000000000000000
201902010010000300000000000000001573                8000000000027277517006ZATO FABIANA VERONICA         000000000180000000000000000000000000000000000000000000000000000000000000000000000000000000000000000000000000000000000000PES00010000001000000000000000000000000000000000000000000                              000000000000000
201902020010000400000000000000001479                8000000000020261900913LEVEL SEVEN S.R.L.            000000000087120000000000000000000000000000000000000000000000000000000000000000000000000000000000000000000000000000000000PES00010000001000000000000000000000000000000000000000000                              000000000000000
201902040010000400000000000000000063                8000000000020160394731DE ZAVALIA AGUILAR EDUARDO JOS000000001303315000000000000000000000000000000000000000000000000000000000000000000000000000000000000000000000000000000000PES00010000001000000000000000000000000000000000000000000                              000000000000000
201902040110000400000000000000000081                8000000000020295327376MURATORE LUIS MARTIN          000000004620000000000004620000000000000000000000000000000000000000000000000000000000000000000000000000000000000000000000PES00010000000000000000000000000000000000000000000000000                              000000000000000
201902040010000200000000000000001079                8000000000030710842961VORSICHT SRL (EN FORMACION)   000000000968000000000000000000000000000000000000000000000000000000000000000000000000000000000000000000000000000000000000PES00010000001000000000000000000000000000000000000000000                              000000000000000
201902040010000100000000000000000025                8000000000030715999389RAMOS Y CHAVANNE SRL          000000000157300000000000000000000000000000000000000000000000000000000000000000000000000000000000000000000000000000000000PES00010000001000000000000000000000000000000000000000000                              000000000000000
201902040010000400000000000000010364                8000000000030707627405EMILIO TERZI S.A.             000000270424705000000000000000000000000000000000000000000000000000000000000000000000000000000000000000000000000000000000PES00010000001000000000000000000000000000000000000000000                              000000000000000
201902040010009800000000000019089226                8000000000030658650242EDET S.A.                     000000003377500000000000000000000000000000000000000000084963000000000000000000000000072826000000000000000000000000000000PES00010000001000000000000000000000000000000000000000000                              000000000000000
201902040110000100000000000000000590                8000000000023218940579WALTER LUNA VIDAL             000000001200000000000001200000000000000000000000000000000000000000000000000000000000000000000000000000000000000000000000PES00010000000000000000000000000000000000000000000000000                              000000000000000
201902050010201900000000000000292821                8000000000030546689979YPF DERIVADOS                 000000071114454000000000000000000000000000000000000000000000000000000000000000000000000000000000000000000000000000000000PES00010000001000000000000000000000000000000000000000000                              000000000000000
201902050010202000000000000000342973                8000000000030546689979YPF LUBRICANTES               000000111071795000000000000000000000000000000000000000000000000000000000000000000000000000000000000000000000000000000000PES00010000001000000000000000000000000000000000000000000                              000000000000000
201902050010000200000000000000000076                8000000000027186719587NAVARRO BEATRIZ DEL VALLE BEAT000000000080000000000000000000000000000000000000000000000000000000000000000000000000000000000000000000000000000000000000PES00010000001000000000000000000000000000000000000000000                              000000000000000
201902060010000400000000000000000805                8000000000020082537830BASILIO SIMON KATERYNICZ      000000027562348000000000000000000000000000000000000000000000000000000000000000000000000000000000000000000000000000000000PES00010000001000000000000000000000000000000000000000000                              000000000000000
201902060010005600000000000000014997                8000000000030531878171BOCANERA S.A.                 000000000118326000000000000000000000000000000000000000003326000000000000000000000000000000000000000000000000000000000000PES00010000001000000000000000000000000000000000000000000                              000000000000000
201902060010001200000000000000199707                8000000000030542851836A B C S.A.                    000000003234321000000000000000000000000000000000000000000000000000000000000000000000078250000000000000000000000000000000PES00010000001000000000000000000000000000000000000000000                              000000000000000
201902060010000600000000000000006200                8000000000030708546301FRENOS Y ELASTICOS LA BANDA SR000000000968000000000000000000000000000000000000000000000000000000000000000000000000000000000000000000000000000000000000PES00010000001000000000000000000000000000000000000000000                              000000000000000
201902070010000500000000000000002499                8000000000030714347310CORPUNITED S.R.L.             000000000077577000000000000000000000000000000000000000000000000000000000000000000000000000000000000000000000000000000000PES00010000001000000000000000000000000000000000000000000                              000000000000000
201902070010000500000000000000002498                8000000000030714347310CORPUNITED S.R.L.             000000000124732000000000000000000000000000000000000000000000000000000000000000000000000000000000000000000000000000000000PES00010000001000000000000000000000000000000000000000000                              000000000000000
201902070010620600000000000000000262                8000000000030678186445TELECOM PERSONAL SA           000000000724483000000000000000000000000000000000000000024583000000000000000000000000000000000000000000000000000000000000PES00010000001000000000000000000000000000000000000000000                              000000000000000
201902070010621000000000000000000808                8000000000030678186445TELECOM PERSONAL SA           000000000724483000000000000000000000000000000000000000007230000000000000000000000000017353000000000000000000000000000000PES00010000001000000000000000000000000000000000000000000                              000000000000000
201902070010000200000000000000000726                8000000000027374853754RIVERA JULIETA ROCIO          000000000302500000000000000000000000000000000000000000000000000000000000000000000000000000000000000000000000000000000000PES00010000001000000000000000000000000000000000000000000                              000000000000000
201902080010033500000000000000116081                8000000000030579939008LA SEVILLANITA SRL            000000000039516000000000000000000000000000000000000000000000000000000000000000000000000000000000000000000000000000000000PES00010000001000000000000000000000000000000000000000000                              000000000000000
201902080010000300000000000000023364                8000000000020117622569SERGIO SCOPEL                 000000000025000000000000000000000000000000000000000000000000000000000000000000000000000000000000000000000000000000000000PES00010000001000000000000000000000000000000000000000000                              000000000000000
201902080110000200000000000000000166                8000000000020307589436PEREZ BAROT MATIAS            000000000600000000000000600000000000000000000000000000000000000000000000000000000000000000000000000000000000000000000000PES00010000000000000000000000000000000000000000000000000                              000000000000000
201902080010000200000000000000000248                8000000000030715752936360 MEDIA SRL                 000000002129600000000000000000000000000000000000000000000000000000000000000000000000000000000000000000000000000000000000PES00010000001000000000000000000000000000000000000000000                              000000000000000
201902080010000200000000000000000249                8000000000030715752936360 MEDIA SRL                 000000002129600000000000000000000000000000000000000000000000000000000000000000000000000000000000000000000000000000000000PES00010000001000000000000000000000000000000000000000000                              000000000000000
201902080010202000000000000000343376                8000000000030546689979YPF LUBRICANTES               000000004639014000000000000000000000000000000000000000000000000000000000000000000000000000000000000000000000000000000000PES00010000001000000000000000000000000000000000000000000                              000000000000000
201902080010201700000000000001913126                8000000000030546689979YPF SA COMBUSTIBLES           000000128862136000000000000000000000000000000000000002697189000000000000000000000000000000000000000000000000000000000000PES00010000001000000000000000000000000000000000000000000                              000000000000000
201902080010000200000000000000198475                8000000000030708016299NACION LAESING S.A.           000000037737116000000000000000000000000000000000000000000000000000000000000000000000000000000000000000000000000000000000PES00010000001000000000000000000000000000000000000000000                              000000000000000
201902090010001300000000000000286372                8000000000030542851836A B C S.A.                    000000002420759000000000000000000000000000000000000000000000000000000000000000000000058567000000000000000000000000000000PES00010000001000000000000000000000000000000000000000000                              000000000000000
201902090010201700000000000001913619                8000000000030546689979YPF SA COMBUSTIBLES           000000122200782000000000000000000000000000000000000002557762000000000000000000000000000000000000000000000000000000000000PES00010000001000000000000000000000000000000000000000000                              000000000000000
201902100010000600000000000006447641                8000000000030620177497POSNET S.R.L.                 000000000067666000000000000000000000000000000000000000000692000000000000000000000000000000000000000000000000000000000000PES00010000001000000000000000000000000000000000000000000                              000000000000000
201902110010000400000000000000009823                8000000000030546689979GLEFYC S.R.L.                 000000000159211000000000000000000000000000000000000000000000000000000000000000000000000000000000000000000000000000000000PES00010000001000000000000000000000000000000000000000000                              000000000000000
201902110010000400000000000000001113                8000000000030714372153CARMES SRL                    000000000314999000000000000000000000000000000000000000000000000000000000000000000000000000000000000000000000000000000000PES00010000001000000000000000000000000000000000000000000                              000000000000000
201902110010001100000000000000001863                8000000000030714372153SOLANO S.A                    000000000140021000000000000000000000000000000000000000000000000000000000000000000000000000000000000000000000000000000000PES00010000001000000000000000000000000000000000000000000                              000000000000000
201902110010001100000000000000002313                8000000000030714372153SOLANO S.A                    000000000214050000000000000000000000000000000000000000000000000000000000000000000000000000000000000000000000000000000000PES00010000001000000000000000000000000000000000000000000                              000000000000000
201902110010000700000000000000000404                8000000000023143932214PATRICIA CECILIA RAMOS        000000000310000000000000000000000000000000000000000000000000000000000000000000000000000000000000000000000000000000000000PES00010000001000000000000000000000000000000000000000000                              000000000000000
201902110010004800000000000000034369                8000000000030647678889SANTA BARBARA S.A.            000000000130013000000000000000000000000000000000000000000000000000000000000000000000000000000000000000000000000000000000PES00010000001000000000000000000000000000000000000000000                              000000000000000
201902110010000300000000000000000440                8000000000027114759576FIGUEROA SOFIA ANTONIA        000000001120000000000000000000000000000000000000000000000000000000000000000000000000000000000000000000000000000000000000PES00010000001000000000000000000000000000000000000000000                              000000000000000
201902110010000300000000000000000445                8000000000027114759576FIGUEROA SOFIA ANTONIA        000000001640000000000000000000000000000000000000000000000000000000000000000000000000000000000000000000000000000000000000PES00010000001000000000000000000000000000000000000000000                              000000000000000
201902110010000500000000000000002640                8000000000030641428104FANTINATTO ADRIAN MARCELO     000000000122000000000000000000000000000000000000000000000000000000000000000000000000000000000000000000000000000000000000PES00010000001000000000000000000000000000000000000000000                              000000000000000
201902110010451200000000000000000455                8000000000030590360763CENCOSUD S.A.                 000000000390850000000000003711000000000000000000000000000000000000000000000000000000008387000000000000000000000000000000PES00010000002000000000000000000000000000000000000000000                              000000000000000
201902110010001100000000000000008584                8000000000030526143813OSCAR BARBIERI SA             000000000368126000000000000000000000000000000000000000000000000000000000000000000000000000000000000000000000000000000000PES00010000001000000000000000000000000000000000000000000                              000000000000000
201902110010096500000000000000057163                8000000000030516186670DEHEZA SAICFeI                000000000217089000000000000000000000000000000000000000000000000000000000000000000000000000000000000000000000000000000000PES00010000001000000000000000000000000000000000000000000                              000000000000000
201902110010000900000000000000040572                8000000000020242004710ALVAREZ MIGUEL ANGEL          000000000039998000000000000000000000000000000000000000000000000000000000000000000000000000000000000000000000000000000000PES00010000001000000000000000000000000000000000000000000                              000000000000000
201902110110000200000000000000000020                8000000000020282234824FEROLI SEBASTIAN OSCAR        000000000500000000000000500000000000000000000000000000000000000000000000000000000000000000000000000000000000000000000000PES00010000000000000000000000000000000000000000000000000                              000000000000000
201902110010001300000000000000026674                8000000000030641428104PEREZ CURBELO NEUMATICOS      000000000909752000000000000000000000000000000000000000049752000000000000000000000000000000000000000000000000000000000000PES00010000001000000000000000000000000000000000000000000                              000000000000000
201902110010002500000000000000025939                8000000000030545220802CASA JAIME SRL                000000000140000000000000000000000000000000000000000000000000000000000000000000000000000000000000000000000000000000000000PES00010000001000000000000000000000000000000000000000000                              000000000000000
201902110010202000000000000000343465                8000000000030546689979YPF LUBRICANTES               000000008790844000000000000000000000000000000000000000000000000000000000000000000000000000000000000000000000000000000000PES00010000001000000000000000000000000000000000000000000                              000000000000000
201902110010201700000000000001914609                8000000000030546689979YPF SA COMBUSTIBLES           000000141209913000000000000000000000000000000000000002945141000000000000000000000000000000000000000000000000000000000000PES00010000001000000000000000000000000000000000000000000                              000000000000000
201902110010000400000000000000010423                8000000000030707627405EMILIO TERZI S.A.             000000099287494000000000000000000000000000000000000000000000000000000000000000000000000000000000000000000000000000000000PES00010000001000000000000000000000000000000000000000000                              000000000000000
201902120010000100000000000087139732                8000000000030500001735VISA GALICIA                  000000000646140000000000000000000000000000000000000000000000000000000000000000000000000000000000000000000000000000000000PES00010000001000000000000000000000000000000000000000000                              000000000000000
201902120010201700000000000001914967                8000000000030546689979YPF SA COMBUSTIBLES           000000125589295000000000000000000000000000000000000002628686000000000000000000000000000000000000000000000000000000000000PES00010000001000000000000000000000000000000000000000000                              000000000000000
201902120010000600000000000000007730                8000000000030628821506ALBIERO HNOS SRL              000000001152114000000000000000000000000000000000000000000000000000000000000000000000000000000000000000000000000000000000PES00010000001000000000000000000000000000000000000000000                              000000000000000
201902130010000300000000000000000446                8000000000027114759576FIGUEROA SOFIA ANTONIA        000000000240000000000000000000000000000000000000000000000000000000000000000000000000000000000000000000000000000000000000PES00010000001000000000000000000000000000000000000000000                              000000000000000
201902130010244800000000000000002608                8000000000030590360763CENCOSUD S.A.                 000000000373896000000000000000000000000000000000000000010299000000000000000000000000008797000000000000000000000000000000PES00010000001000000000000000000000000000000000000000000                              000000000000000
201902130010450700000000000000000516                8000000000030590360763CENCOSUD S.A.                 000000000297113000000000000000000000000000000000000000000000000000000000000000000000007188000000000000000000000000000000PES00010000001000000000000000000000000000000000000000000                              000000000000000
201902130010451200000000000000000482                8000000000030590360763CENCOSUD S.A.                 000000000356271000000000004276000000000000000000000000000000000000000000000000000000007231000000000000000000000000000000PES00010000002000000000000000000000000000000000000000000                              000000000000000
201902130010000300000000000000024012                8000000000030712272542OLGA S.Z. DE SIMONETTO        000000000087750000000000000000000000000000000000000000000000000000000000000000000000000000000000000000000000000000000000PES00010000001000000000000000000000000000000000000000000                              000000000000000
201902130010000400000000000000000810                8000000000020082537830BASILIO SIMON KATERYNICZ      000000009204954000000000000000000000000000000000000000000000000000000000000000000000000000000000000000000000000000000000PES00010000001000000000000000000000000000000000000000000                              000000000000000
201902130010000100000000000000635234                8000000000030500049460SANCOR SEGUROS                000000014210800000000000000000000000000000000000000000000000000000000000000000000000000000000000000000000000000000000000PES00010000001000000000000000000000000000000000000000000                              000000000000000
201902130010005600000000000000015090                8000000000030531878171BOCANERA S.A.                 000000000115239000000000000000000000000000000000000000003240000000000000000000000000000000000000000000000000000000000000PES00010000001000000000000000000000000000000000000000000                              000000000000000
201902130010001300000000000000026716                8000000000030641428104PEREZ CURBELO NEUMATICOS      000000000570182000000000000000000000000000000000000000031182000000000000000000000000000000000000000000000000000000000000PES00010000001000000000000000000000000000000000000000000                              000000000000000
201902130010000100000000000000000761                8000000000030715732609TALELR RUTA 9 S.R.L.          000000002369999000000000000000000000000000000000000000000000000000000000000000000000000000000000000000000000000000000000PES00010000001000000000000000000000000000000000000000000                              000000000000000
201902130010202000000000000000343626                8000000000030546689979YPF LUBRICANTES               000000081067412000000000000000000000000000000000000000000000000000000000000000000000000000000000000000000000000000000000PES00010000001000000000000000000000000000000000000000000                              000000000000000
201902130010201700000000000001915682                8000000000030546689979YPF SA COMBUSTIBLES           000000122183772000000000000000000000000000000000000002557406000000000000000000000000000000000000000000000000000000000000PES00010000001000000000000000000000000000000000000000000                              000000000000000
201902130020004000000000000000064542                8000000000030686529289ADAMA ARGENTINA SA            000000021504585000000000000000000000000000000000000000000000000000000000000000000000000000000000000000000000000000000000PES00010000001000000000000000000000000000000000000000000                              000000000000000
201902130010002100000000000000008761                8000000000030657611936SILVA SRL                     000000000227556000000000000000000000000000000000000000002327000000000000000000000000000000000000000000000000000000000000PES00010000001000000000000000000000000000000000000000000                              000000000000000
201902130010000200000000000000198733                8000000000030708016299NACION LAESING S.A.           000000007773944000000000000000000000000000000000000000000000000000000000000000000000000000000000000000000000000000000000PES00010000001000000000000000000000000000000000000000000                              000000000000000
201902130010000500000000000000043044                8000000000030568526623CONDISTELEC S.A.              000000000030000000000000000000000000000000000000000000000000000000000000000000000000000000000000000000000000000000000000PES00010000001000000000000000000000000000000000000000000                              000000000000000
201902130010000300000000000000003011                8000000000030568526623CONDISTELEC S.A.              000000004942100000000000000000000000000000000000000000000000000000000000000000000000000000000000000000000000000000000000PES00010000001000000000000000000000000000000000000000000                              000000000000000
201902130010001700000000000000072839                8000000000030578654182BP SA                         000000011564339000000000129999000000000000000000000000118178000000000000000000000000000000000000000000000000000000000000PES00010000002000000000000000000000000000000000000000000                              000000000000000
201902130030001700000000000000004981                8000000000030578654182BP SA                         -00000000582795000000000000000000000000000000000000000000000000000000000000000000000000000000000000000000000000000000000PES00010000001000000000000000000000000000000000000000000                              000000000000000
201902140010000200000000000000003331                8000000000030710941692SERENELLI GRACIELA Y PAZ ANA L000000000193600000000000000000000000000000000000000000000000000000000000000000000000000000000000000000000000000000000000PES00010000001000000000000000000000000000000000000000000                              000000000000000
201902140010004500000000000000010779                8000000000030707211942ROLCAR SA                     000000001639890000000000000000000000000000000000000000000000000000000000000000000000000000000000000000000000000000000000PES00010000001000000000000000000000000000000000000000000                              000000000000000
201902140010005600000000000000011999                8000000000030708725346EMPRENDIMIENTO METALURGICO IND000000001173712000000000000000000000000000000000000000012001000000000000000000000000000000000000000000000000000000000000PES00010000001000000000000000000000000000000000000000000                              000000000000000
201902140010000500000000000000200088                8000000000030628821506ALBIERO HNOS SRL              000000000162000000000000000000000000000000000000000000000000000000000000000000000000000000000000000000000000000000000000PES00010000001000000000000000000000000000000000000000000                              000000000000000
201902140010000500000000000000200431                8000000000030628821506ALBIERO HNOS SRL              000000000305500000000000000000000000000000000000000000000000000000000000000000000000000000000000000000000000000000000000PES00010000001000000000000000000000000000000000000000000                              000000000000000
201902150010000200000000000000003029                8000000000020335415176NIEVA MARAï¿½ON MARCOS MARCELO000000000190000000000000000000000000000000000000000000000000000000000000000000000000000000000000000000000000000000000000PES00010000001000000000000000000000000000000000000000000                              000000000000000
201902150010000100000000000087399620                8000000000030500001735VISA GALICIA                  000000000475067000000000000000000000000000000000000000000000000000000000000000000000000000000000000000000000000000000000PES00010000001000000000000000000000000000000000000000000                              000000000000000
201902150010000300000000000000001279                8000000000030711933057SERVIGRUAS S.R.L.             000000004840000000000000000000000000000000000000000000000000000000000000000000000000000000000000000000000000000000000000PES00010000001000000000000000000000000000000000000000000                              000000000000000
201902150010202000000000000000343804                8000000000030546689979YPF LUBRICANTES               000000034775955000000000000000000000000000000000000000000000000000000000000000000000000000000000000000000000000000000000PES00010000001000000000000000000000000000000000000000000                              000000000000000
201902150010202000000000000000343806                8000000000030546689979YPF LUBRICANTES               000000090901121000000000000000000000000000000000000000000000000000000000000000000000000000000000000000000000000000000000PES00010000001000000000000000000000000000000000000000000                              000000000000000
201902150010202000000000000000343805                8000000000030546689979YPF LUBRICANTES               000000049621124000000000000000000000000000000000000000000000000000000000000000000000000000000000000000000000000000000000PES00010000001000000000000000000000000000000000000000000                              000000000000000
201902150010202200000000000000021090                8000000000030546689979YPF FERTILIZANTES             000000115518985000000000000000000000000000000000000002338448000000000000000000000000000000000000000000000000000000000000PES00010000001000000000000000000000000000000000000000000                              000000000000000
201902150010004400000000000000015862                8000000000030707211942ROLCAR SA                     000000001069414000000000000000000000000000000000000000000000000000000000000000000000000000000000000000000000000000000000PES00010000001000000000000000000000000000000000000000000                              000000000000000
201902160010002200000000000000024166                8000000000030685694286PETROARSA S.A                 000000000016000000000000000000000000000000000000000000000000000000000000000000000000000000000000000000000000000000000000PES00010000001000000000000000000000000000000000000000000                              000000000000000
201902160010201900000000000000294028                8000000000030546689979YPF DERIVADOS                 000000071935231000000000000000000000000000000000000000000000000000000000000000000000000000000000000000000000000000000000PES00010000001000000000000000000000000000000000000000000                              000000000000000
201902160010201700000000000001919217                8000000000030546689979YPF SA EN RUTA                000000008007539000000000000000000000000000000000000000167939000000000000000000000000000000000000000000000000000000000000PES00010000001000000000000000000000000000000000000000000                              000000000000000
201902170010636400000000000001532476                8000000000030678186445TELECOM PERSONAL SA           000000002020562000000000007345000000000000000000000000020069000000000000000000000000047946000000000000000000000000000000PES00010000002000000000000000000000000000000000000000000                              000000000000000
201902170010820400000000000019560990                8000000000030639453738TELECOM ARGENTINA SA          000000000127366000000000000000000000000000000000000000000000000000000000000000000000000000000000000000000000000000000000PES00010000001000000000000000000000000000000000000000000                              000000000000000
201902170010820400000000000019588278                8000000000030639453738TELECOM ARGENTINA SA          000000000292008000000000000000000000000000000000000000000000000000000000000000000000000000000000000000000000000000000000PES00010000001000000000000000000000000000000000000000000                              000000000000000
201902180010003100000000000000022185                8000000000030546689979SYMONDS S.A.                  000000000539900000000000000000000000000000000000000000000000000000000000000000000000000000000000000000000000000000000000PES00010000001000000000000000000000000000000000000000000                              000000000000000
201902180030285800000000000008202399                8000000000030500049460SANCOR SEGUROS                -00000002154534000000000000000000000000000000000000000000000000000000000000000000000000000000000000000000000000000000000PES00010000001000000000000000000000000000000000000000000                              000000000000000
201902180030285900000000000008202399                8000000000030500049460SANCOR SEGUROS                -00000000208100000000000000000000000000000000000000000000000000000000000000-00000000004652000000000000000000000000000000PES00010000001000000000000000000000000000000000000000000                              000000000000000
201902180030032200000000000000607687                8000000000030500049460SANCOR SEGUROS                -00000000044111000000000000000000000000000000000000000000000000000000000000000000000000000000000000000000000000000000000PES00010000001000000000000000000000000000000000000000000                              000000000000000
201902180010001500000000000000015980                8000000000030702360060NOANET S.A.                   000000000978000000000000000000000000000000000000000000010000000000000000000000000000000000000000000000000000000000000000PES00010000001000000000000000000000000000000000000000000                              000000000000000
201902180010202000000000000000343853                8000000000030546689979YPF LUBRICANTES               000000132908269000000000000000000000000000000000000000000000000000000000000000000000000000000000000000000000000000000000PES00010000001000000000000000000000000000000000000000000                              000000000000000
201902180010201700000000000001924716                8000000000030546689979YPF SA COMBUSTIBLES           000000125592696000000000000000000000000000000000000002628757000000000000000000000000000000000000000000000000000000000000PES00010000001000000000000000000000000000000000000000000                              000000000000000
201902180010201700000000000001924722                8000000000030546689979YPF SA COMBUSTIBLES           000000125606307000000000000000000000000000000000000002629042000000000000000000000000000000000000000000000000000000000000PES00010000001000000000000000000000000000000000000000000                              000000000000000
201902180030202300000000000000114926                8000000000030546689979YPF SA COMBUSTIBLES           -00000018293761000000000000000000000000000000000000000000000000000000000000-00000000442591000000000000000000000000000000PES00010000001000000000000000000000000000000000000000000                              000000000000000
201902180010000400000000000000010483                8000000000030707627405EMILIO TERZI S.A.             000000099716545000000000000000000000000000000000000000000000000000000000000000000000000000000000000000000000000000000000PES00010000001000000000000000000000000000000000000000000                              000000000000000
201902180010000200000000000000199030                8000000000030708016299NACION LAESING S.A.           000000000050000000000000050000000000000000000000000000000000000000000000000000000000000000000000000000000000000000000000PES00010000000000000000000000000000000000000000000000000                              000000000000000
201902180010009600000000000000000873                8000000000030649695365ROSSO HNOS S.A.               000000009237423000000000000000000000000000000000000000094452000000000000000000000000000000000000000000000000000000000000PES00010000001000000000000000000000000000000000000000000                              000000000000000
201902190010201900000000000000294272                8000000000030546689979YPF DERIVADOS                 000000072404246000000000000000000000000000000000000000000000000000000000000000000000000000000000000000000000000000000000PES00010000001000000000000000000000000000000000000000000                              000000000000000
201902190010202000000000000000343994                8000000000030546689979YPF LUBRICANTES               000000031395931000000000000000000000000000000000000000000000000000000000000000000000000000000000000000000000000000000000PES00010000001000000000000000000000000000000000000000000                              000000000000000
201902200010000400000000000000023060                8000000000020146618228ZEITUNE LEON MARCELO          000000000130000000000000000000000000000000000000000000000000000000000000000000000000000000000000000000000000000000000000PES00010000001000000000000000000000000000000000000000000                              000000000000000
201902200010005600000000000000015189                8000000000030531878171BOCANERA S.A.                 000000000173888000000000000000000000000000000000000000004888000000000000000000000000000000000000000000000000000000000000PES00010000001000000000000000000000000000000000000000000                              000000000000000
201902200010000400000000000000017395                8000000000030562909342IMPEL SA                      000000000362788000000000000000000000000000000000000000007344000000000000000000000000000000000000000000000000000000000000PES00010000001000000000000000000000000000000000000000000                              000000000000000
201902200110000800000000000000000492                8000000000030546203715ASOCIACION DE TRANSPORTE DE CA000000000676000000000000676000000000000000000000000000000000000000000000000000000000000000000000000000000000000000000000PES00010000000000000000000000000000000000000000000000000                              000000000000000
201902200010202000000000000000344089                8000000000030546689979YPF LUBRICANTES               000000031433395000000000000000000000000000000000000000000000000000000000000000000000000000000000000000000000000000000000PES00010000001000000000000000000000000000000000000000000                              000000000000000
201902200010202000000000000000344088                8000000000030546689979YPF LUBRICANTES               000000040608821000000000000000000000000000000000000000000000000000000000000000000000000000000000000000000000000000000000PES00010000001000000000000000000000000000000000000000000                              000000000000000
201902200010000300000000000000011078                8000000000030709893900NOA MATAFUEGOS SRL            000000000226875000000000000000000000000000000000000000000000000000000000000000000000000000000000000000000000000000000000PES00010000001000000000000000000000000000000000000000000                              000000000000000
201902200010001200000000000000030378                8000000000030679128651GASMARKET SA                  000000001676294000000000000000000000000000000000000000017140000000000000000000000000000000000000000000000000000000000000PES00010000001000000000000000000000000000000000000000000                              000000000000000
201902210010000200000000000000003464                8000000000020080826460MIGUEL ANGEL ROTONDO          000000000080000000000000000000000000000000000000000000000000000000000000000000000000000000000000000000000000000000000000PES00010000001000000000000000000000000000000000000000000                              000000000000000
201902210010000300000000000000024111                8000000000030712272542OLGA S.Z. DE SIMONETTO        000000001250000000000000000000000000000000000000000000000000000000000000000000000000000000000000000000000000000000000000PES00010000001000000000000000000000000000000000000000000                              000000000000000
201902210010000400000000000000010514                8000000000030707627405EMILIO TERZI S.A.             000000101940213000000000000000000000000000000000000000000000000000000000000000000000000000000000000000000000000000000000PES00010000001000000000000000000000000000000000000000000                              000000000000000
201902210020001200000000000000000001                8000000000030707773916DANIEL INGENIERIA SRL         000000012992125000000000000000000000000000000000000000000000000000000000000000000000000000000000000000000000000000000000PES00010000001000000000000000000000000000000000000000000                              000000000000000
201902210020001200000000000000000002                8000000000030707773916DANIEL INGENIERIA SRL         000000014074802000000000000000000000000000000000000000000000000000000000000000000000000000000000000000000000000000000000PES00010000001000000000000000000000000000000000000000000                              000000000000000
201902210010001200000000000000000275                8000000000030707773916DANIEL INGENIERIA SRL         000000025000000000000000000000000000000000000000000000000000000000000000000000000000000000000000000000000000000000000000PES00010000001000000000000000000000000000000000000000000                              000000000000000
201902210010001200000000000000000276                8000000000030707773916DANIEL INGENIERIA SRL         000000025000000000000000000000000000000000000000000000000000000000000000000000000000000000000000000000000000000000000000PES00010000001000000000000000000000000000000000000000000                              000000000000000
201902220010000100000000000000003848                8000000000020248027097GIMENEZ LASCANO JOSE          000000000329000000000000000000000000000000000000000000000000000000000000000000000000000000000000000000000000000000000000PES00010000001000000000000000000000000000000000000000000                              000000000000000
201902220010000100000000000000002414                8000000000020109644529RICARDO A. SORIA              000000001185800000000000000000000000000000000000000000000000000000000000000000000000000000000000000000000000000000000000PES00010000001000000000000000000000000000000000000000000                              000000000000000
201902220010005500000000000000051712                8000000000030568649598EXPRESO BISONTE SRL           000000000213269000000000000000000000000000000000000000000000000000000000000000000000000000000000000000000000000000000000PES00010000001000000000000000000000000000000000000000000                              000000000000000
201902220010000800000000000000005894                8000000000033714576629HORMECO S.R.L.                000000204490000000000000000000000000000000000000000000000000000000000000000000000000000000000000000000000000000000000000PES00010000001000000000000000000000000000000000000000000                              000000000000000
201902230010002800000000000000010657                8000000000030528696208MIGUEL MUKDISE HNOS SRL       000000000170006000000000000000000000000000000000000000000000000000000000000000000000000000000000000000000000000000000000PES00010000001000000000000000000000000000000000000000000                              000000000000000
201902250010001600000000000000000031                8000000000020251682853RUIZ JORGE ALEJANDRO          000000000150000000000000000000000000000000000000000000000000000000000000000000000000000000000000000000000000000000000000PES00010000001000000000000000000000000000000000000000000                              000000000000000
201902250010002300000000000000030732                8000000000030675349572PEVISA SRL                    000000000150000000000000000000000000000000000000000000000000000000000000000000000000000000000000000000000000000000000000PES00010000001000000000000000000000000000000000000000000                              000000000000000
201902250010450500000000000000000348                8000000000030590360763CENCOSUD S.A.                 000000000047068000000000000000000000000000000000000000000000000000000000000000000000000000000000000000000000000000000000PES00010000001000000000000000000000000000000000000000000                              000000000000000
201902250010004600000000000000135812                8000000000030707649913ARRIETA SERVICIOS SRL         000000000145039000000000000000000000000000000000000000000000000000000000000000000000000000000000000000000000000000000000PES00010000001000000000000000000000000000000000000000000                              000000000000000
201902250010201700000000000001928395                8000000000030546689979YPF SA COMBUSTIBLES           000000122190576000000000000000000000000000000000000002557548000000000000000000000000000000000000000000000000000000000000PES00010000001000000000000000000000000000000000000000000                              000000000000000
201902250010201700000000000001928398                8000000000030546689979YPF SA COMBUSTIBLES           000000141202284000000000000000000000000000000000000002944982000000000000000000000000000000000000000000000000000000000000PES00010000001000000000000000000000000000000000000000000                              000000000000000
201902260110000200000000000000000058                8000000000020305978257BARBAGLIA NAVARRO DANTE F.    000000001700000000000001700000000000000000000000000000000000000000000000000000000000000000000000000000000000000000000000PES00010000000000000000000000000000000000000000000000000                              000000000000000
201902260010000200000000000000004461                8000000000030714651206REZK & ROSSO SRL              000000002717683000000000000000000000000000000000000000000000000000000000000000000000000000000000000000000000000000000000PES00010000001000000000000000000000000000000000000000000                              000000000000000
201902260010000500000000000000002626                8000000000030714347310CORPUNITED S.R.L.             000000002236040000000000000000000000000000000000000000000000000000000000000000000000000000000000000000000000000000000000PES00010000001000000000000000000000000000000000000000000                              000000000000000
201902260010202000000000000000344516                8000000000030546689979YPF LUBRICANTES               000000031772132000000000000000000000000000000000000000000000000000000000000000000000000000000000000000000000000000000000PES00010000001000000000000000000000000000000000000000000                              000000000000000
201902260010202000000000000000344515                8000000000030546689979YPF LUBRICANTES               000000023960592000000000000000000000000000000000000000000000000000000000000000000000000000000000000000000000000000000000PES00010000001000000000000000000000000000000000000000000                              000000000000000
201902260010201700000000000001929278                8000000000030546689979YPF SA COMBUSTIBLES           000000128739022000000000000000000000000000000000000002692450000000000000000000000000000000000000000000000000000000000000PES00010000001000000000000000000000000000000000000000000                              000000000000000
201902270010000400000000000000035883                8000000000030546689979CAMINO AL PERU                000000000050000000000000000000000000000000000000000000000000000000000000000000000000000000000000000000000000000000000000PES00010000001000000000000000000000000000000000000000000                              000000000000000
201902270010001300000000000000021047                8000000000020080996412JOSE DIEGO ZELAYA             000000000080007-00000000000004000000000000000000000000000000000000000000000000000000000000000000000000000000000000000000PES00010000002000000000000000000000000000000000000000000                              000000000000000
201902270010001300000000000000021058                8000000000020080996412JOSE DIEGO ZELAYA             000000000081007000000000000000000000000000000000000000000000000000000000000000000000000000000000000000000000000000000000PES00010000001000000000000000000000000000000000000000000                              000000000000000
201902270010000100000000000000021521                8000000000023275943479MARIO GABRIEL CONTRERAS       000000000045000000000000000000000000000000000000000000000000000000000000000000000000000000000000000000000000000000000000PES00010000001000000000000000000000000000000000000000000                              000000000000000
201902270010000600000000000000018369                8000000000030675334737CONSTRUCTORA GAMA S.R.L       000000000050001000000000000000000000000000000000000000000000000000000000000000000000000000000000000000000000000000000000PES00010000001000000000000000000000000000000000000000000                              000000000000000
201902270010000600000000000000022537                8000000000030675334737CONSTRUCTORA GAMA S.R.L       000000000160000000000000000000000000000000000000000000000000000000000000000000000000000000000000000000000000000000000000PES00010000001000000000000000000000000000000000000000000                              000000000000000
201902270010000600000000000000023023                8000000000030675334737CONSTRUCTORA GAMA S.R.L       000000000050000000000000000000000000000000000000000000000000000000000000000000000000000000000000000000000000000000000000PES00010000001000000000000000000000000000000000000000000                              000000000000000
201902270010000600000000000000023078                8000000000030675334737CONSTRUCTORA GAMA S.R.L       000000000149998000000000000000000000000000000000000000000000000000000000000000000000000000000000000000000000000000000000PES00010000001000000000000000000000000000000000000000000                              000000000000000
201902270010000400000000000000001563                8000000000033715784659VOLTAJE SRL                   000000000029997000000000000000000000000000000000000000000000000000000000000000000000000000000000000000000000000000000000PES00010000001000000000000000000000000000000000000000000                              000000000000000
201902270010002200000000000000001282                8000000000030691734915LINE UP S.A                   000000000609089000000000000000000000000000000000000000000000000000000000000000000000000000000000000000000000000000000000PES00010000001000000000000000000000000000000000000000000                              000000000000000
201902270010451100000000000000000321                8000000000030590360763CENCOSUD S.A.                 000000000315160000000000000000000000000000000000000000000000000000000000000000000000007625000000000000000000000000000000PES00010000001000000000000000000000000000000000000000000                              000000000000000
201902270010000800000000000000000411                8000000000030607353197YUBRIN SA                     000000000065703000000000000000000000000000000000000000000000000000000000000000000000000000000000000000000000000000000000PES00010000001000000000000000000000000000000000000000000                              000000000000000
201902270010000100000000000000002452                8000000000020117622569SERGIO SCOPEL                 000000000057000000000000000000000000000000000000000000000000000000000000000000000000000000000000000000000000000000000000PES00010000001000000000000000000000000000000000000000000                              000000000000000
201902270010000200000000000000046730                8000000000020117622569SERGIO SCOPEL                 000000000110000000000000000000000000000000000000000000000000000000000000000000000000000000000000000000000000000000000000PES00010000001000000000000000000000000000000000000000000                              000000000000000
201902270010000300000000000000023410                8000000000020117622569SERGIO SCOPEL                 000000000530000000000000000000000000000000000000000000000000000000000000000000000000000000000000000000000000000000000000PES00010000001000000000000000000000000000000000000000000                              000000000000000
201902270010002000000000000000023974                8000000000030657611936SILVA SRL                     000000000173502000000000000000000000000000000000000000001774000000000000000000000000000000000000000000000000000000000000PES00010000001000000000000000000000000000000000000000000                              000000000000000
201902270010002000000000000000023991                8000000000030657611936SILVA SRL                     000000000046472000000000000000000000000000000000000000000475000000000000000000000000000000000000000000000000000000000000PES00010000001000000000000000000000000000000000000000000                              000000000000000
201902270010002000000000000000024100                8000000000030657611936SILVA SRL                     000000000010694000000000000000000000000000000000000000000109000000000000000000000000000000000000000000000000000000000000PES00010000001000000000000000000000000000000000000000000                              000000000000000
201902270010002000000000000000024114                8000000000030657611936SILVA SRL                     000000000569977000000000000000000000000000000000000000005828000000000000000000000000000000000000000000000000000000000000PES00010000001000000000000000000000000000000000000000000                              000000000000000
201902270010000100000000000000003856                8000000000020248027097GIMENEZ LASCANO JOSE          000000000043700000000000000000000000000000000000000000000000000000000000000000000000000000000000000000000000000000000000PES00010000001000000000000000000000000000000000000000000                              000000000000000
201902270010000100000000000000003855                8000000000020248027097GIMENEZ LASCANO JOSE          000000000811300000000000000000000000000000000000000000000000000000000000000000000000000000000000000000000000000000000000PES00010000001000000000000000000000000000000000000000000                              000000000000000
201902270010005600000000000000015299                8000000000030531878171BOCANERA S.A.                 000000000162570000000000000000000000000000000000000000004570000000000000000000000000000000000000000000000000000000000000PES00010000001000000000000000000000000000000000000000000                              000000000000000
201902270010000500000000000000003213                8000000000030712106154ABEA S.R.L.                   000000004844000000000000000000000000000000000000000000000000000000000000000000000000000000000000000000000000000000000000PES00010000001000000000000000000000000000000000000000000                              000000000000000
201902270010201900000000000000295280                8000000000030546689979YPF DERIVADOS                 000000071583469000000000000000000000000000000000000000000000000000000000000000000000000000000000000000000000000000000000PES00010000001000000000000000000000000000000000000000000                              000000000000000
201902270010201700000000000001930258                8000000000030546689979YPF SA COMBUSTIBLES           000000137304349000000000000000000000000000000000000002863978000000000000000000000000000000000000000000000000000000000000PES00010000001000000000000000000000000000000000000000000                              000000000000000
201902270010009600000000000000000888                8000000000030649695365ROSSO HNOS S.A.               000000007312984000000000000000000000000000000000000000074775000000000000000000000000000000000000000000000000000000000000PES00010000001000000000000000000000000000000000000000000                              000000000000000
201902270010006500000000000000106728                8000000000034546687068INSTITUTO NACIONAL DE TECNOLOG000000002405300000000002405300000000000000000000000000000000000000000000000000000000000000000000000000000000000000000000PES00010000000000000000000000000000000000000000000000000                              000000000000000
201902270010000200000000000000001147                8000000000027170411973MARGARITA M. SABEH DE PIJUAN  000000003460600000000000000000000000000000000000000000000000000000000000000000000000000000000000000000000000000000000000PES00010000001000000000000000000000000000000000000000000                              000000000000000
201902280010000200000000000000002019                8000000000030500008454BANCO SANTANDER RIO           000000011475180000000000000000000000000000000000000005997879000000000000000000000000000000000000000000000000000000000000PES00010000001000000000000000000000000000000000000000000                              000000000000000
201902280010000200000000000000002019                8000000000030500001735BANCO GALICIA                 000000009201014000000000000000000000000000000000000003091535000000000000000000000000000000000000000000000000000000000000PES00010000001000000000000000000000000000000000000000000                              000000000000000
201902280010000200000000000000002019                8000000000030500010084BANCO MACRO                   000000000164330000000000000000000000000000000000000000000000000000000000000000000000000000000000000000000000000000000000PES00010000001000000000000000000000000000000000000000000                              000000000000000
201902280010000200000000000000002019                8000000000030500003193BANCO FRANCES                 000000000156417000000000000000000000000000000000000000000000000000000000000000000000000000000000000000000000000000000000PES00010000001000000000000000000000000000000000000000000                              000000000000000
201902280010000400000000000000000209                8000000000020235191777PEDRO JAVIER SABEH            000000000302500000000000000000000000000000000000000000000000000000000000000000000000000000000000000000000000000000000000PES00010000001000000000000000000000000000000000000000000                              000000000000000
201902280010000400000000000000000208                8000000000020235191777PEDRO JAVIER SABEH            000000001996500000000000000000000000000000000000000000000000000000000000000000000000000000000000000000000000000000000000PES00010000001000000000000000000000000000000000000000000                              000000000000000
201902280010000100000000000088108258                8000000000030500001735VISA GALICIA                  000000000442184000000000000000000000000000000000000000000000000000000000000000000000000000000000000000000000000000000000PES00010000001000000000000000000000000000000000000000000                              000000000000000
201902280010000600000000000006511878                8000000000030620177497POSNET S.R.L.                 000000000110821000000000000000000000000000000000000000001134000000000000000000000000000000000000000000000000000000000000PES00010000001000000000000000000000000000000000000000000                              000000000000000
201902280030001200000000000000128364                8000000000030542851836A B C S.A.                    -00000000565530000000000000000000000000000000000000000000000000000000000000-00000000013682000000000000000000000000000000PES00010000001000000000000000000000000000000000000000000                              000000000000000
201902280010000800000000000000013578                8000000000030707377239STAMP S.R.L.                  000000000093330000000000000006000000000000000000000000000000000000000000000000000000000000000000000000000000000000000000PES00010000002000000000000000000000000000000000000000000                              000000000000000
201902280010001200000000000000030497                8000000000030679128651GASMARKET SA                  000000001113867000000000000000000000000000000000000000011389000000000000000000000000000000000000000000000000000000000000PES00010000001000000000000000000000000000000000000000000                              000000000000000
201902280110000200000000000000000024                8000000000023242007549SOSA MAXIMO DANIEL            000000001700000000000001700000000000000000000000000000000000000000000000000000000000000000000000000000000000000000000000PES00010000000000000000000000000000000000000000000000000                              000000000000000
201902280110000200000000000000000037                8000000000027240590889VERONICA B. TAN JUN           000000003400000000000003400000000000000000000000000000000000000000000000000000000000000000000000000000000000000000000000PES00010000000000000000000000000000000000000000000000000                              000000000000000
201902060010502500000000000000001248                8000000000030515488479YPF GAS SA                    000000002438741000000000000000000000000000000000000000066946000000000000000000000000057382000000000000000000000000000000PES00010000001000000000000000000000000000000000000000000                              000000000000000