201902010010001100000000000000008290000000000000000082908000000000030708724560LA ASTURIANA S.R.L            000000018899998000000000000000000000000000000000000000000000000000000000000000000000000000000000000000000000000002752500PES00010000001000000000000000020190201
201902010010001400000000000000010104000000000000000101048000000000030707728805PROYECTOS METALURGICOS S.A.   000000001563353000000000000000000000000000000000000000000000000000000000000000000000000000000000000000000000000000000000PES00010000001000000000000000020190201
201902010010001400000000000000010105000000000000000101058000000000030707728805PROYECTOS METALURGICOS S.A.   000000004762288000000000000000000000000000000000000000000000000000000000000000000000000000000000000000000000000000000000PES00010000001000000000000000020190201
201902010010001400000000000000010106000000000000000101068000000000030708417137BELLANTI BRUNO  Y BELLANTI CES000000000739458000000000000000000000000000000000000000000000000000000000000000000000000000000000000000000000000000000000PES00010000001000000000000000020190201
201902010010001400000000000000010107000000000000000101078000000000027240071482VILLAVICENCIO MARIA DE LOS ANG000000003445122000000000000000000000000000000000000000000000000000000000000000000000000000000000000000000000000000000000PES00010000001000000000000000020190201
201902010010001400000000000000010108000000000000000101088000000000027284964425RACEDO ROSANA ESTER           000000005858776000000000000000000000000000000000000000000000000000000000000000000000000000000000000000000000000000000000PES00010000001000000000000000020190201
201902010010001400000000000000010109000000000000000101098000000000030541189285MEDICI Y CIA SRL              000000000228392000000000000000000000000000000000000000000000000000000000000000000000000000000000000000000000000000000000PES00010000001000000000000000020190201
201902010010001400000000000000010110000000000000000101108000000000027174589556PEJKO MARIA GABRIELA          000000001103838000000000000000000000000000000000000000000000000000000000000000000000000000000000000000000000000000000000PES00010000001000000000000000020190201
201902010010001400000000000000010111000000000000000101118000000000020129786532BELMONTE FRANCISCO            000000000490118000000000000000000000000000000000000000000000000000000000000000000000000000000000000000000000000000000000PES00010000001000000000000000020190201
201902010010001400000000000000010112000000000000000101128000000000030712272542OLGA ZOTTOLA DE SIMONETO E HIJ000000007205538000000000000000000000000000000000000000000000000000000000000000000000000000000000000000000000000000000000PES00010000001000000000000000020190201
201902010010001400000000000000010113000000000000000101138000000000030712272542OLGA ZOTTOLA DE SIMONETO E HIJ000000000390364000000000000000000000000000000000000000000000000000000000000000000000000000000000000000000000000000000000PES00010000001000000000000000020190201
201902010010001400000000000000010114000000000000000101148000000000030502755206SA RODRIGUEZ HNOS CIFA        000000000456785000000000000000000000000000000000000000000000000000000000000000000000000000000000000000000000000000000000PES00010000001000000000000000020190201
201902010010005200000000000000000070000000000000000000708000000000030639227096INTRA S.R.L.                  000000000738864000000000000000000000000000000000000000000000000000000000000000000000000000000000000000000000000000000000PES00010000001000000000000000020190201
201902010060000800000000000000000001000000000000000000018000000000030675271913MUNICIPALIDAD DE AGUILARES    000000211200000000000000000000000000000000000000000000000000000000000000000000000000000000000000000000000000000002752500PES00010000001000000000000000020190201
201902010060001400000000000000003028000000000000000030288000000000020384904972ROMANO LEAL JAVIER ALFREDO    000000000655329000000000000000000000000000000000000000000000000000000000000000000000000000000000000000000000000000000000PES00010000001000000000000000020190201
201902010060001400000000000000003029000000000000000030298000000000020174643041VILLALOBO CESAR ALBERTO       000000000963121000000000000000000000000000000000000000000000000000000000000000000000000000000000000000000000000000000000PES00010000001000000000000000020190201
201902010060001400000000000000003030000000000000000030308000000000030685678426DIRECCION PROVINCIAL DEL AGUA 000000001549981000000000000000000000000000000000000000000000000000000000000000000000000000000000000000000000000000000000PES00010000001000000000000000020190201
201902010060001400000000000000003031000000000000000030318000000000030685678426DIRECCION PROVINCIAL DEL AGUA 000000001857720000000000000000000000000000000000000000000000000000000000000000000000000000000000000000000000000000000000PES00010000001000000000000000020190201
201902010060001400000000000000003032000000000000000030328000000000020140840131CABELLO LUIS FERNANDO         000000000172908000000000000000000000000000000000000000000000000000000000000000000000000000000000000000000000000000000000PES00010000001000000000000000020190201
201902010030001400000000000000001467000000000000000014678000000000030710776780PETROLERA ANVA SRL            -00000001861118000000000000000000000000000000000000000000000000000000000000000000000000000000000000000000000000000000000PES00010000001000000000000000020190201
201902010030001400000000000000001468000000000000000014688000000000030707728805PROYECTOS METALURGICOS S.A.   -00000001563353000000000000000000000000000000000000000000000000000000000000000000000000000000000000000000000000000000000PES00010000001000000000000000020190201
201902020060001400000000000000003033000000000000000030338000000000027305981120CANGEMI IVANNA MARCELA        000000001128366000000000000000000000000000000000000000000000000000000000000000000000000000000000000000000000000000000000PES00010000001000000000000000020190202
201902020030001400000000000000001469000000000000000014698000000000030541189285MEDICI Y CIA SRL              -00000000233684000000000000000000000000000000000000000000000000000000000000000000000000000000000000000000000000000000000PES00010000001000000000000000020190202
201902040010001100000000000000008291000000000000000082918000000000030710901038ESTANCIA EL BRETE SRL         000000037000000000000000000000000000000000000000000000000000000000000000000000000000000000000000000000000000000005505000PES00010000001000000000000000020190204
201902040010001100000000000000008292000000000000000082928000000000027277225315LOPEZ PATRICIA LILIANA        000000009615000000000000000000000000000000000000000000000000000000000000000000000000000000000000000000000000000001376250PES00010000001000000000000000020190204
201902040010001100000000000000008293000000000000000082938000000000030605335620FACTOR SA                     000000003780000000000000000000000000000000000000000000000000000000000000000000000000000000000000000000000000000000550500PES00010000001000000000000000020190204
201902040010001100000000000000008294000000000000000082948000000000023931628259LASTRINA CARMELO              000000012150001000000000000000000000000000000000000000000000000000000000000000000000000000000000000000000000000001651500PES00010000001000000000000000020190204
201902040010001100000000000000008295000000000000000082958000000000030521384898GUAYAL SACIIFYA               000000016400000000000000000000000000000000000000000000000000000000000000000000000000000000000000000000000000000002202000PES00010000001000000000000000020190204
201902040010001400000000000000010115000000000000000101158000000000020296739554MUHIC GIANNI MIRKO            000000002477557000000000000000000000000000000000000000000000000000000000000000000000000000000000000000000000000000000000PES00010000001000000000000000020190204
201902040010001400000000000000010116000000000000000101168000000000020296739554MUHIC GIANNI MIRKO            000000001777685000000000000000000000000000000000000000000000000000000000000000000000000000000000000000000000000000000000PES00010000001000000000000000020190204
201902040010001400000000000000010117000000000000000101178000000000030710776780PETROLERA ANVA SRL            000000002237261000000000000000000000000000000000000000000000000000000000000000000000000000000000000000000000000000000000PES00010000001000000000000000020190204
201902040010001400000000000000010118000000000000000101188000000000020290448515VILLALON MARTIN ANTONIO       000000002851965000000000000000000000000000000000000000000000000000000000000000000000000000000000000000000000000000000000PES00010000001000000000000000020190204
201902040010001400000000000000010119000000000000000101198000000000023119096669VILLAFAÑE LUIS ANTONIO       L000000001874851000000000000000000000000000000000000000000000000000000000000000000000000000000000000000000000000000000000PES00010000001000000000000000020190204
201902040010001400000000000000010120000000000000000101208000000000020207603725PONCE ORLANDO                 000000000483632000000000000000000000000000000000000000000000000000000000000000000000000000000000000000000000000000000000PES00010000001000000000000000020190204
201902040010001400000000000000010121000000000000000101218000000000027165409987BULACIO NORMA DEL CARMEN      000000001549981000000000000000000000000000000000000000000000000000000000000000000000000000000000000000000000000000000000PES00010000001000000000000000020190204
201902040010001400000000000000010122000000000000000101228000000000030712272542OLGA ZOTTOLA DE SIMONETO E HIJ000000002717111000000000000000000000000000000000000000000000000000000000000000000000000000000000000000000000000000000000PES00010000001000000000000000020190204
201902040010001400000000000000010123000000000000000101238000000000027336287656SAFATLE ROSELA ALEJANDRA      000000001078347000000000000000000000000000000000000000000000000000000000000000000000000000000000000000000000000000000000PES00010000001000000000000000020190204
201902040010001400000000000000010124000000000000000101248000000000020320954984NUÑEZ ROBERTO CARLOS E        000000004820391000000000000000000000000000000000000000000000000000000000000000000000000000000000000000000000000000000000PES00010000001000000000000000020190204
201902040010001400000000000000010125000000000000000101258000000000020320954984NUÑEZ ROBERTO CARLOS E        000000001857720000000000000000000000000000000000000000000000000000000000000000000000000000000000000000000000000000000000PES00010000001000000000000000020190204
201902040060001400000000000000003034000000000000000030348000000000027305981120CANGEMI IVANNA MARCELA        000000000554084000000000000000000000000000000000000000000000000000000000000000000000000000000000000000000000000000000000PES00010000001000000000000000020190204
201902040060001400000000000000003035000000000000000030358000000000023070919249HERRERA JORGE ARMANDO         000000001687367000000000000000000000000000000000000000000000000000000000000000000000000000000000000000000000000000000000PES00010000001000000000000000020190204
201902040060001400000000000000003036000000000000000030368000000000027225825683SANCHEZ FABIANA ITATI DEL VALL000000015360000000000000000000000000000000000000000000000000000000000000000000000000000000000000000000000000000000000000PES00010000001000000000000000020190204
201902050010001100000000000000008296000000000000000082968000000000030680020376TESA TRANSPORTE EJECUTIVO SA  000000034750000000000000000000000000000000000000000000000000000000000000000000000000000000000000000000000000000005505000PES00010000001000000000000000020190205
201902050010001100000000000000008297000000000000000082978000000000030709574910PERLA DEL SUR SRL             000000034750000000000000000000000000000000000000000000000000000000000000000000000000000000000000000000000000000005505000PES00010000001000000000000000020190205
201902050010001100000000000000008298000000000000000082988000000000030709046086EL CARRIL SRL                 000000013900000000000000000000000000000000000000000000000000000000000000000000000000000000000000000000000000000002202000PES00010000001000000000000000020190205
201902050010001100000000000000008299000000000000000082998000000000023110300999MEMBRIBES PABLO               000000011339999000000000000000000000000000000000000000000000000000000000000000000000000000000000000000000000000001651500PES00010000001000000000000000020190205
201902050010001100000000000000008300000000000000000083008000000000030712992006TIERRA DE BERRIES SA          000000009449999000000000000000000000000000000000000000000000000000000000000000000000000000000000000000000000000001376250PES00010000001000000000000000020190205
201902050010001100000000000000008301000000000000000083018000000000033714595909TIERRA DE IBATIN SA           000000005670000000000000000000000000000000000000000000000000000000000000000000000000000000000000000000000000000000825750PES00010000001000000000000000020190205
201902050010001100000000000000008302000000000000000083028000000000030510984109SUCESORES DE SALOMON JALIL SRL000000011100000000000000000000000000000000000000000000000000000000000000000000000000000000000000000000000000000001651500PES00010000001000000000000000020190205
201902050010001300000000000000000086000000000000000000868000000000030515488479YPF GAS SA                    000000033812195000000000000000000000000000000000000000000000000000000000000000000000000000000000000000000000000000000000PES00010000001000000000000000020190205
201902050010001400000000000000010126000000000000000101268000000000023311284339CARRASCO RAUL RICARDO         000000001128366000000000000000000000000000000000000000000000000000000000000000000000000000000000000000000000000000000000PES00010000001000000000000000020190205
201902050010001400000000000000010127000000000000000101278000000000033631520729LEGAR SRL                     000000000234627000000000000000000000000000000000000000000000000000000000000000000000000000000000000000000000000000000000PES00010000001000000000000000020190205
201902050010001400000000000000010128000000000000000101288000000000030505517632VICENTE TRAPANI SA            000000000189373000000000000000000000000000000000000000000000000000000000000000000000000000000000000000000000000000000000PES00010000001000000000000000020190205
201902050010001400000000000000010129000000000000000101298000000000030505517632VICENTE TRAPANI SA            000000000378747000000000000000000000000000000000000000000000000000000000000000000000000000000000000000000000000000000000PES00010000001000000000000000020190205
201902050010001400000000000000010130000000000000000101308000000000020165403836GIANNINI NESTOR DANIEL        000000002218483000000000000000000000000000000000000000000000000000000000000000000000000000000000000000000000000000000000PES00010000001000000000000000020190205
201902050010001400000000000000010131000000000000000101318000000000027284964425RACEDO ROSANA ESTER           000000001905012000000000000000000000000000000000000000000000000000000000000000000000000000000000000000000000000000000000PES00010000001000000000000000020190205
201902050010001400000000000000010132000000000000000101328000000000020263850980CHAYA SEBASTIAN ENRIQUE       000000000500939000000000000000000000000000000000000000000000000000000000000000000000000000000000000000000000000000000000PES00010000001000000000000000020190205
201902050010001400000000000000010133000000000000000101338000000000023083954329SUCESION DE RODA MARIO OSVALDO000000001728164000000000000000000000000000000000000000000000000000000000000000000000000000000000000000000000000000000000PES00010000001000000000000000020190205
201902050010001400000000000000010134000000000000000101348000000000033714576629HORMECO SRL                   000000003786875000000000000000000000000000000000000000000000000000000000000000000000000000000000000000000000000000000000PES00010000001000000000000000020190205
201902050010001400000000000000010135000000000000000101358000000000030685655329PRODUCCION SA                 000000008049756000000000000000000000000000000000000000000000000000000000000000000000000000000000000000000000000000000000PES00010000001000000000000000020190205
201902050010001400000000000000010136000000000000000101368000000000030714069418SACAROSA SRL                  000000000174315000000000000000000000000000000000000000000000000000000000000000000000000000000000000000000000000000000000PES00010000001000000000000000020190205
201902050010001400000000000000010137000000000000000101378000000000020202185658AHUMADA ROBERTO               000000000778284000000000000000000000000000000000000000000000000000000000000000000000000000000000000000000000000000000000PES00010000001000000000000000020190205
201902050010001600000000000000000568000000000000000005688000000000020290448515VILLALON MARTIN ANTONIO       000000000769510000000000000000000000000000000000000000000000000000000000000000000000000000000000000000000000000000000000PES00010000001000000000000000020190205
201902050060001400000000000000003037000000000000000030378000000000020249814491CORTI SERGIO DANIEL           000000001021069000000000000000000000000000000000000000000000000000000000000000000000000000000000000000000000000000000000PES00010000001000000000000000020190205
201902050060001400000000000000003038000000000000000030388000000000020273010522ROMANO DANIEL H               000000000681167000000000000000000000000000000000000000000000000000000000000000000000000000000000000000000000000000000000PES00010000001000000000000000020190205
201902050060001400000000000000003039000000000000000030398000000000020112675214LIZARRAGA EDMUNDO ANTONIO     000000004405026000000000000000000000000000000000000000000000000000000000000000000000000000000000000000000000000000000000PES00010000001000000000000000020190205
201902050060001400000000000000003040000000000000000030408000000000020273010522ROMANO DANIEL H               000000001444246000000000000000000000000000000000000000000000000000000000000000000000000000000000000000000000000000000000PES00010000001000000000000000020190205
201902050060001400000000000000003041000000000000000030418000000000023070919249HERRERA JORGE ARMANDO         000000000646893000000000000000000000000000000000000000000000000000000000000000000000000000000000000000000000000000000000PES00010000001000000000000000020190205
201902050060005100000000000000000006000000000000000000068000000000020276518322ACOSTA JUAN RICARDO           000000000390944000000000000000000000000000000000000000000000000000000000000000000000000000000000000000000000000000000000PES00010000001000000000000000020190205
201902050030001300000000000000000009000000000000000000098000000000030515488479YPF GAS SA                    -00000001690610000000000000000000000000000000000000000000000000000000000000000000000000000000000000000000000000000000000PES00010000001000000000000000020190205
201902060010001400000000000000010138000000000000000101388000000000020109823032DEL POZO FELICIANO CESAR      000000002913409000000000000000000000000000000000000000000000000000000000000000000000000000000000000000000000000000000000PES00010000001000000000000000020190206
201902060010001400000000000000010139000000000000000101398000000000033644256109MERCOTUC  SRL                 000000005390670000000000000000000000000000000000000000000000000000000000000000000000000000000000000000000000000000000000PES00010000001000000000000000020190206
201902060010001400000000000000010140000000000000000101408000000000027148465296ARTERO LILIANA DEL VALLE      000000000832893000000000000000000000000000000000000000000000000000000000000000000000000000000000000000000000000000000000PES00010000001000000000000000020190206
201902060010001400000000000000010141000000000000000101418000000000030710776780PETROLERA ANVA SRL            000000002237261000000000000000000000000000000000000000000000000000000000000000000000000000000000000000000000000000000000PES00010000001000000000000000020190206
201902060010001400000000000000010142000000000000000101428000000000020119103879MARTINEZ ZUCCARDI JORGE A     000000001352296000000000000000000000000000000000000000000000000000000000000000000000000000000000000000000000000000000000PES00010000001000000000000000020190206
201902060010001400000000000000010143000000000000000101438000000000030712272542OLGA ZOTTOLA DE SIMONETO E HIJ000000005530284000000000000000000000000000000000000000000000000000000000000000000000000000000000000000000000000000000000PES00010000001000000000000000020190206
201902060010001400000000000000010144000000000000000101448000000000030711733392CARROCERIAS OSCARCITO SRL     000000000348630000000000000000000000000000000000000000000000000000000000000000000000000000000000000000000000000000000000PES00010000001000000000000000020190206
201902060010005100000000000000000066000000000000000000668000000000027148465296ARTERO LILIANA DEL VALLE      000000001548041000000000000000000000000000000000000000000000000000000000000000000000000000000000000000000000000000000000PES00010000001000000000000000020190206
201902060010005200000000000000000071000000000000000000718000000000027148465296ARTERO LILIANA DEL VALLE      000000000353644000000000000000000000000000000000000000000000000000000000000000000000000000000000000000000000000000000000PES00010000001000000000000000020190206
201902060060001400000000000000003042000000000000000030428000000000020136274903VERA MARCELO OSVALDO          000000001534743000000000000000000000000000000000000000000000000000000000000000000000000000000000000000000000000000000000PES00010000001000000000000000020190206
201902070010001100000000000000008303000000000000000083038000000000030697183317MACROTECH CONSTRUCCIONES SRL  000000003780000000000000000000000000000000000000000000000000000000000000000000000000000000000000000000000000000000550500PES00010000001000000000000000020190207
201902070010001100000000000000008304000000000000000083048000000000030708554274PORA VE SRL                   000000007559999000000000000000000000000000000000000000000000000000000000000000000000000000000000000000000000000001101000PES00010000001000000000000000020190207
201902070010001100000000000000008305000000000000000083058000000000030715073532FRATELLI BO-GIO SRL           000000000810000000000000000000000000000000000000000000000000000000000000000000000000000000000000000000000000000000110100PES00010000001000000000000000020190207
201902070010001100000000000000008306000000000000000083068000000000020165261624MUDAD FRANCISCO ESTEBAN       000000026459998000000000000000000000000000000000000000000000000000000000000000000000000000000000000000000000000003853500PES00010000001000000000000000020190207
201902070010001100000000000000008307000000000000000083078000000000030620919922RF y J BUDEGUER SRL           000000006142500000000000000000000000000000000000000000000000000000000000000000000000000000000000000000000000000000825750PES00010000001000000000000000020190207
201902070010001100000000000000008308000000000000000083088000000000030652945100DE CARLO AMERICO JULIO Y OTROS000000014800000000000000000000000000000000000000000000000000000000000000000000000000000000000000000000000000000002202000PES00010000001000000000000000020190207
201902070010001100000000000000008309000000000000000083098000000000027285671863REINOSO MARIA DEL CARMEN      000000003915001000000000000000000000000000000000000000000000000000000000000000000000000000000000000000000000000000550500PES00010000001000000000000000020190207
201902070010001100000000000000008310000000000000000083108000000000030707211942ROLCAR SA                     000000004546000000000000000000000000000000000000000000000000000000000000000000000000000000000000000000000000000000550500PES00010000001000000000000000020190207
201902070010001100000000000000008311000000000000000083118000000000030510984109SUCESORES DE SALOMON JALIL SRL000000014600000000000000000000000000000000000000000000000000000000000000000000000000000000000000000000000000000002202000PES00010000001000000000000000020190207
201902070010001100000000000000008312000000000000000083128000000000030620919922RF y J BUDEGUER SRL           000000004095000000000000000000000000000000000000000000000000000000000000000000000000000000000000000000000000000000550500PES00010000001000000000000000020190207
201902070010001100000000000000008313000000000000000083138000000000030714454982EMANUEL SRL                   000000002025001000000000000000000000000000000000000000000000000000000000000000000000000000000000000000000000000000275250PES00010000001000000000000000020190207
201902070010001400000000000000010145000000000000000101458000000000030702402146PREMOL SRL                    000000000464073000000000000000000000000000000000000000000000000000000000000000000000000000000000000000000000000000000000PES00010000001000000000000000020190207
201902070010001400000000000000010146000000000000000101468000000000030707582053COMBUSTIBLE ECOLOGICO SA      000000000409936000000000000000000000000000000000000000000000000000000000000000000000000000000000000000000000000000000000PES00010000001000000000000000020190207
201902070010001400000000000000010147000000000000000101478000000000030715073532FRATELLI BO-GIO SRL           000000000205160000000000000000000000000000000000000000000000000000000000000000000000000000000000000000000000000000000000PES00010000001000000000000000020190207
201902070010001400000000000000010148000000000000000101488000000000030708885661BALVERDE SRL                  000000003074138000000000000000000000000000000000000000000000000000000000000000000000000000000000000000000000000000000000PES00010000001000000000000000020190207
201902070010001400000000000000010149000000000000000101498000000000020202185658AHUMADA ROBERTO               000000001874851000000000000000000000000000000000000000000000000000000000000000000000000000000000000000000000000000000000PES00010000001000000000000000020190207
201902070010001400000000000000010150000000000000000101508000000000020123182066CUEVA JUAN JOSE               000000002212925000000000000000000000000000000000000000000000000000000000000000000000000000000000000000000000000000000000PES00010000001000000000000000020190207
201902070010001400000000000000010151000000000000000101518000000000020938619507MEDICI PEDRO FERRUCCIO        000000000348630000000000000000000000000000000000000000000000000000000000000000000000000000000000000000000000000000000000PES00010000001000000000000000020190207
201902070010001400000000000000010152000000000000000101528000000000027328292217CARRIZO NOELIA DEL VALLE      000000001370510000000000000000000000000000000000000000000000000000000000000000000000000000000000000000000000000000000000PES00010000001000000000000000020190207
201902070060001400000000000000003043000000000000000030438000000000020125623000CHANTA JULIO                  000000000172908000000000000000000000000000000000000000000000000000000000000000000000000000000000000000000000000000000000PES00010000001000000000000000020190207
201902070060001400000000000000003044000000000000000030448000000000024249268433MAI MARIANA MAGDALENA         000000000230820000000000000000000000000000000000000000000000000000000000000000000000000000000000000000000000000000000000PES00010000001000000000000000020190207
201902070060001400000000000000003045000000000000000030458000000000020134855720LECCESE RUBEN                 000000000560000000000000000000000000000000000000000000000000000000000000000000000000000000000000000000000000000000000000PES00010000001000000000000000020190207
201902070060001400000000000000003046000000000000000030468000000000020123525176SIGNORELLI JOSE ALBERTO       000000001534743000000000000000000000000000000000000000000000000000000000000000000000000000000000000000000000000000000000PES00010000001000000000000000020190207
201902070030001100000000000000000360000000000000000003608000000000030510984109SUCESORES DE SALOMON JALIL SRL-00000011100000000000000000000000000000000000000000000000000000000000000000000000000000000000000000000000-00000001651500PES00010000001000000000000000020190207
201902070030001400000000000000001470000000000000000014708000000000030715008935COMERCIAL DEL PLATA SRL       -00000000388493000000000000000000000000000000000000000000000000000000000000000000000000000000000000000000000000000000000PES00010000001000000000000000020190207
201902070080001400000000000000000499000000000000000004998000000000020140840131CABELLO LUIS FERNANDO         -00000000393642000000000000000000000000000000000000000000000000000000000000000000000000000000000000000000000000000000000PES00010000001000000000000000020190207
201902080010001100000000000000008314000000000000000083148000000000030714725196CANTERAS Y TRANSPORTE LOPEZ SR000000036720000000000000000000000000000000000000000000000000000000000000000000000000000000000000000000000000000005505000PES00010000001000000000000000020190208
201902080010001100000000000000008315000000000000000083158000000000030679978132LOS CUATROS SOLES SRL         000000005985000000000000000000000000000000000000000000000000000000000000000000000000000000000000000000000000000000825750PES00010000001000000000000000020190208
201902080010001100000000000000008316000000000000000083168000000000020224515678BONURA CARLOS R               000000004125000000000000000000000000000000000000000000000000000000000000000000000000000000000000000000000000000000550500PES00010000001000000000000000020190208
201902080010001100000000000000008317000000000000000083178000000000030708754486TA SAN MIGUEL SRL             000000035500000000000000000000000000000000000000000000000000000000000000000000000000000000000000000000000000000005505000PES00010000001000000000000000020190208
201902080010001400000000000000010153000000000000000101538000000000027186719587NAVARRO BEATRIZ DEL VALLE     000000000598701000000000000000000000000000000000000000000000000000000000000000000000000000000000000000000000000000000000PES00010000001000000000000000020190208
201902080010001400000000000000010154000000000000000101548000000000024299786850IBARRA JESSICA JUDITH         000000002237261000000000000000000000000000000000000000000000000000000000000000000000000000000000000000000000000000000000PES00010000001000000000000000020190208
201902080010001400000000000000010155000000000000000101558000000000030709046086EL CARRIL SRL                 000000000854146000000000000000000000000000000000000000000000000000000000000000000000000000000000000000000000000000000000PES00010000001000000000000000020190208
201902080010001400000000000000010156000000000000000101568000000000027240071482VILLAVICENCIO MARIA DE LOS ANG000000004094981000000000000000000000000000000000000000000000000000000000000000000000000000000000000000000000000000000000PES00010000001000000000000000020190208
201902080010001400000000000000010157000000000000000101578000000000027240071482VILLAVICENCIO MARIA DE LOS ANG000000001401473000000000000000000000000000000000000000000000000000000000000000000000000000000000000000000000000000000000PES00010000001000000000000000020190208
201902080010001400000000000000010158000000000000000101588000000000030505517632VICENTE TRAPANI SA            000000004743320000000000000000000000000000000000000000000000000000000000000000000000000000000000000000000000000000000000PES00010000001000000000000000020190208
201902080010001400000000000000010159000000000000000101598000000000027285671863REINOSO MARIA DEL CARMEN      000000001845525000000000000000000000000000000000000000000000000000000000000000000000000000000000000000000000000000000000PES00010000001000000000000000020190208
201902080010001400000000000000010160000000000000000101608000000000020080671998CARRIZO JUAN GREGORIO         000000000627427000000000000000000000000000000000000000000000000000000000000000000000000000000000000000000000000000000000PES00010000001000000000000000020190208
201902080010001400000000000000010161000000000000000101618000000000027284964425RACEDO ROSANA ESTER           000000002888493000000000000000000000000000000000000000000000000000000000000000000000000000000000000000000000000000000000PES00010000001000000000000000020190208
201902080010001400000000000000010162000000000000000101628000000000027284964425RACEDO ROSANA ESTER           000000003381341000000000000000000000000000000000000000000000000000000000000000000000000000000000000000000000000000000000PES00010000001000000000000000020190208
201902080010001400000000000000010163000000000000000101638000000000027284964425RACEDO ROSANA ESTER           000000000900951000000000000000000000000000000000000000000000000000000000000000000000000000000000000000000000000000000000PES00010000001000000000000000020190208
201902080010001400000000000000010164000000000000000101648000000000020181873117MARCHIANO AMERICO MARCELO     000000000409936000000000000000000000000000000000000000000000000000000000000000000000000000000000000000000000000000000000PES00010000001000000000000000020190208
201902080010001400000000000000010165000000000000000101658000000000030712272542OLGA ZOTTOLA DE SIMONETO E HIJ000000008398149000000000000000000000000000000000000000000000000000000000000000000000000000000000000000000000000000000000PES00010000001000000000000000020190208
201902080010001400000000000000010166000000000000000101668000000000030712272542OLGA ZOTTOLA DE SIMONETO E HIJ000000000765145000000000000000000000000000000000000000000000000000000000000000000000000000000000000000000000000000000000PES00010000001000000000000000020190208
201902080010001400000000000000010167000000000000000101678000000000020296739554MUHIC GIANNI MIRKO            000000002871457000000000000000000000000000000000000000000000000000000000000000000000000000000000000000000000000000000000PES00010000001000000000000000020190208
201902080010001400000000000000010168000000000000000101688000000000030709418323ECOLOGICA PLUS SA             000000001944679000000000000000000000000000000000000000000000000000000000000000000000000000000000000000000000000000000000PES00010000001000000000000000020190208
201902080010001400000000000000010169000000000000000101698000000000020134760029BOUHIER NORBERTO ABEL         000000001844039000000000000000000000000000000000000000000000000000000000000000000000000000000000000000000000000000000000PES00010000001000000000000000020190208
201902080010005100000000000000000067000000000000000000678000000000024299786850IBARRA JESSICA JUDITH         000000000659332000000000000000000000000000000000000000000000000000000000000000000000000000000000000000000000000000000000PES00010000001000000000000000020190208
201902080010005100000000000000000068000000000000000000688000000000020119103879MARTINEZ ZUCCARDI JORGE A     000000001905859000000000000000000000000000000000000000000000000000000000000000000000000000000000000000000000000000000000PES00010000001000000000000000020190208
201902080010005100000000000000000069000000000000000000698000000000020119103879MARTINEZ ZUCCARDI JORGE A     000000003970930000000000000000000000000000000000000000000000000000000000000000000000000000000000000000000000000000000000PES00010000001000000000000000020190208
201902080060001400000000000000003047000000000000000030478000000000020174643041VILLALOBO CESAR ALBERTO       000000001784830000000000000000000000000000000000000000000000000000000000000000000000000000000000000000000000000000000000PES00010000001000000000000000020190208
20190208F0000500000000000000000906000000000000000009068000000000030546689979YPF SA                        -00000002772224000000000000000000000000000000000000000000000000000000000000000000000000000000000000000000000000000000000PES00010000001000000000000000020190208
201902080030001400000000000000001471000000000000000014718000000000030709046086EL CARRIL SRL                 -00000000854146000000000000000000000000000000000000000000000000000000000000000000000000000000000000000000000000000000000PES00010000001000000000000000020190208
201902090010001100000000000000008318000000000000000083188000000000020298383366ROLDAN PEDRO DANIEL           000000012768000000000000000000000000000000000000000000000000000000000000000000000000000000000000000000000000000001761600PES00010000001000000000000000020190209
201902090010001100000000000000008319000000000000000083198000000000030709704016SALSENCH SRL                  000000015905001000000000000000000000000000000000000000000000000000000000000000000000000000000000000000000000000002202000PES00010000001000000000000000020190209
201902090010001400000000000000010170000000000000000101708000000000020290448515VILLALON MARTIN ANTONIO       000000001403754000000000000000000000000000000000000000000000000000000000000000000000000000000000000000000000000000000000PES00010000001000000000000000020190209
201902110010001100000000000000008320000000000000000083208000000000030710805306AGROPECUARIA LAS TRES SRL     000000007910000000000000000000000000000000000000000000000000000000000000000000000000000000000000000000000000000001101000PES00010000001000000000000000020190211
201902110010001100000000000000008321000000000000000083218000000000030708724560LA ASTURIANA S.R.L            000000019275002000000000000000000000000000000000000000000000000000000000000000000000000000000000000000000000000002752500PES00010000001000000000000000020190211
201902110010001100000000000000008322000000000000000083228000000000020285315671ROTH GERARDO ARIEL            000000011565001000000000000000000000000000000000000000000000000000000000000000000000000000000000000000000000000001651500PES00010000001000000000000000020190211
201902110010001100000000000000008323000000000000000083238000000000030675414927AZAHARES SRL                  000000003855000000000000000000000000000000000000000000000000000000000000000000000000000000000000000000000000000000550500PES00010000001000000000000000020190211
201902110010001100000000000000008324000000000000000083248000000000020165261624MUDAD FRANCISCO ESTEBAN       000000011565001000000000000000000000000000000000000000000000000000000000000000000000000000000000000000000000000001651500PES00010000001000000000000000020190211
201902110010001100000000000000008325000000000000000083258000000000023931628259LASTRINA CARMELO              000000012374999000000000000000000000000000000000000000000000000000000000000000000000000000000000000000000000000001651500PES00010000001000000000000000020190211
201902110010001100000000000000008326000000000000000083268000000000020160397579PUCHULU JULIO M               000000005985000000000000000000000000000000000000000000000000000000000000000000000000000000000000000000000000000000825750PES00010000001000000000000000020190211
201902110010001100000000000000008327000000000000000083278000000000020144483910PUCHULU RAMON JUAN            000000019275002000000000000000000000000000000000000000000000000000000000000000000000000000000000000000000000000002752500PES00010000001000000000000000020190211
201902110010001100000000000000008328000000000000000083288000000000030652945100DE CARLO AMERICO JULIO Y OTROS000000011400000000000000000000000000000000000000000000000000000000000000000000000000000000000000000000000000000001651500PES00010000001000000000000000020190211
201902110010001400000000000000010171000000000000000101718000000000030707728805PROYECTOS METALURGICOS S.A.   000000001563353000000000000000000000000000000000000000000000000000000000000000000000000000000000000000000000000000000000PES00010000001000000000000000020190211
201902110010001400000000000000010172000000000000000101728000000000020202850031GALVEZ JOSE ANTONIO           000000000852386000000000000000000000000000000000000000000000000000000000000000000000000000000000000000000000000000000000PES00010000001000000000000000020190211
201902110010001400000000000000010173000000000000000101738000000000030675414927AZAHARES SRL                  000000001367701000000000000000000000000000000000000000000000000000000000000000000000000000000000000000000000000000000000PES00010000001000000000000000020190211
201902110010001400000000000000010174000000000000000101748000000000030712272542OLGA ZOTTOLA DE SIMONETO E HIJ000000003424911000000000000000000000000000000000000000000000000000000000000000000000000000000000000000000000000000000000PES00010000001000000000000000020190211
201902110010001400000000000000010175000000000000000101758000000000030712272542OLGA ZOTTOLA DE SIMONETO E HIJ000000001781109000000000000000000000000000000000000000000000000000000000000000000000000000000000000000000000000000000000PES00010000001000000000000000020190211
201902110010001400000000000000010176000000000000000101768000000000020228773159CARRIZO GARUTI MAURICIO ADRIAN000000000368633000000000000000000000000000000000000000000000000000000000000000000000000000000000000000000000000000000000PES00010000001000000000000000020190211
201902110010001400000000000000010177000000000000000101778000000000020248027097GIMENEZ LASCANO JAVIER JOSE   000000001856024000000000000000000000000000000000000000000000000000000000000000000000000000000000000000000000000000000000PES00010000001000000000000000020190211
201902110060001400000000000000003048000000000000000030488000000000020233029131VALLEJO ADRIAN                000000001648954000000000000000000000000000000000000000000000000000000000000000000000000000000000000000000000000000000000PES00010000001000000000000000020190211
201902120010001100000000000000008329000000000000000083298000000000030708724560LA ASTURIANA S.R.L            000000019275002000000000000000000000000000000000000000000000000000000000000000000000000000000000000000000000000002752500PES00010000001000000000000000020190212
201902120010001100000000000000008330000000000000000083308000000000030707089586NYNAGRO S.R.L.                000000003855000000000000000000000000000000000000000000000000000000000000000000000000000000000000000000000000000000550500PES00010000001000000000000000020190212
201902120010001100000000000000008331000000000000000083318000000000030589336131LOS CINCO SA                  000000018375000000000000000000000000000000000000000000000000000000000000000000000000000000000000000000000000000002752500PES00010000001000000000000000020190212
201902120010001100000000000000008332000000000000000083328000000000020938619507MEDICI PEDRO FERRUCCIO        000000003900000000000000000000000000000000000000000000000000000000000000000000000000000000000000000000000000000000550500PES00010000001000000000000000020190212
201902120010001100000000000000008333000000000000000083338000000000030708725931MIMILTO SRL                   000000005782500000000000000000000000000000000000000000000000000000000000000000000000000000000000000000000000000000825750PES00010000001000000000000000020190212
201902120010001100000000000000008334000000000000000083348000000000030697155097LAGAR CONSIGNACIONES SA       000000007980000000000000000000000000000000000000000000000000000000000000000000000000000000000000000000000000000001101000PES00010000001000000000000000020190212
201902120010001100000000000000008335000000000000000083358000000000020167846921VILLAGRA CARLOS SERGIO        000000071400000000000000000000000000000000000000000000000000000000000000000000000000000000000000000000000000000011010000PES00010000001000000000000000020190212
201902120010001400000000000000010178000000000000000101788000000000027128690439QUINTERO LUCRECIA DEL VALLE   000000000205160000000000000000000000000000000000000000000000000000000000000000000000000000000000000000000000000000000000PES00010000001000000000000000020190212
201902120010001400000000000000010179000000000000000101798000000000020228773159CARRIZO GARUTI MAURICIO ADRIAN000000000627427000000000000000000000000000000000000000000000000000000000000000000000000000000000000000000000000000000000PES00010000001000000000000000020190212
201902120010001400000000000000010180000000000000000101808000000000030523408247CERAMICA MARCOS PAZ SRL       000000003009885000000000000000000000000000000000000000000000000000000000000000000000000000000000000000000000000000000000PES00010000001000000000000000020190212
201902120010001400000000000000010181000000000000000101818000000000030523408247CERAMICA MARCOS PAZ SRL       000000001608621000000000000000000000000000000000000000000000000000000000000000000000000000000000000000000000000000000000PES00010000001000000000000000020190212
201902120010001400000000000000010182000000000000000101828000000000020162829840BRAVO OSCAR ROLANDO           000000001742637000000000000000000000000000000000000000000000000000000000000000000000000000000000000000000000000000000000PES00010000001000000000000000020190212
201902120010001400000000000000010183000000000000000101838000000000027284964425RACEDO ROSANA ESTER           000000002940571000000000000000000000000000000000000000000000000000000000000000000000000000000000000000000000000000000000PES00010000001000000000000000020190212
201902120010001400000000000000010184000000000000000101848000000000027284964425RACEDO ROSANA ESTER           000000001679429000000000000000000000000000000000000000000000000000000000000000000000000000000000000000000000000000000000PES00010000001000000000000000020190212
201902120010001400000000000000010185000000000000000101858000000000030711349282INGENIERIA Y CONSTRUCCIONES KU000000001549981000000000000000000000000000000000000000000000000000000000000000000000000000000000000000000000000000000000PES00010000001000000000000000020190212
201902120010001400000000000000010186000000000000000101868000000000020936454098BERTOLLI OLINDO               000000000174315000000000000000000000000000000000000000000000000000000000000000000000000000000000000000000000000000000000PES00010000001000000000000000020190212
201902120010005100000000000000000070000000000000000000708000000000020119103879MARTINEZ ZUCCARDI JORGE A     000000003981190000000000000000000000000000000000000000000000000000000000000000000000000000000000000000000000000000000000PES00010000001000000000000000020190212
201902120010005100000000000000000071000000000000000000718000000000030639227096INTRA S.R.L.                  000000001092033000000000000000000000000000000000000000000000000000000000000000000000000000000000000000000000000000000000PES00010000001000000000000000020190212
201902120010005200000000000000000072000000000000000000728000000000030715792911TERRA DE CITRUS SA            000000010783518000000000000000000000000000000000000000000000000000000000000000000000000000000000000000000000000000000000PES00010000001000000000000000020190212
201902120060001400000000000000003049000000000000000030498000000000020127334154QUIROGA JUAN CARLOS           000000002759688000000000000000000000000000000000000000000000000000000000000000000000000000000000000000000000000000000000PES00010000001000000000000000020190212
201902120060001400000000000000003050000000000000000030508000000000020377274165TORRES GUILLERMO MARCELINO    000000000500939000000000000000000000000000000000000000000000000000000000000000000000000000000000000000000000000000000000PES00010000001000000000000000020190212
201902120060001400000000000000003051000000000000000030518000000000020166931038RODRIGUEZ JOSE ALBERTO        000000002358693000000000000000000000000000000000000000000000000000000000000000000000000000000000000000000000000000000000PES00010000001000000000000000020190212
201902120060001600000000000000000211000000000000000002118000000000030655342946MUNIC.S.M.TUCUMAN DIRECC.SERV.000000218920000000000000000000000000000000000000000000000000000000000000000000000000000000000000000000000000000000000000PES00010000001000000000000000020190212
20190212F0000500000000000000000907000000000000000009078000000000030546689979YPF SA                        -00000001104506000000000000000000000000000000000000000000000000000000000000000000000000000000000000000000000000000000000PES00010000001000000000000000020190212
20190212F0000500000000000000000908000000000000000009088000000000030546689979YPF SA                        -00000012227631000000000000000000000000000000000000000000000000000000000000000000000000000000000000000000000000000000000PES00010000001000000000000000020190212
20190212F0000500000000000000000910000000000000000009108000000000030546689979YPF SA                        -00000000996621000000000000000000000000000000000000000000000000000000000000000000000000000000000000000000000000000000000PES00010000001000000000000000020190212
201902120030001400000000000000001472000000000000000014728000000000030712272542OLGA ZOTTOLA DE SIMONETO E HIJ-00000001992428000000000000000000000000000000000000000000000000000000000000000000000000000000000000000000000000000000000PES00010000001000000000000000020190212
201902120030005200000000000000000011000000000000000000118000000000030708513543TIERRA DE ARANDANOS SRL       -00000010783518000000000000000000000000000000000000000000000000000000000000000000000000000000000000000000000000000000000PES00010000001000000000000000020190212
201902130010001100000000000000008336000000000000000083368000000000030707271899ZUCAMEL SA                    000000019275002000000000000000000000000000000000000000000000000000000000000000000000000000000000000000000000000002752500PES00010000001000000000000000020190213
201902130010001100000000000000008337000000000000000083378000000000030679978132LOS CUATROS SOLES SRL         000000003990000000000000000000000000000000000000000000000000000000000000000000000000000000000000000000000000000000550500PES00010000001000000000000000020190213
201902130010001400000000000000010187000000000000000101878000000000020119156980BRAVO MIGUEL ANGEL            000000000778284000000000000000000000000000000000000000000000000000000000000000000000000000000000000000000000000000000000PES00010000001000000000000000020190213
201902130010001400000000000000010188000000000000000101888000000000020143532004SANCHEZ HORACIO CESAR         000000005313231000000000000000000000000000000000000000000000000000000000000000000000000000000000000000000000000000000000PES00010000001000000000000000020190213
201902130010001400000000000000010189000000000000000101898000000000030708417137BELLANTI BRUNO  Y BELLANTI CES000000000787284000000000000000000000000000000000000000000000000000000000000000000000000000000000000000000000000000000000PES00010000001000000000000000020190213
201902130010001400000000000000010190000000000000000101908000000000030711402353REPUESTOS LA ACADEMIA SRL     000000000560368000000000000000000000000000000000000000000000000000000000000000000000000000000000000000000000000000000000PES00010000001000000000000000020190213
201902130010001400000000000000010191000000000000000101918000000000027258534080MESON NANCY BEATRIZ           000000000730039000000000000000000000000000000000000000000000000000000000000000000000000000000000000000000000000000000000PES00010000001000000000000000020190213
201902130010001400000000000000010192000000000000000101928000000000020258573294MONTENEGRO ZELARAYAN MILTON DA000000001874851000000000000000000000000000000000000000000000000000000000000000000000000000000000000000000000000000000000PES00010000001000000000000000020190213
201902130010001400000000000000010193000000000000000101938000000000020262596509BLASCO MIGUEL CARLOS          000000013576700000000000000000000000000000000000000000000000000000000000000000000000000000000000000000000000000000000000PES00010000001000000000000000020190213
201902130010001400000000000000010194000000000000000101948000000000020262596509BLASCO MIGUEL CARLOS          000000005792255000000000000000000000000000000000000000000000000000000000000000000000000000000000000000000000000000000000PES00010000001000000000000000020190213
201902130010001400000000000000010195000000000000000101958000000000020936454098BERTOLLI OLINDO               000000000174315000000000000000000000000000000000000000000000000000000000000000000000000000000000000000000000000000000000PES00010000001000000000000000020190213
201902130010001400000000000000010196000000000000000101968000000000030715039911LA VIA SRL                    000000001261916000000000000000000000000000000000000000000000000000000000000000000000000000000000000000000000000000000000PES00010000001000000000000000020190213
201902130010001400000000000000010197000000000000000101978000000000030660451486CANTERA EL CACIQUE SRL        000000003424832000000000000000000000000000000000000000000000000000000000000000000000000000000000000000000000000000000000PES00010000001000000000000000020190213
201902130010001400000000000000010198000000000000000101988000000000033714496749ESTAC DE SERV RUTA 306 SH     000000003197363000000000000000000000000000000000000000000000000000000000000000000000000000000000000000000000000000000000PES00010000001000000000000000020190213
201902130010001400000000000000010199000000000000000101998000000000030506175972OMODEO SA                     000000000348601000000000000000000000000000000000000000000000000000000000000000000000000000000000000000000000000000000000PES00010000001000000000000000020190213
201902130010001600000000000000000569000000000000000005698000000000027260069085NICHIPORUK  CECILIA ABIGAIL   000000003256674000000000000000000000000000000000000000000000000000000000000000000000000000000000000000000000000000000000PES00010000001000000000000000020190213
201902130060001400000000000000003052000000000000000030528000000000030679935522MUNICIPALIDAD DE TAFI VIEJO   000000001887389000000000000000000000000000000000000000000000000000000000000000000000000000000000000000000000000000000000PES00010000001000000000000000020190213
201902130060001400000000000000003053000000000000000030538000000000030679935522MUNICIPALIDAD DE TAFI VIEJO   000000001845525000000000000000000000000000000000000000000000000000000000000000000000000000000000000000000000000000000000PES00010000001000000000000000020190213
201902130030001400000000000000001473000000000000000014738000000000027301176606BUSNELLI PAULA FLORENCIA      -00000000551919000000000000000000000000000000000000000000000000000000000000000000000000000000000000000000000000000000000PES00010000001000000000000000020190213
201902130030001400000000000000001474000000000000000014748000000000020133383736DECIMA MANUEL ARMANDO         -00000000174315000000000000000000000000000000000000000000000000000000000000000000000000000000000000000000000000000000000PES00010000001000000000000000020190213
201902130030001400000000000000001475000000000000000014758000000000020228773159CARRIZO GARUTI MAURICIO ADRIAN-00000000368633000000000000000000000000000000000000000000000000000000000000000000000000000000000000000000000000000000000PES00010000001000000000000000020190213
201902140010001100000000000000008338000000000000000083388000000000030697222800SOLBES HNOS                   000000026039999000000000000000000000000000000000000000000000000000000000000000000000000000000000000000000000000003303000PES00010000001000000000000000020190214
201902140010001400000000000000010200000000000000000102008000000000030707271899ZUCAMEL SA                    000000000338074000000000000000000000000000000000000000000000000000000000000000000000000000000000000000000000000000000000PES00010000001000000000000000020190214
201902140010001400000000000000010201000000000000000102018000000000030523408247CERAMICA MARCOS PAZ SRL       000000001329884000000000000000000000000000000000000000000000000000000000000000000000000000000000000000000000000000000000PES00010000001000000000000000020190214
201902140010001400000000000000010202000000000000000102028000000000020178667166RIOS CESAR GUSTAVO            000000000406591000000000000000000000000000000000000000000000000000000000000000000000000000000000000000000000000000000000PES00010000001000000000000000020190214
201902140010001400000000000000010203000000000000000102038000000000030712272542OLGA ZOTTOLA DE SIMONETO E HIJ000000004104109000000000000000000000000000000000000000000000000000000000000000000000000000000000000000000000000000000000PES00010000001000000000000000020190214
201902140010001400000000000000010204000000000000000102048000000000030712272542OLGA ZOTTOLA DE SIMONETO E HIJ000000000497279000000000000000000000000000000000000000000000000000000000000000000000000000000000000000000000000000000000PES00010000001000000000000000020190214
201902140010001400000000000000010205000000000000000102058000000000020274548887CORNEJO GUSTAVO FRANCISCO     000000000174315000000000000000000000000000000000000000000000000000000000000000000000000000000000000000000000000000000000PES00010000001000000000000000020190214
201902140060001400000000000000003054000000000000000030548000000000024249268433MAI MARIANA MAGDALENA         000000000544132000000000000000000000000000000000000000000000000000000000000000000000000000000000000000000000000000000000PES00010000001000000000000000020190214
201902140060001400000000000000003055000000000000000030558000000000030656135006MUNICIPALIDAD DE SIMOCA       000000000527447000000000000000000000000000000000000000000000000000000000000000000000000000000000000000000000000000000000PES00010000001000000000000000020190214
201902150010001100000000000000008339000000000000000083398000000000030620919922RF y J BUDEGUER SRL           000000004177000000000000000000000000000000000000000000000000000000000000000000000000000000000000000000000000000000550500PES00010000001000000000000000020190215
201902150010001100000000000000008340000000000000000083408000000000030711564523SH SANCHEZ ANA MARIA, ROTELLA 000000004788000000000000000000000000000000000000000000000000000000000000000000000000000000000000000000000000000000660600PES00010000001000000000000000020190215
201902150010001100000000000000008341000000000000000083418000000000020119103879MARTINEZ ZUCCARDI JORGE A     000000019950000000000000000000000000000000000000000000000000000000000000000000000000000000000000000000000000000002752500PES00010000001000000000000000020190215
201902150010001400000000000000010206000000000000000102068000000000023111033919CHIVILISCO HECTOR SALVADOR    000000000174315000000000000000000000000000000000000000000000000000000000000000000000000000000000000000000000000000000000PES00010000001000000000000000020190215
201902150010001400000000000000010207000000000000000102078000000000030653513476VETAGRO S.R.L.                000000010950000000000000000000000000000000000000000000000000000000000000000000000000000000000000000000000000000000000000PES00010000001000000000000000020190215
201902150010001400000000000000010208000000000000000102088000000000030710383126TM ROLDAN SRL                 000000000362961000000000000000000000000000000000000000000000000000000000000000000000000000000000000000000000000000000000PES00010000001000000000000000020190215
201902150010001400000000000000010209000000000000000102098000000000030709482005MARIA JESUS SRL               000000002978990000000000000000000000000000000000000000000000000000000000000000000000000000000000000000000000000000000000PES00010000001000000000000000020190215
201902150010001400000000000000010210000000000000000102108000000000020135634094ELIAS MARIO DANTE             000000001322886000000000000000000000000000000000000000000000000000000000000000000000000000000000000000000000000000000000PES00010000001000000000000000020190215
201902150010001400000000000000010211000000000000000102118000000000030715039911LA VIA SRL                    000000014160000000000000000000000000000000000000000000000000000000000000000000000000000000000000000000000000000000000000PES00010000001000000000000000020190215
201902150010001400000000000000010212000000000000000102128000000000023311284339CARRASCO RAUL RICARDO         000000003336043000000000000000000000000000000000000000000000000000000000000000000000000000000000000000000000000000000000PES00010000001000000000000000020190215
201902150010001400000000000000010213000000000000000102138000000000030712272542OLGA ZOTTOLA DE SIMONETO E HIJ000000003967819000000000000000000000000000000000000000000000000000000000000000000000000000000000000000000000000000000000PES00010000001000000000000000020190215
201902150010001400000000000000010214000000000000000102148000000000030712272542OLGA ZOTTOLA DE SIMONETO E HIJ000000000665927000000000000000000000000000000000000000000000000000000000000000000000000000000000000000000000000000000000PES00010000001000000000000000020190215
201902150010001400000000000000010215000000000000000102158000000000030707991387RODA TRANSFORMECANICA  SERV SR000000001874851000000000000000000000000000000000000000000000000000000000000000000000000000000000000000000000000000000000PES00010000001000000000000000020190215
201902150010001400000000000000010216000000000000000102168000000000020182032701OLIVARES RODOLFO EDUARDO      000000001874851000000000000000000000000000000000000000000000000000000000000000000000000000000000000000000000000000000000PES00010000001000000000000000020190215
201902150010001400000000000000010217000000000000000102178000000000027252553512VIZCARRA ANALIA DEL VALLE     000000002859632000000000000000000000000000000000000000000000000000000000000000000000000000000000000000000000000000000000PES00010000001000000000000000020190215
201902150010001400000000000000010218000000000000000102188000000000027252553512VIZCARRA ANALIA DEL VALLE     000000001874851000000000000000000000000000000000000000000000000000000000000000000000000000000000000000000000000000000000PES00010000001000000000000000020190215
201902150060001100000000000000000141000000000000000001418000000000033638640789DIRECCION PROVINCIAL DE VIALID000000102344000000000000000000000000000000000000000000000000000000000000000000000000000000000000000000000000000012111000PES00010000001000000000000000020190215
201902150060001400000000000000003056000000000000000030568000000000020174643041VILLALOBO CESAR ALBERTO       000000000867693000000000000000000000000000000000000000000000000000000000000000000000000000000000000000000000000000000000PES00010000001000000000000000020190215
201902150060001400000000000000003057000000000000000030578000000000020255437861FRIAS JOSE LUIS               000000000340584000000000000000000000000000000000000000000000000000000000000000000000000000000000000000000000000000000000PES00010000001000000000000000020190215
201902150060001400000000000000003058000000000000000030588000000000020171400326CASERES RAMON RENATO          000000003177235000000000000000000000000000000000000000000000000000000000000000000000000000000000000000000000000000000000PES00010000001000000000000000020190215
201902150080001600000000000000000022000000000000000000228000000000030655342946MUNIC.S.M.TUCUMAN DIRECC.SERV.-00000218920000000000000000000000000000000000000000000000000000000000000000000000000000000000000000000000000000000000000PES00010000001000000000000000020190215
201902160010001100000000000000008342000000000000000083428000000000030679978132LOS CUATROS SOLES SRL         000000000007710000000000000000000000000000000000000000000000000000000000000000000000000000000000000000000000000000001101PES00010000001000000000000000020190216
201902160010001100000000000000008343000000000000000083438000000000030679978132LOS CUATROS SOLES SRL         000000007980000000000000000000000000000000000000000000000000000000000000000000000000000000000000000000000000000001101000PES00010000001000000000000000020190216
201902160010001100000000000000008344000000000000000083448000000000030715073532FRATELLI BO-GIO SRL           000000000825000000000000000000000000000000000000000000000000000000000000000000000000000000000000000000000000000000110100PES00010000001000000000000000020190216
201902160010001100000000000000008345000000000000000083458000000000030620919922RF y J BUDEGUER SRL           000000006265500000000000000000000000000000000000000000000000000000000000000000000000000000000000000000000000000000825750PES00010000001000000000000000020190216
201902160030001100000000000000000361000000000000000003618000000000030679978132LOS CUATROS SOLES SRL         -00000000007710000000000000000000000000000000000000000000000000000000000000000000000000000000000000000000-00000000001101PES00010000001000000000000000020190216
201902180010001100000000000000008346000000000000000083468000000000030506175972OMODEO SA                     000000005782500000000000000000000000000000000000000000000000000000000000000000000000000000000000000000000000000000825750PES00010000001000000000000000020190218
201902180010001100000000000000008347000000000000000083478000000000030715261517SERCOU SRL                    000000006187500000000000000000000000000000000000000000000000000000000000000000000000000000000000000000000000000000825750PES00010000001000000000000000020190218
201902180010001100000000000000008348000000000000000083488000000000030620919922RF y J BUDEGUER SRL           000000006265500000000000000000000000000000000000000000000000000000000000000000000000000000000000000000000000000000825750PES00010000001000000000000000020190218
201902180010001100000000000000008349000000000000000083498000000000030708472642TA COLOMBRES SRL              000000017775000000000000000000000000000000000000000000000000000000000000000000000000000000000000000000000000000002752500PES00010000001000000000000000020190218
201902180010001100000000000000008350000000000000000083508000000000030715705016APACHE SERVICIOS SRL          000000017775000000000000000000000000000000000000000000000000000000000000000000000000000000000000000000000000000002752500PES00010000001000000000000000020190218
201902180010001100000000000000008351000000000000000083518000000000020268170651LOPEZ ELIO ALBERTO            000000007980000000000000000000000000000000000000000000000000000000000000000000000000000000000000000000000000000001101000PES00010000001000000000000000020190218
201902180010001400000000000000010219000000000000000102198000000000023111033919CHIVILISCO HECTOR SALVADOR    000000000234627000000000000000000000000000000000000000000000000000000000000000000000000000000000000000000000000000000000PES00010000001000000000000000020190218
201902180010001400000000000000010220000000000000000102208000000000020296739554MUHIC GIANNI MIRKO            000000001278006000000000000000000000000000000000000000000000000000000000000000000000000000000000000000000000000000000000PES00010000001000000000000000020190218
201902180010001400000000000000010221000000000000000102218000000000020296739554MUHIC GIANNI MIRKO            000000000167722000000000000000000000000000000000000000000000000000000000000000000000000000000000000000000000000000000000PES00010000001000000000000000020190218
201902180010001400000000000000010222000000000000000102228000000000027301176606BUSNELLI PAULA FLORENCIA      000000020572432000000000000000000000000000000000000000000000000000000000000000000000000000000000000000000000000000000000PES00010000001000000000000000020190218
201902180010001400000000000000010223000000000000000102238000000000030708754486TA SAN MIGUEL SRL             000000003786875000000000000000000000000000000000000000000000000000000000000000000000000000000000000000000000000000000000PES00010000001000000000000000020190218
201902180010001400000000000000010224000000000000000102248000000000027275951353GALVEZ AGUEDA FABIOLA         000000000512389000000000000000000000000000000000000000000000000000000000000000000000000000000000000000000000000000000000PES00010000001000000000000000020190218
201902180010001400000000000000010225000000000000000102258000000000020202185658AHUMADA ROBERTO               000000000456785000000000000000000000000000000000000000000000000000000000000000000000000000000000000000000000000000000000PES00010000001000000000000000020190218
201902180010001400000000000000010226000000000000000102268000000000020290448515VILLALON MARTIN ANTONIO       000000002657414000000000000000000000000000000000000000000000000000000000000000000000000000000000000000000000000000000000PES00010000001000000000000000020190218
201902180010001400000000000000010227000000000000000102278000000000020277323037CARRAZANO ENZO JAVIER         000000000523451000000000000000000000000000000000000000000000000000000000000000000000000000000000000000000000000000000000PES00010000001000000000000000020190218
201902180010001600000000000000000570000000000000000005708000000000030716035650TIENDA DEL ARTE SRL           000000000520000000000000000000000000000000000000000000000000000000000000000000000000000000000000000000000000000000000000PES00010000001000000000000000020190218
201902180010001600000000000000000571000000000000000005718000000000020296739554MUHIC GIANNI MIRKO            000000000237608000000000000000000000000000000000000000000000000000000000000000000000000000000000000000000000000000000000PES00010000001000000000000000020190218
201902180010001600000000000000000572000000000000000005728000000000033555652289DEL TEJAR SA                  000000110714032000000000000000000000000000000000000000000000000000000000000000000000000000000000000000000000000000000000PES00010000001000000000000000020190218
201902180010005100000000000000000072000000000000000000728000000000030702409310LA BAJADA SA                  000000005764440000000000000000000000000000000000000000000000000000000000000000000000000000000000000000000000000000000000PES00010000001000000000000000020190218
201902180060001400000000000000003059000000000000000030598000000000020233029131VALLEJO ADRIAN                000000001563353000000000000000000000000000000000000000000000000000000000000000000000000000000000000000000000000000000000PES00010000001000000000000000020190218
201902180060001400000000000000003060000000000000000030608000000000020187848734FIGUEROA BARRIENTOS JAVIER    000000000844252000000000000000000000000000000000000000000000000000000000000000000000000000000000000000000000000000000000PES00010000001000000000000000020190218
201902180060001400000000000000003061000000000000000030618000000000020273010522ROMANO DANIEL H               000000000428272000000000000000000000000000000000000000000000000000000000000000000000000000000000000000000000000000000000PES00010000001000000000000000020190218
201902180060001400000000000000003062000000000000000030628000000000020112675214LIZARRAGA EDMUNDO ANTONIO     000000004399986000000000000000000000000000000000000000000000000000000000000000000000000000000000000000000000000000000000PES00010000001000000000000000020190218
201902180030001100000000000000000362000000000000000003628000000000030589336131LOS CINCO SA                  -00000000025725000000000000000000000000000000000000000000000000000000000000000000000000000000000000000000-00000000003853PES00010000001000000000000000020190218
201902180030001400000000000000001476000000000000000014768000000000027301176606BUSNELLI PAULA FLORENCIA      -00000001321256000000000000000000000000000000000000000000000000000000000000000000000000000000000000000000000000000000000PES00010000001000000000000000020190218
201902180080001400000000000000000500000000000000000005008000000000020187848734FIGUEROA BARRIENTOS JAVIER    -00000000844252000000000000000000000000000000000000000000000000000000000000000000000000000000000000000000000000000000000PES00010000001000000000000000020190218
201902190010001100000000000000008352000000000000000083528000000000030707949216LOS LOPEZ S.R.L.              000000006187500000000000000000000000000000000000000000000000000000000000000000000000000000000000000000000000000000825750PES00010000001000000000000000020190219
201902190010001100000000000000008353000000000000000083538000000000030679978132LOS CUATROS SOLES SRL         000000007980000000000000000000000000000000000000000000000000000000000000000000000000000000000000000000000000000001101000PES00010000001000000000000000020190219
201902190010001100000000000000008354000000000000000083548000000000030702396235LAGUNA  S.A.                  000000004125000000000000000000000000000000000000000000000000000000000000000000000000000000000000000000000000000000550500PES00010000001000000000000000020190219
201902190010001300000000000000000087000000000000000000878000000000030515488479YPF GAS SA                    000000018898211000000000000000000000000000000000000000000000000000000000000000000000000000000000000000000000000000000000PES00010000001000000000000000020190219
201902190010001400000000000000010228000000000000000102288000000000030713516305AGROPECUARIA LAGUNA BLANCA SRL000000000433847000000000000000000000000000000000000000000000000000000000000000000000000000000000000000000000000000000000PES00010000001000000000000000020190219
201902190010001400000000000000010229000000000000000102298000000000020070016878SUCESION DE RODRIGUEZ ENRIQUE 000000001651473000000000000000000000000000000000000000000000000000000000000000000000000000000000000000000000000000000000PES00010000001000000000000000020190219
201902190010001400000000000000010230000000000000000102308000000000020135634094ELIAS MARIO DANTE             000000001111139000000000000000000000000000000000000000000000000000000000000000000000000000000000000000000000000000000000PES00010000001000000000000000020190219
201902190010001400000000000000010231000000000000000102318000000000020130451862TOLEDO JOSE SEBASTIAN         000000001395520000000000000000000000000000000000000000000000000000000000000000000000000000000000000000000000000000000000PES00010000001000000000000000020190219
201902190010001400000000000000010232000000000000000102328000000000030695177239AGROPECUARIA MISTOL ANCHO SA  000000000773091000000000000000000000000000000000000000000000000000000000000000000000000000000000000000000000000000000000PES00010000001000000000000000020190219
201902190010001400000000000000010233000000000000000102338000000000030710444249PERFOSUELO INGENIERIA SRL     000000001884634000000000000000000000000000000000000000000000000000000000000000000000000000000000000000000000000000000000PES00010000001000000000000000020190219
201902190010001400000000000000010234000000000000000102348000000000030709628255PACTA SRL                     000000003720376000000000000000000000000000000000000000000000000000000000000000000000000000000000000000000000000000000000PES00010000001000000000000000020190219
201902190010001400000000000000010235000000000000000102358000000000030644186497LOS PEMPA AGROGANADERA        000000001996636000000000000000000000000000000000000000000000000000000000000000000000000000000000000000000000000000000000PES00010000001000000000000000020190219
201902190010001400000000000000010236000000000000000102368000000000030712272542OLGA ZOTTOLA DE SIMONETO E HIJ000000004256071000000000000000000000000000000000000000000000000000000000000000000000000000000000000000000000000000000000PES00010000001000000000000000020190219
201902190010005100000000000000000073000000000000000000738000000000030712051570FRONDA SRL                    000000000407362000000000000000000000000000000000000000000000000000000000000000000000000000000000000000000000000000000000PES00010000001000000000000000020190219
201902190060001400000000000000003063000000000000000030638000000000030679935522MUNICIPALIDAD DE TAFI VIEJO   000000001549981000000000000000000000000000000000000000000000000000000000000000000000000000000000000000000000000000000000PES00010000001000000000000000020190219
201902190060001600000000000000000212000000000000000002128000000000030655342946MUNIC.S.M.TUCUMAN DIRECC.SERV.000000365849000000000000000000000000000000000000000000000000000000000000000000000000000000000000000000000000000000000000PES00010000001000000000000000020190219
201902190080001400000000000000000501000000000000000005018000000000020332671953FERNANDEZ VANESA DANIELA      -00000000116677000000000000000000000000000000000000000000000000000000000000000000000000000000000000000000000000000000000PES00010000001000000000000000020190219
201902200010001100000000000000008355000000000000000083558000000000030652945100DE CARLO AMERICO JULIO Y OTROS000000011400000000000000000000000000000000000000000000000000000000000000000000000000000000000000000000000000000001651500PES00010000001000000000000000020190220
201902200010001100000000000000008356000000000000000083568000000000020165261624MUDAD FRANCISCO ESTEBAN       000000030840003000000000000000000000000000000000000000000000000000000000000000000000000000000000000000000000000004404000PES00010000001000000000000000020190220
201902200010001100000000000000008357000000000000000083578000000000030605335620FACTOR SA                     000000003855000000000000000000000000000000000000000000000000000000000000000000000000000000000000000000000000000000550500PES00010000001000000000000000020190220
201902200010001100000000000000008358000000000000000083588000000000030707465049LAPACHO AMARILLO SRL          000000011565001000000000000000000000000000000000000000000000000000000000000000000000000000000000000000000000000001651500PES00010000001000000000000000020190220
201902200010001400000000000000010237000000000000000102378000000000020178667166RIOS CESAR GUSTAVO            000000004211561000000000000000000000000000000000000000000000000000000000000000000000000000000000000000000000000000000000PES00010000001000000000000000020190220
201902200010001400000000000000010238000000000000000102388000000000020253721376JUAREZ JOSE HORACIO           000000001874851000000000000000000000000000000000000000000000000000000000000000000000000000000000000000000000000000000000PES00010000001000000000000000020190220
201902200010001400000000000000010239000000000000000102398000000000030715553712COMPLEJO AZUCARERO CONCEPCION 000000002235717000000000000000000000000000000000000000000000000000000000000000000000000000000000000000000000000000000000PES00010000001000000000000000020190220
201902200010001400000000000000010240000000000000000102408000000000030511008030PAZ Y POSSE LTDA SA           000000001620036000000000000000000000000000000000000000000000000000000000000000000000000000000000000000000000000000000000PES00010000001000000000000000020190220
201902200010001400000000000000010241000000000000000102418000000000020277305195FOIX PABLO GABRIEL            000000003600000000000000000000000000000000000000000000000000000000000000000000000000000000000000000000000000000000000000PES00010000001000000000000000020190220
201902200010001400000000000000010242000000000000000102428000000000027328292217CARRIZO NOELIA DEL VALLE      000000005565077000000000000000000000000000000000000000000000000000000000000000000000000000000000000000000000000000000000PES00010000001000000000000000020190220
201902200010001400000000000000010243000000000000000102438000000000027148465296ARTERO LILIANA DEL VALLE      000000004438474000000000000000000000000000000000000000000000000000000000000000000000000000000000000000000000000000000000PES00010000001000000000000000020190220
201902200010001400000000000000010244000000000000000102448000000000020053989331MUÑOZ ANTONIO GERARDO         000000002490337000000000000000000000000000000000000000000000000000000000000000000000000000000000000000000000000000000000PES00010000001000000000000000020190220
201902200010001400000000000000010245000000000000000102458000000000030505517632VICENTE TRAPANI SA            000000001659636000000000000000000000000000000000000000000000000000000000000000000000000000000000000000000000000000000000PES00010000001000000000000000020190220
201902200060001400000000000000003064000000000000000030648000000000020249814491CORTI SERGIO DANIEL           000000000439251000000000000000000000000000000000000000000000000000000000000000000000000000000000000000000000000000000000PES00010000001000000000000000020190220
201902200060001400000000000000003065000000000000000030658000000000020222334765ONTIVEROS GUSTAVO             000000002001886000000000000000000000000000000000000000000000000000000000000000000000000000000000000000000000000000000000PES00010000001000000000000000020190220
201902200060001400000000000000003066000000000000000030668000000000020287904097MATIUZZI ALFREDO              000000001444246000000000000000000000000000000000000000000000000000000000000000000000000000000000000000000000000000000000PES00010000001000000000000000020190220
201902200060001400000000000000003067000000000000000030678000000000020293903663TESTA LUIS ALFREDO            000000000351862000000000000000000000000000000000000000000000000000000000000000000000000000000000000000000000000000000000PES00010000001000000000000000020190220
201902200030001400000000000000001477000000000000000014778000000000033715861459GRUPO MUÑOZ SRL               -00000000178980000000000000000000000000000000000000000000000000000000000000000000000000000000000000000000000000000000000PES00010000001000000000000000020190220
201902200030001400000000000000001478000000000000000014788000000000020069967095SUCESION DE TERAN RODOLFO NICO-00000000131609000000000000000000000000000000000000000000000000000000000000000000000000000000000000000000000000000000000PES00010000001000000000000000020190220
201902200030001400000000000000001479000000000000000014798000000000027165409987BULACIO NORMA DEL CARMEN      -00000000178632000000000000000000000000000000000000000000000000000000000000000000000000000000000000000000000000000000000PES00010000001000000000000000020190220
201902200030001400000000000000001480000000000000000014808000000000020119193215BOIX MATEO                    -00000001097571000000000000000000000000000000000000000000000000000000000000000000000000000000000000000000000000000000000PES00010000001000000000000000020190220
201902200030001400000000000000001481000000000000000014818000000000030715870165LA PICK UP REPUESTOS SRL      -00000000156952000000000000000000000000000000000000000000000000000000000000000000000000000000000000000000000000000000000PES00010000001000000000000000020190220
201902200030001400000000000000001482000000000000000014828000000000030715870165LA PICK UP REPUESTOS SRL      -00000001845331000000000000000000000000000000000000000000000000000000000000000000000000000000000000000000000000000000000PES00010000001000000000000000020190220
201902200030001400000000000000001483000000000000000014838000000000030588577267GOMERIA RUTA 38 DE GIRAUDO HNO-00000001160248000000000000000000000000000000000000000000000000000000000000000000000000000000000000000000000000000000000PES00010000001000000000000000020190220
201902200030001400000000000000001484000000000000000014848000000000027240071482VILLAVICENCIO MARIA DE LOS ANG-00000000185772000000000000000000000000000000000000000000000000000000000000000000000000000000000000000000000000000000000PES00010000001000000000000000020190220
201902200030001400000000000000001485000000000000000014858000000000027240071482VILLAVICENCIO MARIA DE LOS ANG-00000000453210000000000000000000000000000000000000000000000000000000000000000000000000000000000000000000000000000000000PES00010000001000000000000000020190220
201902200030001400000000000000001486000000000000000014868000000000020119193215BOIX MATEO                    -00000000029972000000000000000000000000000000000000000000000000000000000000000000000000000000000000000000000000000000000PES00010000001000000000000000020190220
201902200030001400000000000000001487000000000000000014878000000000020258573294MONTENEGRO ZELARAYAN MILTON DA-00000000187451000000000000000000000000000000000000000000000000000000000000000000000000000000000000000000000000000000000PES00010000001000000000000000020190220
201902210010001100000000000000008359000000000000000083598000000000030622371967CODEGRAN SRL                  000000003855000000000000000000000000000000000000000000000000000000000000000000000000000000000000000000000000000000550500PES00010000001000000000000000020190221
201902210010001100000000000000008360000000000000000083608000000000030679978132LOS CUATROS SOLES SRL         000000007980000000000000000000000000000000000000000000000000000000000000000000000000000000000000000000000000000001101000PES00010000001000000000000000020190221
201902210010001100000000000000008361000000000000000083618000000000033564217129DI BACCO Y CIA SA             000000025500000000000000000000000000000000000000000000000000000000000000000000000000000000000000000000000000000003303000PES00010000001000000000000000020190221
201902210010001400000000000000010246000000000000000102468000000000020324558625QUINTEROS MIGUEL ANGEL        000000001874851000000000000000000000000000000000000000000000000000000000000000000000000000000000000000000000000000000000PES00010000001000000000000000020190221
201902210010001400000000000000010247000000000000000102478000000000030707949216LOS LOPEZ S.R.L.              000000000348630000000000000000000000000000000000000000000000000000000000000000000000000000000000000000000000000000000000PES00010000001000000000000000020190221
201902210010001400000000000000010248000000000000000102488000000000027309196541RINALDI DUVE GISELLE          000000001874851000000000000000000000000000000000000000000000000000000000000000000000000000000000000000000000000000000000PES00010000001000000000000000020190221
201902210010001400000000000000010249000000000000000102498000000000027309196541RINALDI DUVE GISELLE          000000003234082000000000000000000000000000000000000000000000000000000000000000000000000000000000000000000000000000000000PES00010000001000000000000000020190221
201902210010001400000000000000010250000000000000000102508000000000033714496749ESTAC DE SERV RUTA 306 SH     000000001045229000000000000000000000000000000000000000000000000000000000000000000000000000000000000000000000000000000000PES00010000001000000000000000020190221
201902210010001400000000000000010251000000000000000102518000000000033714496749ESTAC DE SERV RUTA 306 SH     000000002350590000000000000000000000000000000000000000000000000000000000000000000000000000000000000000000000000000000000PES00010000001000000000000000020190221
201902210010001400000000000000010252000000000000000102528000000000033714496749ESTAC DE SERV RUTA 306 SH     000000001560000000000000000000000000000000000000000000000000000000000000000000000000000000000000000000000000000000000000PES00010000001000000000000000020190221
201902210010001400000000000000010253000000000000000102538000000000030712272542OLGA ZOTTOLA DE SIMONETO E HIJ000000004257442000000000000000000000000000000000000000000000000000000000000000000000000000000000000000000000000000000000PES00010000001000000000000000020190221
201902210010001400000000000000010254000000000000000102548000000000030712272542OLGA ZOTTOLA DE SIMONETO E HIJ000000000433946000000000000000000000000000000000000000000000000000000000000000000000000000000000000000000000000000000000PES00010000001000000000000000020190221
201902210010001400000000000000010255000000000000000102558000000000023111033919CHIVILISCO HECTOR SALVADOR    000000001874851000000000000000000000000000000000000000000000000000000000000000000000000000000000000000000000000000000000PES00010000001000000000000000020190221
201902210010001400000000000000010256000000000000000102568000000000030709765244MOLINO EL ESPAÑOL SRL         000000002072926000000000000000000000000000000000000000000000000000000000000000000000000000000000000000000000000000000000PES00010000001000000000000000020190221
201902210010001600000000000000000573000000000000000005738000000000030707005064B Y V TRANSPORTES SRL         000000000769510000000000000000000000000000000000000000000000000000000000000000000000000000000000000000000000000000000000PES00010000001000000000000000020190221
201902210010005100000000000000000074000000000000000000748000000000030702409310LA BAJADA SA                  000000005895120000000000000000000000000000000000000000000000000000000000000000000000000000000000000000000000000000000000PES00010000001000000000000000020190221
201902210010005100000000000000000075000000000000000000758000000000033708668759ACHERAL S.A.                  000000004999078000000000000000000000000000000000000000000000000000000000000000000000000000000000000000000000000000000000PES00010000001000000000000000020190221
201902210010005100000000000000000076000000000000000000768000000000030622886207COOP AGRICOLA COODEMONT LTDA  000000014400000000000000000000000000000000000000000000000000000000000000000000000000000000000000000000000000000000000000PES00010000001000000000000000020190221
201902210010005100000000000000000077000000000000000000778000000000033708668759ACHERAL S.A.                  000000003749288000000000000000000000000000000000000000000000000000000000000000000000000000000000000000000000000000000000PES00010000001000000000000000020190221
201902210060001400000000000000003068000000000000000030688000000000020239031847AVELLANEDA CARLOS             000000000277297000000000000000000000000000000000000000000000000000000000000000000000000000000000000000000000000000000000PES00010000001000000000000000020190221
201902210060001400000000000000003069000000000000000030698000000000020166931038RODRIGUEZ JOSE ALBERTO        000000000219784000000000000000000000000000000000000000000000000000000000000000000000000000000000000000000000000000000000PES00010000001000000000000000020190221
201902210060001400000000000000003070000000000000000030708000000000020217460574SECO FLAVIO DANIEL            000000001874851000000000000000000000000000000000000000000000000000000000000000000000000000000000000000000000000000000000PES00010000001000000000000000020190221
201902210060001400000000000000003071000000000000000030718000000000020273010522ROMANO DANIEL H               000000001444246000000000000000000000000000000000000000000000000000000000000000000000000000000000000000000000000000000000PES00010000001000000000000000020190221
201902210060001400000000000000003072000000000000000030728000000000024249268433MAI MARIANA MAGDALENA         000000000544132000000000000000000000000000000000000000000000000000000000000000000000000000000000000000000000000000000000PES00010000001000000000000000020190221
20190221F0000500000000000000000911000000000000000009118000000000030546689979YPF SA                        -00000003782702000000000000000000000000000000000000000000000000000000000000000000000000000000000000000000000000000000000PES00010000001000000000000000020190221
201902210030001400000000000000001488000000000000000014888000000000027148465296ARTERO LILIANA DEL VALLE      -00000000443847000000000000000000000000000000000000000000000000000000000000000000000000000000000000000000000000000000000PES00010000001000000000000000020190221
201902210030001400000000000000001489000000000000000014898000000000020324558625QUINTEROS MIGUEL ANGEL        -00000000262479000000000000000000000000000000000000000000000000000000000000000000000000000000000000000000000000000000000PES00010000001000000000000000020190221
201902210030005100000000000000000001000000000000000000018000000000033708668759ACHERAL S.A.                  -00000004999078000000000000000000000000000000000000000000000000000000000000000000000000000000000000000000000000000000000PES00010000001000000000000000020190221
201902220010001100000000000000008362000000000000000083628000000000030707089586NYNAGRO S.R.L.                000000020624999000000000000000000000000000000000000000000000000000000000000000000000000000000000000000000000000002752500PES00010000001000000000000000020190222
201902220010001100000000000000008363000000000000000083638000000000020298383366ROLDAN PEDRO DANIEL           000000007710001000000000000000000000000000000000000000000000000000000000000000000000000000000000000000000000000001101000PES00010000001000000000000000020190222
201902220010001100000000000000008364000000000000000083648000000000020298383366ROLDAN PEDRO DANIEL           000000006187500000000000000000000000000000000000000000000000000000000000000000000000000000000000000000000000000000825750PES00010000001000000000000000020190222
201902220010001100000000000000008365000000000000000083658000000000033714576629HORMECO SRL                   000000204490000000000000000000000000000000000000000000000000000000000000000000000000000000000000000000000000000028829685PES00010000001000000000000000020190222
201902220010001100000000000000008366000000000000000083668000000000020230271403ROTH CARLOS GERMAN            000000024741392000000000000000000000000000000000000000000000000000000000000000000000000000000000000000000000000003533109PES00010000001000000000000000020190222
201902220010001400000000000000010257000000000000000102578000000000030710423292TRANSPORTADORA MINERA SRL     000000001530642000000000000000000000000000000000000000000000000000000000000000000000000000000000000000000000000000000000PES00010000001000000000000000020190222
201902220010001400000000000000010258000000000000000102588000000000030708106727CASOIL SRL (P)                000000001534743000000000000000000000000000000000000000000000000000000000000000000000000000000000000000000000000000000000PES00010000001000000000000000020190222
201902220010001400000000000000010259000000000000000102598000000000023163142279DIAZ VICTOR HUGO              000000001549981000000000000000000000000000000000000000000000000000000000000000000000000000000000000000000000000000000000PES00010000001000000000000000020190222
201902220010001400000000000000010260000000000000000102608000000000020324610821CORTI DIEGO JAVIER            000000001128366000000000000000000000000000000000000000000000000000000000000000000000000000000000000000000000000000000000PES00010000001000000000000000020190222
201902220010001400000000000000010261000000000000000102618000000000030707089586NYNAGRO S.R.L.                000000001874851000000000000000000000000000000000000000000000000000000000000000000000000000000000000000000000000000000000PES00010000001000000000000000020190222
201902220010001400000000000000010262000000000000000102628000000000033564217129DI BACCO Y CIA SA             000000001549981000000000000000000000000000000000000000000000000000000000000000000000000000000000000000000000000000000000PES00010000001000000000000000020190222
201902220010001400000000000000010263000000000000000102638000000000020202185658AHUMADA ROBERTO               000000000205160000000000000000000000000000000000000000000000000000000000000000000000000000000000000000000000000000000000PES00010000001000000000000000020190222
201902220010001400000000000000010264000000000000000102648000000000020259228450FONTDEVILA CARLOS JOSE        000000000338074000000000000000000000000000000000000000000000000000000000000000000000000000000000000000000000000000000000PES00010000001000000000000000020190222
201902220010001400000000000000010265000000000000000102658000000000030707949216LOS LOPEZ S.R.L.              000000000599799000000000000000000000000000000000000000000000000000000000000000000000000000000000000000000000000000000000PES00010000001000000000000000020190222
201902220060001100000000000000000142000000000000000001428000000000033638640789DIRECCION PROVINCIAL DE VIALID000000045870000000000000000000000000000000000000000000000000000000000000000000000000000000000000000000000000000006055500PES00010000001000000000000000020190222
201902220060001400000000000000003073000000000000000030738000000000020125623000CHANTA JULIO                  000000001444246000000000000000000000000000000000000000000000000000000000000000000000000000000000000000000000000000000000PES00010000001000000000000000020190222
201902220060001400000000000000003074000000000000000030748000000000020255437861FRIAS JOSE LUIS               000000001874851000000000000000000000000000000000000000000000000000000000000000000000000000000000000000000000000000000000PES00010000001000000000000000020190222
201902220060001400000000000000003075000000000000000030758000000000020242005385SARME DANIEL IASIR            000000003663282000000000000000000000000000000000000000000000000000000000000000000000000000000000000000000000000000000000PES00010000001000000000000000020190222
201902220080001400000000000000000502000000000000000005028000000000020125623000CHANTA JULIO                  -00000000144246000000000000000000000000000000000000000000000000000000000000000000000000000000000000000000000000000000000PES00010000001000000000000000020190222
201902230010001100000000000000008367000000000000000083678000000000030708652268GUILLELMI HERNANDEZ SOC.DE HEC000000011565001000000000000000000000000000000000000000000000000000000000000000000000000000000000000000000000000001651500PES00010000001000000000000000020190223
201902230010001400000000000000010266000000000000000102668000000000020202185658AHUMADA ROBERTO               000000000261725000000000000000000000000000000000000000000000000000000000000000000000000000000000000000000000000000000000PES00010000001000000000000000020190223
201902230010001400000000000000010267000000000000000102678000000000023111033919CHIVILISCO HECTOR SALVADOR    000000000409936000000000000000000000000000000000000000000000000000000000000000000000000000000000000000000000000000000000PES00010000001000000000000000020190223
201902230060001400000000000000003076000000000000000030768000000000027217480081FERNANDEZ LILIA INES DEL VALLE000000002888493000000000000000000000000000000000000000000000000000000000000000000000000000000000000000000000000000000000PES00010000001000000000000000020190223
201902250010001100000000000000008368000000000000000083688000000000030708724560LA ASTURIANA S.R.L            000000015420001000000000000000000000000000000000000000000000000000000000000000000000000000000000000000000000000002202000PES00010000001000000000000000020190225
201902250010001400000000000000010268000000000000000102688000000000030531878171BOCANERA SA                   000000006240000000000000000000000000000000000000000000000000000000000000000000000000000000000000000000000000000000000000PES00010000001000000000000000020190225
201902250010001400000000000000010269000000000000000102698000000000030709479152EL YUCHAN S.A.                000000013391796000000000000000000000000000000000000000000000000000000000000000000000000000000000000000000000000000000000PES00010000001000000000000000020190225
201902250010001400000000000000010270000000000000000102708000000000020222159831MANSUR JULIO CESAR            000000004028937000000000000000000000000000000000000000000000000000000000000000000000000000000000000000000000000000000000PES00010000001000000000000000020190225
201902250010001400000000000000010271000000000000000102718000000000020290448515VILLALON MARTIN ANTONIO       000000030215834000000000000000000000000000000000000000000000000000000000000000000000000000000000000000000000000000000000PES00010000001000000000000000020190225
201902250010001400000000000000010272000000000000000102728000000000027240071482VILLAVICENCIO MARIA DE LOS ANG000000001128366000000000000000000000000000000000000000000000000000000000000000000000000000000000000000000000000000000000PES00010000001000000000000000020190225
201902250010001400000000000000010273000000000000000102738000000000030708587342QUILLEN BERRIES S.A           000000001844039000000000000000000000000000000000000000000000000000000000000000000000000000000000000000000000000000000000PES00010000001000000000000000020190225
201902250010001400000000000000010274000000000000000102748000000000030712272542OLGA ZOTTOLA DE SIMONETO E HIJ000000005433016000000000000000000000000000000000000000000000000000000000000000000000000000000000000000000000000000000000PES00010000001000000000000000020190225
201902250010001400000000000000010275000000000000000102758000000000030712272542OLGA ZOTTOLA DE SIMONETO E HIJ000000000433946000000000000000000000000000000000000000000000000000000000000000000000000000000000000000000000000000000000PES00010000001000000000000000020190225
201902250010001400000000000000010276000000000000000102768000000000030707382399OBATOWN COMPANY SA            000000000369817000000000000000000000000000000000000000000000000000000000000000000000000000000000000000000000000000000000PES00010000001000000000000000020190225
201902250010001400000000000000010277000000000000000102778000000000030702402146PREMOL SRL                    000000001549981000000000000000000000000000000000000000000000000000000000000000000000000000000000000000000000000000000000PES00010000001000000000000000020190225
201902250010001400000000000000010278000000000000000102788000000000030637914339ASOC COOP EXP LEALES INTA     000000000174315000000000000000000000000000000000000000000000000000000000000000000000000000000000000000000000000000000000PES00010000001000000000000000020190225
201902250010001400000000000000010279000000000000000102798000000000030523408247CERAMICA MARCOS PAZ SRL       000000001329884000000000000000000000000000000000000000000000000000000000000000000000000000000000000000000000000000000000PES00010000001000000000000000020190225
201902250060001400000000000000003077000000000000000030778000000000023070919249HERRERA JORGE ARMANDO         000000001671949000000000000000000000000000000000000000000000000000000000000000000000000000000000000000000000000000000000PES00010000001000000000000000020190225
201902250060001400000000000000003078000000000000000030788000000000027305981120CANGEMI IVANNA MARCELA        000000001236505000000000000000000000000000000000000000000000000000000000000000000000000000000000000000000000000000000000PES00010000001000000000000000020190225
