201902040010202000000000000000342181                8000000000030546689979YPF SA                        000000010493921000000000000000000000000000000000000000000000000000000000000000000000107300000000000000000000000000000000PES00010000001000000000180263700000000000000000000000000                              000000000000000
201902010030807300000000000000030725                8000000000030707210385LA SERENISIMA S.A.            000000000096750000000000000000000000000000000000000000000000000000000000000000000000000000000000000000000000000000000000PES00010000001000000000001679100000000000000000000000000                              000000000000000
201902010010002100000000000000052763                8000000000030708796065SHARE OUT SRL                 000000000291459000000000000000000000000000000000000000000000000000000000000000000000000000000000000000000000000000000000PES00010000001000000000005058400000000000000000000000000                              000000000000000
201902010010807300000000000000600839                8000000000030707210385LA SERENISIMA S.A.            000000000179003000000000000000000000000000000000000000000000000000000000000000000000001830000000000000000000000000000000PES00010000001000000000003074900000000000000000000000000                              000000000000000
201902010010000700000000000000103543                8000000000020133177249ROBERTO SANDOVAL              000000000529319000000000000000000000000000000000000000000000000000000000000000000000000000000000000000000000000000000000PES00010000001000000000009186500000000000000000000000000                              000000000000000
201902010010008000000000000000069317                8000000000030556381778JOSE V. PAOLETTI SRL          000000002043532000000000000000000000000000000000000000000000000000000000000000000000000000000000000000000000000001533464PES00010000001000000000008852400000000000000000000000000                              000000000000000
201902010010008000000000000000069316                8000000000030556381778JOSE V. PAOLETTI SRL          000000000000024000000000000000000000000000000000000000000000000000000000000000000000000000000000000000000000000000000000PES00010000001000000000000000400000000000000000000000000                              000000000000000
201902010010000100000000000000026810                8000000000030715422243DTS S.R.L.                    000000000159586000000000000000000000000000000000000000000000000000000000000000000000000000000000000000000000000000000000PES00010000001000000000002769700000000000000000000000000                              000000000000000
201902010010000700000000000000103600                8000000000020133177249ROBERTO SANDOVAL              000000000439879000000000000000000000000000000000000000000000000000000000000000000000000000000000000000000000000000000000PES00010000001000000000007634300000000000000000000000000                              000000000000000
201902010010000700000000000000103601                8000000000020133177249ROBERTO SANDOVAL              000000000128830000000000000000000000000000000000000000000000000000000000000000000000000000000000000000000000000000000000PES00010000001000000000002235900000000000000000000000000                              000000000000000
201902010010547500000000000000012141                8000000000030501112662BRITISH AMERICAN TABACCO      000000001632995000000000000000000000000000000000000000009928000000000000000000000000003874000000000000000000000001218745PES00010000001000000000006949900000000000000000000000000                              000000000000000
201902040010001400000000000000134179                8000000000030707249850DISTRIBUIDORA FAR PEP SH      000000000169643000000000000000000000000000000000000000000000000000000000000000000000000000000000000000000000000000000000PES00010000001000000000002944200000000000000000000000000                              000000000000000
201902010010000200000000000000000068                8000000000020118670486SARACHO RICARDO FRANSISCO     000000002859740000000000000000000000000000000000000000000000000000000000000000000000000000000000000000000000000000000000PES00010000001000000000027174000000000000000000000000000                              000000000000000
201902010010000500000000000000019536                8000000000030709969583FOCA SOFTWARE FACTORY S.A     000000000600003000000000000000000000000000000000000000000000000000000000000000000000000000000000000000000000000000000000PES00010000001000000000010413300000000000000000000000000                              000000000000000
201902080030807300000000000000030874                8000000000030707210385LA SERENISIMA S.A.            000000000041994000000000000000000000000000000000000000000000000000000000000000000000000000000000000000000000000000000000PES00010000001000000000000728800000000000000000000000000                              000000000000000
201902050060008800000000000000124746                8000000000020123456786CORRALON ECHAZU               000000000041456000000000000000000000000000000000000000000000000000000000000000000000000000000000000000000000000000000000PES00010000000E00000000000000000000000000000000000000000                              000000000000000
201902050060000100000000000000008250                8000000000020123456786SUPERMERCADO LUNAS            000000000041000000000000000000000000000000000000000000000000000000000000000000000000000000000000000000000000000000000000PES00010000000E00000000000000000000000000000000000000000                              000000000000000
201902050060000100000000000000008251                8000000000020123456786SUPERMERCADO LUNAS            000000000008000000000000000000000000000000000000000000000000000000000000000000000000000000000000000000000000000000000000PES00010000000E00000000000000000000000000000000000000000                              000000000000000
201902050060000100000000000000000019                8000000000020123456786VERDULERIA SAN ROQUE          000000000024000000000000000000000000000000000000000000000000000000000000000000000000000000000000000000000000000000000000PES00010000000E00000000000000000000000000000000000000000                              000000000000000
201902040060000100000000000000000002                8000000000020123456786GACETERO                      000000000163000000000000000000000000000000000000000000000000000000000000000000000000000000000000000000000000000000000000PES00010000000E00000000000000000000000000000000000000000                              000000000000000
201902040010002000000000000000023889                8000000000030657611936SILVA SRL                     000000000145892000000000000000000000000000000000000000000000000000000000000000000000001492000000000000000000000000000000PES00010000001000000000002506100000000000000000000000000                              000000000000000
201902060010000400000000000000000367                8000000000020282237203DISTRIBUIDORA LUPUCH          000000000216000000000000000000000000000000000000000000000000000000000000000000000000000000000000000000000000000000000000PES00010000001000000000003748800000000000000000000000000                              000000000000000
201902080010062300000000000000039077                8000000000030547751252POTIGIAN GOLOSINAS SACIF      000000000112639000000000000000000000000000000000000000000000000000000000000000000000001152000000000000000000000000000000PES00010000001000000000001934900000000000000000000000000                              000000000000000
201902060010000100000000000000000001                8000000000020342268111LA LLAVE FERRETERIA           000000000006655000000000000000000000000000000000000000000000000000000000000000000000000000000000000000000000000000000000PES00010000001000000000000115500000000000000000000000000                              000000000000000
201902060010001200000000000000199665                8000000000030542851836ABC S.A                       000000006299077000000000000000000000000000000000000000000000000000000000000000000000152397000000000000000000000000000000PES00010000001000000000106677900000000000000000000000000                              000000000000000
201902060060000300000000000000019736                8000000000020123456786FACUNDO DRUGTORE              000000000047300000000000000000000000000000000000000000000000000000000000000000000000000000000000000000000000000000000000PES00010000000E00000000000000000000000000000000000000000                              000000000000000
201902080010060100000000000000310367                8000000000030547751252POTIGIAN GOLOSINAS SACIF      000000000275427000000000000000000000000000000000000000006597000000000000000000000000002749000000000000000000000000000000PES00010000001000000000004617900000000000000000000000000                              000000000000000
201902080010060100000000000000310368                8000000000030547751252POTIGIAN GOLOSINAS SACIF      000000000572167000000000000000000000000000000000000000013705000000000000000000000000005710000000000000000000000000000000PES00010000001000000000009593200000000000000000000000000                              000000000000000
201902060060000400000000000000000144                8000000000020123456786IMPRENTA Y GRAFICA SALOMO     000000000021000000000000000000000000000000000000000000000000000000000000000000000000000000000000000000000000000000000000PES00010000000E00000000000000000000000000000000000000000                              000000000000000
201902060060000100000000000000020899                8000000000020123456786PINTURERIA DIRI               000000000009072000000000000000000000000000000000000000000000000000000000000000000000000000000000000000000000000000000000PES00010000000E00000000000000000000000000000000000000000                              000000000000000
201902080010060100000000000000310339                8000000000030547751252POTIGIAN GOLOSINAS SACIF      000000001750721000000000000000000000000000000000000000040079000000000000000000000000016700000000000000000000000000077409PES00010000001000000000028055500000000000000000000000000                              000000000000000
201902060010001100000000000000382342                8000000000030542851836ABC S.A                       000000001112173000000000000000000000000000000000000000026907000000000000000000000000000000000000000000000000000000000000PES00010000001000000000018835200000000000000000000000000                              000000000000000
201902080010509300000000000001418856                8000000000030518408689SALTA REFRESCOS S.A.          000000001158714000000000000000000000000000000000000000026249000000000000000000000000011714000000000000000000000000062022PES00010000001000000000018374600000000000000000000000000                              000000000000000
201902080010807300000000000000604066                8000000000030707210385LA SERENISIMA S.A.            000000000307174000000000000000000000000000000000000000007357000000000000000000000000003066000000000000000000000000000000PES00010000001000000000005150200000000000000000000000000                              000000000000000
201902080010008000000000000000069719                8000000000030556381778JOSE V. PAOLETTI SRL          000000001528092000000000000000000000000000000000000000000000000000000000000000000000000000000000000000000000000001151489PES00010000001000000000006536100000000000000000000000000                              000000000000000
201902070110000200000000000000000110                8000000000027325668607TAPIA ADRIANA GABRIELA        000000000513100000000000000000000000000000000000000000000000000000000000000000000000000000000000000000000000000000000000PES00010000000E00000000000000000000000000000000000000000                              000000000000000
201902080010000500000000000000000396                8000000000020342268111LA LLAVE FERRETERIA           000000000018700000000000000000000000000000000000000000000000000000000000000000000000000000000000000000000000000000000000PES00010000001000000000000324500000000000000000000000000                              000000000000000
201902080010000700000000000000104283                8000000000020133177249ROBERTO SANDOVAL              000000000250920000000000000000000000000000000000000000000000000000000000000000000000000000000000000000000000000000000000PES00010000001000000000004354600000000000000000000000000                              000000000000000
201902080010000700000000000000104284                8000000000020133177249ROBERTO SANDOVAL              000000000166691000000000000000000000000000000000000000000000000000000000000000000000000000000000000000000000000000000000PES00010000001000000000002893000000000000000000000000000                              000000000000000
201902080010000200000000000000000072                8000000000020118670486SARACHO RICARDO FRANSISCO     000000001953640000000000000000000000000000000000000000000000000000000000000000000000000000000000000000000000000000000000PES00010000001000000000018564000000000000000000000000000                              000000000000000
201902080010002100000000000000053128                8000000000030708796065SHARE OUT SRL                 000000000934598000000000000000000000000000000000000000000000000000000000000000000000000000000000000000000000000000000000PES00010000001000000000016220300000000000000000000000000                              000000000000000
201902110010000500000000000000010521                8000000000030710667590ROSA LIA FISCHER E HIJOS      000000000069910000000000000000000000000000000000000000000000000000000000000000000000000000000000000000000000000000000000PES00010000001000000000001213300000000000000000000000000                              000000000000000
201902110010000700000000000000104450                8000000000020133177249ROBERTO SANDOVAL              000000000325757000000000000000000000000000000000000000000000000000000000000000000000000000000000000000000000000000000000PES00010000001000000000005653600000000000000000000000000                              000000000000000
201902110010000700000000000000104449                8000000000020133177249ROBERTO SANDOVAL              000000000288912000000000000000000000000000000000000000000000000000000000000000000000000000000000000000000000000000000000PES00010000001000000000005013600000000000000000000000000                              000000000000000
201902110010000300000000000000367238                8000000000033687473189PANINO SA                     000000002123836000000000000000000000000000000000000000000000000000000000000000000000000000000000000000000000000000000000PES00010000001000000000036860000000000000000000000000000                              000000000000000
201902110010000300000000000000369020                8000000000033687473189PANINO SA                     000000004400383000000000000000000000000000000000000000000000000000000000000000000000000000000000000000000000000000000000PES00010000001000000000076370300000000000000000000000000                              000000000000000
201902120060000200000000000000000172                8000000000020315489548BULONERIA Y FERRETERIA MA     000000000015500000000000000000000000000000000000000000000000000000000000000000000000000000000000000000000000000000000000PES00010000000E00000000000000000000000000000000000000000                              000000000000000
201902120060000200000000000000000173                8000000000020315489548BOLONERIA Y FERRETERIA MA     000000000014050000000000000000000000000000000000000000000000000000000000000000000000000000000000000000000000000000000000PES00010000000E00000000000000000000000000000000000000000                              000000000000000
201902120010000500000000000000000404                8000000000020342268111LA LLAVE FERRETERIA           000000000195800000000000000000000000000000000000000000000000000000000000000000000000000000000000000000000000000000000000PES00010000001000000000003398100000000000000000000000000                              000000000000000
201902120060000100000000000046626405                8000000000020123456786VERDULERIA                    000000000018000000000000000000000000000000000000000000000000000000000000000000000000000000000000000000000000000000000000PES00010000000E00000000000000000000000000000000000000000                              000000000000000
201902120030201800000000000000046436                8000000000030546689979YPF SA                        000000000936732000000000000000000000000000000000000000000000000000000000000000000000009578000000000000000000000000000000PES00010000001000000000016091100000000000000000000000000                              000000000000000
201902120030201800000000000000045846                8000000000030546689979YPF SA                        000000000045091000000000000000000000000000000000000000000000000000000000000000000000000461000000000000000000000000000000PES00010000001000000000000774600000000000000000000000000                              000000000000000
201902120010000400000000000000000398                8000000000020282237203DISTRIBUIDORA LUPUCH          000000000247104000000000000000000000000000000000000000000000000000000000000000000000000000000000000000000000000000000000PES00010000001000000000004288600000000000000000000000000                              000000000000000
201902120010060200000000000000015802                8000000000030547751252POTIGIAN GOLOSINAS SACIF      000000000357439000000000000000000000000000000000000000008561000000000000000000000000003567000000000000000000000000000000PES00010000001000000000005993000000000000000000000000000                              000000000000000
201902120010060100000000000000312998                8000000000030547751252POTIGIAN GOLOSINAS SACIF      000000001414865000000000000000000000000000000000000000032776000000000000000000000000013657000000000000000000000000046476PES00010000001000000000022943000000000000000000000000000                              000000000000000
201902130060000200000000000000447635                8000000000020272716855EL MERCADITO                  000000000050200000000000000000000000000000000000000000000000000000000000000000000000000000000000000000000000000000000000PES00010000000E00000000000000000000000000000000000000000                              000000000000000
201902130010002900000000000000019413                8000000000030677762345AXIS LOGISTICA SA             000000001939016000000000000000000000000000000000000000000000000000000000000000000000000000000000000000000000000000000000PES00010000001000000000033652400000000000000000000000000                              000000000000000
201902130010060100000000000000313061                8000000000030547751252POTIGIAN GOLOSINAS SACIF      000000002599005000000000000000000000000000000000000000062252000000000000000000000000025938000000000000000000000000000000PES00010000001000000000043576100000000000000000000000000                              000000000000000
201902130060000100000000000000000476                8000000000020290109982FAMAILLA VIDRIOS              000000000030000000000000000000000000000000000000000000000000000000000000000000000000000000000000000000000000000000000000PES00010000000E00000000000000000000000000000000000000000                              000000000000000
201902140010000100000000000000005169                8000000000030710021859SAN GABRIEL                   000000000217800000000000000000000000000000000000000000000000000000000000000000000000000000000000000000000000000000000000PES00010000001000000000003780000000000000000000000000000                              000000000000000
201902140010000100000000000000027485                8000000000030715422243DTS S.R.L.                    000000000241854000000000000000000000000000000000000000000000000000000000000000000000000000000000000000000000000000000000PES00010000001000000000004197500000000000000000000000000                              000000000000000
201902140010000200000000000000001144                8000000000020315489548BULONERIA Y FERRETERIA MA     000000000030110000000000000000000000000000000000000000000000000000000000000000000000000000000000000000000000000000000000PES00010000001000000000000522600000000000000000000000000                              000000000000000
201902140010807300000000000000607223                8000000000030707210385LA SERENISIMA S.A.            000000000494453000000000000000000000000000000000000000011843000000000000000000000000004935000000000000000000000000000000PES00010000001000000000008290200000000000000000000000000                              000000000000000
201902150010008000000000000000070120                8000000000030556381778JOSE V. PAOLETTI SRL          000000001462163000000000000000000000000000000000000000000000000000000000000000000000000000000000000000000000000001096142PES00010000001000000000006352400000000000000000000000000                              000000000000000
201902150060000100000000000000000004                8000000000020123456786LA GACETA                     000000000150800000000000000000000000000000000000000000000000000000000000000000000000000000000000000000000000000000000000PES00010000000E00000000000000000000000000000000000000000                              000000000000000
201902150060000600000000000000025061                8000000000020123456786PINTURERIA DIRI               000000000030240000000000000000000000000000000000000000000000000000000000000000000000000000000000000000000000000000000000PES00010000000E00000000000000000000000000000000000000000                              000000000000000
201902150010509300000000000001424866                8000000000030518408689SALTA REFRESCOS S.A.          000000001064173000000000000000000000000000000000000000024300000000000000000000000000010739000000000000000000000000049018PES00010000001000000000017010300000000000000000000000000                              000000000000000
201902150010002100000000000000053444                8000000000030708796065SHARE OUT SRL                 000000000332740000000000000000000000000000000000000000000000000000000000000000000000000000000000000000000000000000000000PES00010000001000000000005774800000000000000000000000000                              000000000000000
201902150010000700000000000000105112                8000000000020133177249ROBERTO SANDOVAL              000000000605664000000000000000000000000000000000000000000000000000000000000000000000000000000000000000000000000000000000PES00010000001000000000010511500000000000000000000000000                              000000000000000
201902150010000700000000000000105113                8000000000020133177249ROBERTO SANDOVAL              000000000202889000000000000000000000000000000000000000000000000000000000000000000000000000000000000000000000000000000000PES00010000001000000000003521200000000000000000000000000                              000000000000000
201902160060000100000000000009803701                8000000000020123456786VERDULERIA                    000000000040000000000000000000000000000000000000000000000000000000000000000000000000000000000000000000000000000000000000PES00010000000E00000000000000000000000000000000000000000                              000000000000000
201902180010000100000000000000027675                8000000000030715422243DTS S.R.L.                    000000000659515000000000000000000000000000000000000000000000000000000000000000000000000000000000000000000000000000000000PES00010000001000000000011446100000000000000000000000000                              000000000000000
201902180010001500000000000000015979                8000000000030702360060NOANET S.A.                   000000000978000000000000000000000000000000000000000000000000000000000000000000000000010000000000000000000000000000000000PES00010000001000000000016800000000000000000000000000000                              000000000000000
201902180010000300000000000000370802                8000000000033687473189PANINO SA                     000000006165199000000000000000000000000000000000000000000000000000000000000000000000000000000000000000000000000000000000PES00010000001000000000106999300000000000000000000000000                              000000000000000
201902180010000700000000000000105260                8000000000020133177249ROBERTO SANDOVAL              000000000589326000000000000000000000000000000000000000000000000000000000000000000000000000000000000000000000000000000000PES00010000001000000000010228000000000000000000000000000                              000000000000000
201902180010000700000000000000105261                8000000000020133177249ROBERTO SANDOVAL              000000000350422000000000000000000000000000000000000000000000000000000000000000000000000000000000000000000000000000000000PES00010000001000000000006081700000000000000000000000000                              000000000000000
201902180030062100000000000000008820                8000000000030547751252POTIGIAN GOLOSINAS SACIF      000000000036997000000000000000000000000000000000000000000000000000000000000000000000000000000000000000000000000000000000PES00010000001000000000000642100000000000000000000000000                              000000000000000
201902180010547500000000000000012286                8000000000030501112662BRITISH AMERICAN TABACCO      000000001384923000000000000000000000000000000000000000008347000000000000000000000000003287000000000000000000000001036629PES00010000001000000000005842900000000000000000000000000                              000000000000000
201902200060000600000000000000025100                8000000000030711896585PINTURERIA DIRI               000000000008500000000000000000000000000000000000000000000000000000000000000000000000000000000000000000000000000000000000PES00010000000E00000000000000000000000000000000000000000                              000000000000000
201902200060000100000000000046626407                8000000000020123456786VERDULERIA                    000000000015000000000000000000000000000000000000000000000000000000000000000000000000000000000000000000000000000000000000PES00010000000E00000000000000000000000000000000000000000                              000000000000000
201902200060000100000000000046626406                8000000000020123456786FLETE ROSSO                   000000000150000000000000000000000000000000000000000000000000000000000000000000000000000000000000000000000000000000000000PES00010000000E00000000000000000000000000000000000000000                              000000000000000
201902200010042900000000000000003284                8000000000030507950848MOLINO CAÑUELAS S.A.C.I.F     000000002818687000000000000000000000000000000000000000000000000000000000000000000000084896000000000000000000000000000000PES00010000001000000000047446000000000000000000000000000                              000000000000000
201902200010201900000000000000294401                8000000000030546689979YPF SA                        000000008100359000000000000000000000000000000000000000000000000000000000000000000000082828000000000000000000000000000000PES00010000001000000000139147100000000000000000000000000                              000000000000000
201902200010062300000000000000041142                8000000000030547751252POTIGIAN GOLOSINAS SACIF      000000001366272000000000000000000000000000000000000000032725000000000000000000000000013635000000000000000000000000000000PES00010000001000000000022907600000000000000000000000000                              000000000000000
201902200010060100000000000000315664                8000000000030547751252POTIGIAN GOLOSINAS SACIF      000000000539687000000000000000000000000000000000000000012927000000000000000000000000005386000000000000000000000000000000PES00010000001000000000009048600000000000000000000000000                              000000000000000
201902200010060100000000000000315680                8000000000030547751252POTIGIAN GOLOSINAS SACIF      000000000805892000000000000000000000000000000000000000018174000000000000000000000000007573000000000000000000000000047110PES00010000001000000000012722100000000000000000000000000                              000000000000000
201902200010060100000000000000315663                8000000000030547751252POTIGIAN GOLOSINAS SACIF      000000001840220000000000000000000000000000000000000000044077000000000000000000000000018365000000000000000000000000000000PES00010000001000000000030854000000000000000000000000000                              000000000000000
201902200010060100000000000000315679                8000000000030547751252POTIGIAN GOLOSINAS SACIF      000000000192675000000000000000000000000000000000000000000000000000000000000000000000001858000000000000000000000000010960PES00010000001000000000003121500000000000000000000000000                              000000000000000
201902200010000400000000000000000417                8000000000020282237203DISTRIBUIDORA LUPUCH          000000000164632000000000000000000000000000000000000000000000000000000000000000000000000000000000000000000000000000000000PES00010000001000000000002857200000000000000000000000000                              000000000000000
201902200010003900000000000000000865                8000000000030702355601NUEVO POLONORTE SRL           000000000743602000000000000000000000000000000000000000000000000000000000000000000000000000000000000000000000000000000000PES00010000001000000000012905500000000000000000000000000                              000000000000000
201902200010003900000000000000000870                8000000000030702355601NUEVO POLONORTE SRL           000000000029000000000000000000000000000000000000000000000000000000000000000000000000000000000000000000000000000000000000PES00010000001000000000000503300000000000000000000000000                              000000000000000
201902220060000600000000000000025115                8000000000030711896585PINTURERIA DIRI               000000000022176000000000000000000000000000000000000000000000000000000000000000000000000000000000000000000000000000000000PES00010000000E00000000000000000000000000000000000000000                              000000000000000
201902220010807300000000000000610449                8000000000030707210385LA SERENISIMA S.A.            000000000322075000000000000000000000000000000000000000007714000000000000000000000000003214000000000000000000000000000000PES00010000001000000000005400100000000000000000000000000                              000000000000000
201902220010002100000000000000053777                8000000000030708796065SHARE OUT SRL                 000000000541636000000000000000000000000000000000000000000000000000000000000000000000000000000000000000000000000000000000PES00010000001000000000009400300000000000000000000000000                              000000000000000
201902220010008000000000000000070542                8000000000030556381778JOSE V. PAOLETTI SRL          000000002158235000000000000000000000000000000000000000000000000000000000000000000000000000000000000000000000000001625977PES00010000001000000000009237500000000000000000000000000                              000000000000000
201902230060000400000000000000000147                8000000000020262539270MARCOS L. SALOMON             000000000060000000000000000000000000000000000000000000000000000000000000000000000000000000000000000000000000000000000000PES00010000000000000000001041400000000000000000000000000                              000000000000000
201902250010000700000000000000106015                8000000000020133177249ROBERTO SANDOVAL              000000000583531000000000000000000000000000000000000000000000000000000000000000000000000000000000000000000000000000000000PES00010000001000000000010127400000000000000000000000000                              000000000000000
201902250010000700000000000000106016                8000000000020133177249ROBERTO SANDOVAL              000000000345201000000000000000000000000000000000000000000000000000000000000000000000000000000000000000000000000000000000PES00010000001000000000005991100000000000000000000000000                              000000000000000
201902250010000300000000000000372610                8000000000033687473189PANINO SA                     000000004223498000000000000000000000000000000000000000000000000000000000000000000000000000000000000000000000000000000000PES00010000001000000000073300400000000000000000000000000                              000000000000000
201902250060000600000000000000025137                8000000000020123456786PINTURERIA DIRI               000000000043848000000000000000000000000000000000000000000000000000000000000000000000000000000000000000000000000000000000PES00010000000E00000000000000000000000000000000000000000                              000000000000000
201902260010000100000000000000028329                8000000000030715422243DTS S.R.L.                    000000000311446000000000000000000000000000000000000000000000000000000000000000000000000000000000000000000000000000000000PES00010000001000000000005405300000000000000000000000000                              000000000000000
201902260010000400000000000000000444                8000000000020282237203DISTRIBUIDORA LUPUCH          000000000252000000000000000000000000000000000000000000000000000000000000000000000000000000000000000000000000000000000000PES00010000001000000000004373600000000000000000000000000                              000000000000000
201902260010509300000000000001432592                8000000000030518408689SALTA REFRESCOS S.A.          000000002146671000000000000000000000000000000000000000049990000000000000000000000000021567000000000000000000000000058837PES00010000001000000000034993200000000000000000000000000                              000000000000000
201902270010060100000000000000318358                8000000000030547751252POTIGIAN GOLOSINAS SACIF      000000001390984000000000000000000000000000000000000000032402000000000000000000000000013503000000000000000000000000038216PES00010000001000000000022681100000000000000000000000000                              000000000000000
201902270010060100000000000000318404                8000000000030547751252POTIGIAN GOLOSINAS SACIF      000000001638239000000000000000000000000000000000000000039239000000000000000000000000016350000000000000000000000000000000PES00010000001000000000027467500000000000000000000000000                              000000000000000
201902270010062300000000000000042048                8000000000030547751252POTIGIAN GOLOSINAS SACIF      000000001302082000000000000000000000000000000000000000031188000000000000000000000000012995000000000000000000000000000000PES00010000001000000000021831300000000000000000000000000                              000000000000000
201902270060001300000000000000075328                8000000000020123456786PANIFICACION ROSAURA          000000000048000000000000000000000000000000000000000000000000000000000000000000000000000000000000000000000000000000000000PES00010000000E00000000000000000000000000000000000000000                              000000000000000
201902270060010600000000000000005516                8000000000020123456786LUBRE SRL                     000000000020000000000000000000000000000000000000000000000000000000000000000000000000000000000000000000000000000000000000PES00010000000E00000000000000000000000000000000000000000                              000000000000000
201902270060000400000000000000000150                8000000000020123456786IMPRENTA SALOMON              000000000090800000000000000000000000000000000000000000000000000000000000000000000000000000000000000000000000000000000000PES00010000000E00000000000000000000000000000000000000000                              000000000000000
201902280010807300000000000000613496                8000000000030707210385LA SERENISIMA S.A.            000000000457860000000000000000000000000000000000000000010967000000000000000000000000004569000000000000000000000000000000PES00010000001000000000007676700000000000000000000000000                              000000000000000
201902280010008000000000000000070967                8000000000030556381778JOSE V. PAOLETTI SRL          000000001531910000000000000000000000000000000000000000000000000000000000000000000000000000000000000000000000000001151424PES00010000001000000000006603500000000000000000000000000                              000000000000000
201902280010001400000000000000137531                8000000000030707249850DISTRIBUIDORA FAR PEP SH      000000000169643000000000000000000000000000000000000000000000000000000000000000000000000000000000000000000000000000000000PES00010000001000000000002944200000000000000000000000000                              000000000000000
