12019040201 001000000000000000000351000000000000000003518030714046558MARTINO HNOS S.R.L            000000000000000000000000000067000000000024739210000000000000519500000000000000000000000000000000000000000000000000000000000000000000000000000000000000000000   00000000001 000000000000000000000000000000                                                                           00000000000000000000000
12019040201 001000000000000000000352000000000000000003528030670045087JUFEC S.A.                    000000000000000000000000000000000000000008926210000000000000187400000000000000000000000000000000000000000000000000000000000000000000000000000000000000000000   00000000001 000000000000000000000000000000                                                                           00000000000000000000000
12019040201 001000000000000000000353000000000000000003538030710502818KM 14 SRL                     000000000000000000000000000000000000000006446210000000000000135400000000000000000000000000000000000000000000000000000000000000000000000000000000000000000000   00000000001 000000000000000000000000000000                                                                           00000000000000000000000
12019040201 001000000000000000000354000000000000000003548030707010017NIDEPLUS                      000000000000000000000000000000000000000017355210000000000000364500000000000000000000000000000000000000000000000000000000000000000000000000000000000000000000   00000000001 000000000000000000000000000000                                                                           00000000000000000000000
12019040201 001000000000000000002013000000000000000020138030715704699EL TUCUMANO S.R.L             000000000000000000000000156253000000000689049210000000000014470100000000000000000000000000000000000000000000000000000000000000000000000000000000000000000000   00000000001 000000000000000000000000000000                                                                           00000000000000000000000
12019040201 001000000000000000002014000000000000000020148030715704699EL TUCUMANO S.R.L             000000000000000000000000031567000000016503718210000000000346578100000000000000000000000000000000000000000000000000000000000000000000000000000000000000000000   00000000001 000000000000000000000000000000                                                                           00000000000000000000000
12019040201 001000000000000000002015000000000000000020158030715704699EL TUCUMANO S.R.L             000000000000000000000000270753000000001313440210000000000027582000000000000000000000000000000000000000000000000000000000000000000000000000000000000000000000   00000000001 000000000000000000000000000000                                                                           00000000000000000000000
12019040201 001000000000000000002017000000000000000020178020238287201PAVON JOSE WALTER             000000000000000000000000040301000000000231229210000000000004855800000000000000000000000000000000000000000000000000000000000000000000000000000000000000000000   00000000001 000000000000000000000000000000                                                                           00000000000000000000000
12019040201 001000000000000000002018000000000000000020188030715704699EL TUCUMANO S.R.L             000000000000000000000000223445000000001083946210000000000022762700000000000000000000000000000000000000000000000000000000000000000000000000000000000000000000   00000000001 000000000000000000000000000000                                                                           00000000000000000000000
12019040201 001000000000000000002684000000000000000026848020252124196LUIS MARIO PETRELLI           000000000000000000000000020411000000000065775210000000000001381300000000000000000000000000000000000000000000000000000000000000000000000000000000000000000000   00000000001 000000000000000000000000000000                                                                           00000000000000000000000
12019040201 001000000000000000002685000000000000000026858033715947639CAROCA SRL                    000000000000000000000000027453000000000157509210000000000003307700000000000000000000000000000000000000000000000000000000000000000000000000000000000000000000   00000000001 000000000000000000000000000000                                                                           00000000000000000000000
12019040201 001000000000000000002686000000000000000026868027257855509PORRICIELLO ARIANA M          000000000000000000000000000000000000000291033210000000000006111700000000000000000000000000000000000000000000000000000000000000000000000000000000000000000000   00000000001 000000000000000000000000000000                                                                           00000000000000000000000
12019040201 001000000000000000003813000000000000000038138030715208373FINANCE GROUP SA              000000000000000000000000035498000000000131849210000000000002768800000000000000000000000000000000000000000000000000000000000000000000000000000000000000000000   00000000001 000000000000000000000000000000                                                                           00000000000000000000000
12019040201 001000000000000000003814000000000000000038148020168854057JUAN JOSE JUAREZ              000000000000000000000000032738000000000187833210000000000003944500000000000000000000000000000000000000000000000000000000000000000000000000000000000000000000   00000000001 000000000000000000000000000000                                                                           00000000000000000000000
12019040201 001000000000000000003815000000000000000038158020070102405SAAB WILLIAM ANTONIO          000000000000000000000000007555000000000043343210000000000000910200000000000000000000000000000000000000000000000000000000000000000000000000000000000000000000   00000000001 000000000000000000000000000000                                                                           00000000000000000000000
12019040201 001000000000000000003816000000000000000038168030711789908ZERO CONSTRUCIONES            000000000000000000000000044074000000000252867210000000000005310200000000000000000000000000000000000000000000000000000000000000000000000000000000000000000000   00000000001 000000000000000000000000000000                                                                           00000000000000000000000
12019040201 001000000000000000003817000000000000000038178020261388139OSCARI ARNALDO ANDRE          000000000000000000000000036846000000000118740210000000000002493600000000000000000000000000000000000000000000000000000000000000000000000000000000000000000000   00000000001 000000000000000000000000000000                                                                           00000000000000000000000
12019040201 001000000000000000003818000000000000000038188027257855509PORRICIELLO ARIANA M          000000000000000000000000030792000000000139844210000000000002936700000000000000000000000000000000000000000000000000000000000000000000000000000000000000000000   00000000001 000000000000000000000000000000                                                                           00000000000000000000000
12019040201 001000000000000000003819000000000000000038198030712398554INTER ACESORIOS SRL           000000000000000000000000020411000000000065775210000000000001381300000000000000000000000000000000000000000000000000000000000000000000000000000000000000000000   00000000001 000000000000000000000000000000                                                                           00000000000000000000000
12019040201 001000000000000000003820000000000000000038208030611977766FABRICA SRL                   000000000000000000000000002043000000000006578210000000000000138100000000000000000000000000000000000000000000000000000000000000000000000000000000000000000000   00000000001 000000000000000000000000000000                                                                           00000000000000000000000
12019040201 001000000000000000003821000000000000000038218027213103992FLORES MARIA EUGENIA          000000000000000000000000009101000000000033802210000000000000709800000000000000000000000000000000000000000000000000000000000000000000000000000000000000000000   00000000001 000000000000000000000000000000                                                                           00000000000000000000000
12019040201 001000000000000000003822000000000000000038228030710258577COMIDAS DEL GOURMET           000000000000000000000000018201000000000067604210000000000001419700000000000000000000000000000000000000000000000000000000000000000000000000000000000000000000   00000000001 000000000000000000000000000000                                                                           00000000000000000000000
12019040201 001000000000000000003823000000000000000038238020136192427GEREZ JUAN MELITON            000000000000000000000000006296000000000036120210000000000000758500000000000000000000000000000000000000000000000000000000000000000000000000000000000000000000   00000000001 000000000000000000000000000000                                                                           00000000000000000000000
12019040201 001000000000000000003824000000000000000038248030715948377CONSTRUCCIONES METAL          000000000000000000000000031923000000000183155210000000000003846300000000000000000000000000000000000000000000000000000000000000000000000000000000000000000000   00000000001 000000000000000000000000000000                                                                           00000000000000000000000
12019040201 001000000000000000003825000000000000000038258020161720225VILLAFAÑE JUAN ALBER          000000000000000000000000045455000000000260799210000000000005476800000000000000000000000000000000000000000000000000000000000000000000000000000000000000000000   00000000001 000000000000000000000000000000                                                                           00000000000000000000000
12019040201 001000000000000000003826000000000000000038268027244501813HERRERA MONICA ALEJA          000000000000000000000000018888000000000108359210000000000002275600000000000000000000000000000000000000000000000000000000000000000000000000000000000000000000   00000000001 000000000000000000000000000000                                                                           00000000000000000000000
12019040201 001000000000000000003827000000000000000038278020324466496HOFFMANN MAYKOL LUIS          000000000000000000000000012591000000000072240210000000000001517000000000000000000000000000000000000000000000000000000000000000000000000000000000000000000000   00000000001 000000000000000000000000000000                                                                           00000000000000000000000
12019040201 001000000000000000004000000000000000000040008030697195706NEOCON S.A                    000000000000000000000000007555000000000043343210000000000000910200000000000000000000000000000000000000000000000000000000000000000000000000000000000000000000   00000000001 000000000000000000000000000000                                                                           00000000000000000000000
12019040201 001000000000000000004001000000000000000040018020220851835ESCOBAR JUAN MARCELO          000000000000000000000000131908000000000662218210000000000013906500000000000000000000000000000000000000000000000000000000000000000000000000000000000000000000   00000000001 000000000000000000000000000000                                                                           00000000000000000000000
12019040201 001000000000000000004002000000000000000040028030695177239AGROPECUARIA MISTOL           000000000000000000000000036520000000000209531210000000000004400200000000000000000000000000000000000000000000000000000000000000000000000000000000000000000000   00000000001 000000000000000000000000000000                                                                           00000000000000000000000
12019040201 001000000000000000004003000000000000000040038020213280725CARLOS TAMER                  000000000000000000000000030617000000000098664210000000000002072000000000000000000000000000000000000000000000000000000000000000000000000000000000000000000000   00000000001 000000000000000000000000000000                                                                           00000000000000000000000
12019040201 001000000000000000004004000000000000000040048030710502818KM 14 SRL                     000000000000000000000000012591000000000072240210000000000001517000000000000000000000000000000000000000000000000000000000000000000000000000000000000000000000   00000000001 000000000000000000000000000000                                                                           00000000000000000000000
12019040201 001000000000000000004005000000000000000040058020252124196LUIS MARIO PETRELLI           000000000000000000000000010206000000000032889210000000000000690700000000000000000000000000000000000000000000000000000000000000000000000000000000000000000000   00000000001 000000000000000000000000000000                                                                           00000000000000000000000
12019040201 001000000000000000004006000000000000000040068027104295970BARRAZA MIRTA SUSANA          000000000000000000000000022041000000000126458210000000000002655600000000000000000000000000000000000000000000000000000000000000000000000000000000000000000000   00000000001 000000000000000000000000000000                                                                           00000000000000000000000
12019040201 001000000000000000004007000000000000000040078033708611129NIVEL TRUCK S.R.L             000000000000000000000000009828000000000036504210000000000000766600000000000000000000000000000000000000000000000000000000000000000000000000000000000000000000   00000000001 000000000000000000000000000000                                                                           00000000000000000000000
12019040201 001000000000000000004008000000000000000040088020069561544PARRA RODOLFO                 000000000000000000000000023930000000000137298210000000000002883300000000000000000000000000000000000000000000000000000000000000000000000000000000000000000000   00000000001 000000000000000000000000000000                                                                           00000000000000000000000
12019040201 001000000000000000004009000000000000000040098020171713219LOBO OMAR EDGARDO             000000000000000000000000010920000000000040561210000000000000851800000000000000000000000000000000000000000000000000000000000000000000000000000000000000000000   00000000001 000000000000000000000000000000                                                                           00000000000000000000000
12019040201 001000000000000000004010000000000000000040108020239863931LOPEZ CARRANZA                000000000000000000000000042192000000000242069210000000000005083500000000000000000000000000000000000000000000000000000000000000000000000000000000000000000000   00000000001 000000000000000000000000000000                                                                           00000000000000000000000
12019040201 001000000000000000004011000000000000000040118023291350399SERGIO SILVA                  000000000000000000000000012344000000000070822210000000000001487300000000000000000000000000000000000000000000000000000000000000000000000000000000000000000000   00000000001 000000000000000000000000000000                                                                           00000000000000000000000
12019040201 001000000000000000004012000000000000000040128030668116201BROCA SRL                     000000000000000000000000022098000000000126786210000000000002662500000000000000000000000000000000000000000000000000000000000000000000000000000000000000000000   00000000001 000000000000000000000000000000                                                                           00000000000000000000000
12019040201 001000000000000000004013000000000000000040138027176144373GOMEZ SONIA ALEJANDR          000000000000000000000000025182000000000144479210000000000003034100000000000000000000000000000000000000000000000000000000000000000000000000000000000000000000   00000000001 000000000000000000000000000000                                                                           00000000000000000000000
12019040201 001000000000000000004014000000000000000040148020161720225VILLAFAÑE JUAN ALBER          000000000000000000000000123732000000000600232210000000000012604800000000000000000000000000000000000000000000000000000000000000000000000000000000000000000000   00000000001 000000000000000000000000000000                                                                           00000000000000000000000
12019040201 001000000000000000004015000000000000000040158020219894784ALI JOSE YAMIL                000000000000000000000000015109000000000086686210000000000001820400000000000000000000000000000000000000000000000000000000000000000000000000000000000000000000   00000000001 000000000000000000000000000000                                                                           00000000000000000000000
12019040206 001000000000000000000455000000000000000051419900000000000                              000000000000000000000002848173000000011005438210000000000231114800000000000000000000000000300300000000000000000000000000000000000000000000000000000000000000   00000000001 000000000000000000000000000000                                                                           00000000000000000000000
12019040282 001000000000000000006451000000000000000184619900000000000                              000000000000000000000000000000000000001020909210000000000021439100000000000000000000000000700000000000000000000000000000000000000000000000000000000000000000   00000000001 000000000000000000000000000000                                                                           00000000000000000000000
12019040301 001000000000000000000119000000000000000001198020109644529SORIA RICARDO                 000000000000000000000000000001000000000039421210000000000000827900000000000000000000000000000000000000000000000000000000000000000000000000000000000000000000   00000000001 000000000000000000000000000000                                                                           00000000000000000000000
12019040301 001000000000000000000355000000000000000003558030695177239AGROPECUARIA MISTOL           000000000000000000000000000043000000000017320210000000000000363700000000000000000000000000100000000000000000000000000000000000000000000000000000000000000000   00000000001 000000000000000000000000000000                                                                           00000000000000000000000
12019040301 001000000000000000000356000000000000000003568030714126721ABC DISTRIBUCIONES            000000000000000000000000000000000000000008926210000000000000187400000000000000000000000000000000000000000000000000000000000000000000000000000000000000000000   00000000001 000000000000000000000000000000                                                                           00000000000000000000000
12019040301 001000000000000000000357000000000000000003578020132791040CUEZZO HUGO GERARDO           000000000000000000000000000000000000000016529210000000000000347100000000000000000000000000000000000000000000000000000000000000000000000000000000000000000000   00000000001 000000000000000000000000000000                                                                           00000000000000000000000
12019040301 001000000000000000000358000000000000000003588020132791040CUEZZO HUGO GERARDO           000000000000000000000000000000000000000007355210000000000000154500000000000000000000000000000000000000000000000000000000000000000000000000000000000000000000   00000000001 000000000000000000000000000000                                                                           00000000000000000000000
12019040301 001000000000000000000359000000000000000003598033697225639ARGENTI LEMON                 000000000000000000000000000000000000000014876210000000000000312400000000000000000000000000000000000000000000000000000000000000000000000000000000000000000000   00000000001 000000000000000000000000000000                                                                           00000000000000000000000
12019040301 001000000000000000000360000000000000000003608030709195251LA CELINA SRL                 000000000000000000000000000043000000000007981210000000000000167600000000000000000000000000000000000000000000000000000000000000000000000000000000000000000000   00000000001 000000000000000000000000000000                                                                           00000000000000000000000
12019040301 001000000000000000000361000000000000000003618027243383663MARIA ALEJANDRA CARD          000000000000000000000000000000000000000006281210000000000000131900000000000000000000000000000000000000000000000000000000000000000000000000000000000000000000   00000000001 000000000000000000000000000000                                                                           00000000000000000000000
12019040301 001000000000000000002019000000000000000020198027124089218MONTOYA GLADIS SUSAN          000000000000000000000000050363000000000288955210000000000006068100000000000000000000000000000000000000000000000000000000000000000000000000000000000000000000   00000000001 000000000000000000000000000000                                                                           00000000000000000000000
12019040301 001000000000000000002020000000000000000020208020301850604JOSE CHOQUE                   000000000000000000000000072782000000000353072210000000000007414500000000000000000000000000000000000000000000000000000000000000000000000000000000000000000000   00000000001 000000000000000000000000000000                                                                           00000000000000000000000
12019040301 001000000000000000002021000000000000000020218030715023136INLUC SRL                     000000000000000000000000018888000000000108359210000000000002275600000000000000000000000000000000000000000000000000000000000000000000000000000000000000000000   00000000001 000000000000000000000000000000                                                                           00000000000000000000000
12019040301 001000000000000000002022000000000000000020228020369721470RAMIREZ NESTOR ALEXA          000000000000000000000000056658000000000325075210000000000006826600000000000000000000000000000000000000000000000000000000000000000000000000000000000000000000   00000000001 000000000000000000000000000000                                                                           00000000000000000000000
12019040301 001000000000000000002023000000000000000020238027112398290GALINDO MARTA ROSA            000000000000000000000000043669000000000211843210000000000004448700000000000000000000000000000000000000000000000000000000000000000000000000000000000000000000   00000000001 000000000000000000000000000000                                                                           00000000000000000000000
12019040301 001000000000000000002024000000000000000020248030709751006EXPRESO ALPACHIRI SR          000000000000000000000000156253000000000689049210000000000014470100000000000000000000000000000000000000000000000000000000000000000000000000000000000000000000   00000000001 000000000000000000000000000000                                                                           00000000000000000000000
12019040301 001000000000000000002025000000000000000020258030709751006EXPRESO ALPACHIRI SR          000000000000000000000000017965000000000079219210000000000001663600000000000000000000000000000000000000000000000000000000000000000000000000000000000000000000   00000000001 000000000000000000000000000000                                                                           00000000000000000000000
12019040301 001000000000000000002026000000000000000020268030656671560ALIF DISTRIBUCIONES           000000000000000000000000072019000000000413203210000000000008677300000000000000000000000000000000000000000000000000000000000000000000000000000000000000000000   00000000001 000000000000000000000000000000                                                                           00000000000000000000000
12019040301 001000000000000000002027000000000000000020278030672453492ASERRADERO SAN ALBER          000000000000000000000000156253000000000689049210000000000014470100000000000000000000000000000000000000000000000000000000000000000000000000000000000000000000   00000000001 000000000000000000000000000000                                                                           00000000000000000000000
12019040301 001000000000000000002028000000000000000020288030707763430TRANSPORTE ALE S.A            000000000000000000000000104826000000000491880210000000000010329400000000000000000000000000000000000000000000000000000000000000000000000000000000000000000000   00000000001 000000000000000000000000000000                                                                           00000000000000000000000
12019040301 001000000000000000002029000000000000000020298030707056645TUCUMAN KIOSCO                000000000000000000000000043567000000000249959210000000000005249200000000000000000000000000000000000000000000000000000000000000000000000000000000000000000000   00000000001 000000000000000000000000000000                                                                           00000000000000000000000
12019040301 001000000000000000002030000000000000000020308020230302880MARCELO GUTIERREZ             000000000000000000000000080061000000000388380210000000000008155900000000000000000000000000000000000000000000000000000000000000000000000000000000000000000000   00000000001 000000000000000000000000000000                                                                           00000000000000000000000
12019040301 001000000000000000002031000000000000000020318020234197402MANLLA LEANDRO GERMA          000000000000000000000000148254000000000695659210000000000014608700000000000000000000000000000000000000000000000000000000000000000000000000000000000000000000   00000000001 000000000000000000000000000000                                                                           00000000000000000000000
12019040301 001000000000000000002687000000000000000026878030691743647AGROSISTEMAS SRL              000000000000000000000000006123000000000019732210000000000000414400000000000000000000000000000000000000000000000000000000000000000000000000000000000000000000   00000000001 000000000000000000000000000000                                                                           00000000000000000000000
12019040301 001000000000000000002688000000000000000026888030515969213TIMBO S.A                     000000000000000000000000024575000000000091278210000000000001916800000000000000000000000000000000000000000000000000000000000000000000000000000000000000000000   00000000001 000000000000000000000000000000                                                                           00000000000000000000000
12019040301 001000000000000000002689000000000000000026898030695177239AGROPECUARIA MISTOL           000000000000000000000000000000000000000024711210000000000000518900000000000000000000000000000000000000000000000000000000000000000000000000000000000000000000   00000000001 000000000000000000000000000000                                                                           00000000000000000000000
12019040301 001000000000000000002690000000000000000026908030707728546NUTRITIERRA SA                000000000000000000000000038377000000000123674210000000000002597200000000000000000000000000000000000000000000000000000000000000000000000000000000000000000000   00000000001 000000000000000000000000000000                                                                           00000000000000000000000
12019040301 001000000000000000002691000000000000000026918023231674969JOSE GONZALEZ FIRPO           000000000000000000000000026445000000000151727210000000000003186300000000000000000000000000000000000000000000000000000000000000000000000000000000000000000000   00000000001 000000000000000000000000000000                                                                           00000000000000000000000
12019040301 001000000000000000002692000000000000000026928020082467476RODRIGUEZ JOSE RAMON          000000000000000000000000018888000000000108359210000000000002275600000000000000000000000000000000000000000000000000000000000000000000000000000000000000000000   00000000001 000000000000000000000000000000                                                                           00000000000000000000000
12019040301 001000000000000000002693000000000000000026938020249490211SAMARA NESTOR                 000000000000000000000000008814000000000050566210000000000001061900000000000000000000000000000000000000000000000000000000000000000000000000000000000000000000   00000000001 000000000000000000000000000000                                                                           00000000000000000000000
12019040301 001000000000000000002694000000000000000026948020249490211SAMARA NESTOR                 000000000000000000000000010072000000000057790210000000000001213600000000000000000000000000000000000000000000000000000000000000000000000000000000000000000000   00000000001 000000000000000000000000000000                                                                           00000000000000000000000
12019040301 001000000000000000002695000000000000000026958020132791040CUEZZO HUGO GERARDO           000000000000000000000000035795000000000115353210000000000002422400000000000000000000000000000000000000000000000000000000000000000000000000000000000000000000   00000000001 000000000000000000000000000000                                                                           00000000000000000000000
12019040301 001000000000000000002696000000000000000026968030715490389FYF SERVICIOS SRL             000000000000000000000000047223000000000270941210000000000005689800000000000000000000000000000000000000000000000000000000000000000000000000000000000000000000   00000000001 000000000000000000000000000000                                                                           00000000000000000000000
12019040301 001000000000000000002697000000000000000026978020109644529SORIA RICARDO                 000000000000000000000000021406000000000122809210000000000002579000000000000000000000000000000000000000000000000000000000000000000000000000000000000000000000   00000000001 000000000000000000000000000000                                                                           00000000000000000000000
12019040301 001000000000000000002698000000000000000026988020228992306GONZALEZ PEDRO MARCE          000000000000000000000000115000000000000557871210000000000011715200000000000000000000000000000000000000000000000000000000000000000000000000000000000000000000   00000000001 000000000000000000000000000000                                                                           00000000000000000000000
12019040301 001000000000000000002699000000000000000026998020203703067VIERA MIGUEL ANTONIO          000000000000000000000000025182000000000144479210000000000003034100000000000000000000000000000000000000000000000000000000000000000000000000000000000000000000   00000000001 000000000000000000000000000000                                                                           00000000000000000000000
12019040301 001000000000000000003828000000000000000038288030691743647AGROSISTEMAS SRL              000000000000000000000000018860000000000086114210000000000001808400000000000000000000000000000000000000000000000000000000000000000000000000000000000000000000   00000000001 000000000000000000000000000000                                                                           00000000000000000000000
12019040301 001000000000000000003829000000000000000038298020416527920LAUTARO ROBLEDO               000000000000000000000000018888000000000108359210000000000002275600000000000000000000000000000000000000000000000000000000000000000000000000000000000000000000   00000000001 000000000000000000000000000000                                                                           00000000000000000000000
12019040301 001000000000000000003830000000000000000038308030715683705ZERESUS S A                   000000000000000000000000031637000000000101957210000000000002141100000000000000000000000000000000000000000000000000000000000000000000000000000000000000000000   00000000001 000000000000000000000000000000                                                                           00000000000000000000000
12019040301 001000000000000000003831000000000000000038318020335417284JUAN JESUS PIERO PIN          000000000000000000000000074510000000000250820210000000000005267200000000000000000000000000000000000000000000000000000000000000000000000000000000000000000000   00000000001 000000000000000000000000000000                                                                           00000000000000000000000
12019040301 001000000000000000003832000000000000000038328030609607935KIMBERLY CLARK ARGEN          000000000000000000000000021436000000000069079210000000000001450700000000000000000000000000000000000000000000000000000000000000000000000000000000000000000000   00000000001 000000000000000000000000000000                                                                           00000000000000000000000
12019040301 001000000000000000003833000000000000000038338030712345647TRAILINGSAT                   000000000000000000000000010206000000000032889210000000000000690700000000000000000000000000000000000000000000000000000000000000000000000000000000000000000000   00000000001 000000000000000000000000000000                                                                           00000000000000000000000
12019040301 001000000000000000003834000000000000000038348030708544678PEDROTTI SRL                  000000000000000000000000026430000000000151639210000000000003184400000000000000000000000000000000000000000000000000000000000000000000000000000000000000000000   00000000001 000000000000000000000000000000                                                                           00000000000000000000000
12019040301 001000000000000000003835000000000000000038358023265797024GODINO MARIA CAROLIN          000000000000000000000000012591000000000072240210000000000001517000000000000000000000000000000000000000000000000000000000000000000000000000000000000000000000   00000000001 000000000000000000000000000000                                                                           00000000000000000000000
12019040301 001000000000000000003836000000000000000038368020136272641VICENTE CHIARELLO             000000000000000000000000030223000000000173397210000000000003641400000000000000000000000000000000000000000000000000000000000000000000000000000000000000000000   00000000001 000000000000000000000000000000                                                                           00000000000000000000000
12019040301 001000000000000000003837000000000000000038378030716142384SIMAC                         000000000000000000000000012247000000000039465210000000000000828800000000000000000000000000000000000000000000000000000000000000000000000000000000000000000000   00000000001 000000000000000000000000000000                                                                           00000000000000000000000
12019040301 001000000000000000003838000000000000000038388020223327347LOPEZ DANTE GABRIEL           000000000000000000000000009451000000000054226210000000000001138700000000000000000000000000000000000000000000000000000000000000000000000000000000000000000000   00000000001 000000000000000000000000000000                                                                           00000000000000000000000
12019040301 001000000000000000003839000000000000000038398020147543280GARDELLA JUAN CARLOS          000000000000000000000000037759000000000121686210000000000002555400000000000000000000000000000000000000000000000000000000000000000000000000000000000000000000   00000000001 000000000000000000000000000000                                                                           00000000000000000000000
12019040301 001000000000000000003840000000000000000038408020219481978GARCIA DIEGO OMAR             000000000000000000000000024498000000000103724210000000000002178200000000000000000000000000000000000000000000000000000000000000000000000000000000000000000000   00000000001 000000000000000000000000000000                                                                           00000000000000000000000
12019040301 001000000000000000003841000000000000000038418030710996586SMW AGRO SRL                  000000000000000000000000031477000000000180599210000000000003792600000000000000000000000000000000000000000000000000000000000000000000000000000000000000000000   00000000001 000000000000000000000000000000                                                                           00000000000000000000000
12019040301 001000000000000000003842000000000000000038428030716332884AGROPECUARIA BALVERD          000000000000000000000000020404000000000117063210000000000002458300000000000000000000000000000000000000000000000000000000000000000000000000000000000000000000   00000000001 000000000000000000000000000000                                                                           00000000000000000000000
12019040301 001000000000000000003843000000000000000038438020108347989LUIS EDUARDO MARTINE          000000000000000000000000012247000000000039465210000000000000828800000000000000000000000000000000000000000000000000000000000000000000000000000000000000000000   00000000001 000000000000000000000000000000                                                                           00000000000000000000000
12019040301 001000000000000000003844000000000000000038448020080822767RICARDO C. MORA               000000000000000000000000040822000000000131553210000000000002762600000000000000000000000000000000000000000000000000000000000000000000000000000000000000000000   00000000001 000000000000000000000000000000                                                                           00000000000000000000000
12019040301 001000000000000000003845000000000000000038458023206129824PEREZ AZUCENA                 000000000000000000000000012247000000000039465210000000000000828800000000000000000000000000000000000000000000000000000000000000000000000000000000000000000000   00000000001 000000000000000000000000000000                                                                           00000000000000000000000
12019040301 001000000000000000003846000000000000000038468030709183458IRARRAZABAL - NIEVA           000000000000000000000000013854000000000079484210000000000001669200000000000000000000000000000000000000000000000000000000000000000000000000000000000000000000   00000000001 000000000000000000000000000000                                                                           00000000000000000000000
12019040301 001000000000000000003847000000000000000038478033708194609COPAT LTDA                    000000000000000000000000020411000000000065775210000000000001381300000000000000000000000000000000000000000000000000000000000000000000000000000000000000000000   00000000001 000000000000000000000000000000                                                                           00000000000000000000000
12019040301 001000000000000000003848000000000000000038488030714233897NAVE SRL                      000000000000000000000000045962000000000263697210000000000005537700000000000000000000000000000000000000000000000000000000000000000000000000000000000000000000   00000000001 000000000000000000000000000000                                                                           00000000000000000000000
12019040301 001000000000000000003849000000000000000038498030708298316LEON ALPEROVICH GROU          000000000000000000000000016332000000000052627210000000000001105200000000000000000000000000000000000000000000000000000000000000000000000000000000000000000000   00000000001 000000000000000000000000000000                                                                           00000000000000000000000
12019040301 001000000000000000003850000000000000000038508030716383659LOS CARDOS SAS                000000000000000000000000014557000000000070614210000000000001482900000000000000000000000000000000000000000000000000000000000000000000000000000000000000000000   00000000001 000000000000000000000000000000                                                                           00000000000000000000000
12019040301 001000000000000000003851000000000000000038518020069561544PARRA RODOLFO                 000000000000000000000000028963000000000166170210000000000003489600000000000000000000000000000000000000000000000000000000000000000000000000000000000000000000   00000000001 000000000000000000000000000000                                                                           00000000000000000000000
12019040301 001000000000000000004016000000000000000040168020363157360CARLOS FERNANDO RUIZ          000000000000000000000000030626000000000098691210000000000002072500000000000000000000000000000000000000000000000000000000000000000000000000000000000000000000   00000000001 000000000000000000000000000000                                                                           00000000000000000000000
12019040301 001000000000000000004017000000000000000040178030708008040RED DE SEGURO MEDICO          000000000000000000000000018201000000000067604210000000000001419700000000000000000000000000000000000000000000000000000000000000000000000000000000000000000000   00000000001 000000000000000000000000000000                                                                           00000000000000000000000
12019040301 001000000000000000004018000000000000000040188020294167405DIAZ MARTIN FRANCISC          000000000000000000000000020411000000000065775210000000000001381300000000000000000000000000000000000000000000000000000000000000000000000000000000000000000000   00000000001 000000000000000000000000000000                                                                           00000000000000000000000
12019040301 001000000000000000004019000000000000000040198020276115023ALBARRACIN VICTOR FA          000000000000000000000000009187000000000029603210000000000000621700000000000000000000000000000000000000000000000000000000000000000000000000000000000000000000   00000000001 000000000000000000000000000000                                                                           00000000000000000000000
12019040301 001000000000000000004020000000000000000040208020070102405SAAB WILLIAM ANTONIO          000000000000000000000000010206000000000032889210000000000000690700000000000000000000000000000000000000000000000000000000000000000000000000000000000000000000   00000000001 000000000000000000000000000000                                                                           00000000000000000000000
12019040301 001000000000000000004021000000000000000040218027257855509PORRICIELLO ARIANA M          000000000000000000000000035280000000000169247210000000000003554200000000000000000000000000000000000000000000000000000000000000000000000000000000000000000000   00000000001 000000000000000000000000000000                                                                           00000000000000000000000
12019040301 001000000000000000004022000000000000000040228033708194609COPAT LTDA                    000000000000000000000000014288000000000046043210000000000000966900000000000000000000000000000000000000000000000000000000000000000000000000000000000000000000   00000000001 000000000000000000000000000000                                                                           00000000000000000000000
12019040301 001000000000000000004023000000000000000040238030675407416FERRETERA DEL NORTE           000000000000000000000000045939000000000148044210000000000003108900000000000000000000000000000000000000000000000000000000000000000000000000000000000000000000   00000000001 000000000000000000000000000000                                                                           00000000000000000000000
12019040301 001000000000000000004024000000000000000040248030708535814CULTIVOS INVERNALES           000000000000000000000000030617000000000098664210000000000002072000000000000000000000000000000000000000000000000000000000000000000000000000000000000000000000   00000000001 000000000000000000000000000000                                                                           00000000000000000000000
12019040301 001000000000000000004025000000000000000040258020941072330FLORES PALACIOS               000000000000000000000000012592000000000072250210000000000001517300000000000000000000000000000000000000000000000000000000000000000000000000000000000000000000   00000000001 000000000000000000000000000000                                                                           00000000000000000000000
12019040301 001000000000000000004026000000000000000040268020106357642VEGA SEGUNDO OSCAR            000000000000000000000000045331000000000260083210000000000005461800000000000000000000000000000000000000000000000000000000000000000000000000000000000000000000   00000000001 000000000000000000000000000000                                                                           00000000000000000000000
12019040301 001000000000000000004027000000000000000040278020223327347LOPEZ DANTE GABRIEL           000000000000000000000000012591000000000072240210000000000001517000000000000000000000000000000000000000000000000000000000000000000000000000000000000000000000   00000000001 000000000000000000000000000000                                                                           00000000000000000000000
12019040301 001000000000000000004028000000000000000040288030711949727LOS CHAGUARES S.A.            000000000000000000000000026541000000000085534210000000000001796200000000000000000000000000000000000000000000000000000000000000000000000000000000000000000000   00000000001 000000000000000000000000000000                                                                           00000000000000000000000
12019040301 001000000000000000004029000000000000000040298030707691448LA CASA DEL INSTALAD          000000000000000000000000030617000000000098664210000000000002072000000000000000000000000000000000000000000000000000000000000000000000000000000000000000000000   00000000001 000000000000000000000000000000                                                                           00000000000000000000000
12019040301 001000000000000000004030000000000000000040308030715454439NAVARRO SA                    000000000000000000000000020411000000000065775210000000000001381300000000000000000000000000000000000000000000000000000000000000000000000000000000000000000000   00000000001 000000000000000000000000000000                                                                           00000000000000000000000
12019040301 001000000000000000004031000000000000000040318020259225273MARTIN GUIDO FERREYR          000000000000000000000000018201000000000067604210000000000001419700000000000000000000000000000000000000000000000000000000000000000000000000000000000000000000   00000000001 000000000000000000000000000000                                                                           00000000000000000000000
12019040301 001000000000000000004032000000000000000040328020302044474PAEZ LUIS ARMANDO             000000000000000000000000010206000000000032889210000000000000690700000000000000000000000000000000000000000000000000000000000000000000000000000000000000000000   00000000001 000000000000000000000000000000                                                                           00000000000000000000000
12019040301 001000000000000000004033000000000000000040338030716139227POSCO ARGENTINA S.A.          000000000000000000000000020153000000000115629210000000000002428200000000000000000000000000000000000000000000000000000000000000000000000000000000000000000000   00000000001 000000000000000000000000000000                                                                           00000000000000000000000
12019040301 001000000000000000004034000000000000000040348030709082619ROES INGENIERIA               000000000000000000000000007555000000000043343210000000000000910200000000000000000000000000000000000000000000000000000000000000000000000000000000000000000000   00000000001 000000000000000000000000000000                                                                           00000000000000000000000
12019040301 001000000000000000004035000000000000000040358033707379419AGROQUIMICA ALBERDI           000000000000000000000000018888000000000108359210000000000002275600000000000000000000000000000000000000000000000000000000000000000000000000000000000000000000   00000000001 000000000000000000000000000000                                                                           00000000000000000000000
12019040301 001000000000000000004036000000000000000040368027143919191CHAVARRIA SANTO               000000000000000000000000010206000000000032889210000000000000690700000000000000000000000000000000000000000000000000000000000000000000000000000000000000000000   00000000001 000000000000000000000000000000                                                                           00000000000000000000000
12019040301 001000000000000000004037000000000000000040378030689536944UNITEC SA                     000000000000000000000000018201000000000067604210000000000001419700000000000000000000000000000000000000000000000000000000000000000000000000000000000000000000   00000000001 000000000000000000000000000000                                                                           00000000000000000000000
12019040301 001000000000000000004038000000000000000040388030566517198SANATORIO NUESTRA SR          000000000000000000000000018888000000000108359210000000000002275600000000000000000000000000000000000000000000000000000000000000000000000000000000000000000000   00000000001 000000000000000000000000000000                                                                           00000000000000000000000
12019040301 001000000000000000004039000000000000000040398020138032478ANDRADA LUIS                  000000000000000000000000012591000000000072240210000000000001517000000000000000000000000000000000000000000000000000000000000000000000000000000000000000000000   00000000001 000000000000000000000000000000                                                                           00000000000000000000000
12019040301 001000000000000000004040000000000000000040408030709868639TECNO CAMPO SRL               000000000000000000000000025182000000000144479210000000000003034100000000000000000000000000000000000000000000000000000000000000000000000000000000000000000000   00000000001 000000000000000000000000000000                                                                           00000000000000000000000
12019040301 001000000000000000004041000000000000000040418020292427787SARAVIA NELSON LUIS           000000000000000000000000006296000000000036120210000000000000758500000000000000000000000000000000000000000000000000000000000000000000000000000000000000000000   00000000001 000000000000000000000000000000                                                                           00000000000000000000000
12019040301 001000000000000000004042000000000000000040428030711051879GALAXY LITHIUM SA             000000000000000000000000006296000000000036120210000000000000758500000000000000000000000000000000000000000000000000000000000000000000000000000000000000000000   00000000001 000000000000000000000000000000                                                                           00000000000000000000000
12019040301 001000000000000000004043000000000000000040438030711873518SILNA SRL                     000000000000000000000000029591000000000169777210000000000003565300000000000000000000000000000000000000000000000000000000000000000000000000000000000000000000   00000000001 000000000000000000000000000000                                                                           00000000000000000000000
12019040301 001000000000000000004044000000000000000040448020358065814AGUSTIN GUILLEN               000000000000000000000000044068000000000252839210000000000005309700000000000000000000000000000000000000000000000000000000000000000000000000000000000000000000   00000000001 000000000000000000000000000000                                                                           00000000000000000000000
12019040301 001000000000000000004045000000000000000040458030583516790LIBRERIA SAN PABLO S          000000000000000000000000039802000000000128264210000000000002693500000000000000000000000000000000000000000000000000000000000000000000000000000000000000000000   00000000001 000000000000000000000000000000                                                                           00000000000000000000000
12019040301 001000000000000000004046000000000000000040468030714459569LICING SRL                    000000000000000000000000040827000000000131568210000000000002762900000000000000000000000000000000000000000000000000000000000000000000000000000000000000000000   00000000001 000000000000000000000000000000                                                                           00000000000000000000000
12019040301 001000000000000000004047000000000000000040478023253685409CARRERAS MIGUEL ANGE          000000000000000000000000026206000000000127124210000000000002669600000000000000000000000000000000000000000000000000000000000000000000000000000000000000000000   00000000001 000000000000000000000000000000                                                                           00000000000000000000000
12019040301 001000000000000000004048000000000000000040488030708389354CENTRO CARD SA                000000000000000000000000036405000000000135219210000000000002839600000000000000000000000000000000000000000000000000000000000000000000000000000000000000000000   00000000001 000000000000000000000000000000                                                                           00000000000000000000000
12019040301 001000000000000000004049000000000000000040498023070829649SISINI ALBERTO JULIO          000000000000000000000000039031000000000223942210000000000004702800000000000000000000000000000000000000000000000000000000000000000000000000000000000000000000   00000000001 000000000000000000000000000000                                                                           00000000000000000000000
12019040301 001000000000000000004050000000000000000040508023233105619GONZALEZ JULIO ROBER          000000000000000000000000044906000000000144716210000000000003039000000000000000000000000000000000000000000000000000000000000000000000000000000000000000000000   00000000001 000000000000000000000000000000                                                                           00000000000000000000000
12019040301 001000000000000000004051000000000000000040518030714042447TIKAL S.R.L                   000000000000000000000000015110000000000086693210000000000001820600000000000000000000000000000000000000000000000000000000000000000000000000000000000000000000   00000000001 000000000000000000000000000000                                                                           00000000000000000000000
12019040301 001000000000000000004052000000000000000040528020112380451BAZA LUIS DAVID               000000000000000000000000033997000000000195053210000000000004096100000000000000000000000000000000000000000000000000000000000000000000000000000000000000000000   00000000001 000000000000000000000000000000                                                                           00000000000000000000000
12019040301 001000000000000000004053000000000000000040538030710280882LOGISTICA UNITRANS S          000000000000000000000000012377000000000060045210000000000001260900000000000000000000000000000000000000000000000000000000000000000000000000000000000000000000   00000000001 000000000000000000000000000000                                                                           00000000000000000000000
12019040301 001000000000000000004054000000000000000040548020232385163BUMBACHER CLAUDIO             000000000000000000000000032737000000000187826210000000000003944400000000000000000000000000000000000000000000000000000000000000000000000000000000000000000000   00000000001 000000000000000000000000000000                                                                           00000000000000000000000
12019040301 001000000000000000004055000000000000000040558020205718908MARTINEZ ANGEL ENRIQ          000000000000000000000000012591000000000072240210000000000001517000000000000000000000000000000000000000000000000000000000000000000000000000000000000000000000   00000000001 000000000000000000000000000000                                                                           00000000000000000000000
12019040306 001000000000000000000457000000000000000051869900000000000                              000000000000000000000002305832000000009906253210000000000208031200000000000000000000000000100200000000000000000000000000000000000000000000000000000000000000   00000000001 000000000000000000000000000000                                                                           00000000000000000000000
